:100000000C94DA050C94F7050C94F7050C94F8267B
:100010000C94F7050C94F7050C94F7050C94F70570
:100020000C94F7050C94F7050C94082E0C94DC2E18
:100030000C9403290C94F7050C94F7050C94F70520
:100040000C94F7050C94F7050C94F7050C94F70540
:100050000C94F7050C94A6290C94F7050C94F7055D
:100060000C94F7050C94F7050C94F7050C94F70520
:100070000C94F7050C94F7050C94F7050C94F70510
:100080000C94F7050C94F7050C94F7050C94F70500
:100090000C94F7050C94F7050C94F7050C94F705F0
:1000A0000C94F7050C94F7050C94F7050102E30195
:1000B0000157010157000102E001012B000102E09C
:1000C0000102E101011A000102E00102E101010760
:1000D00000010136000102E001011C000102E20101
:1000E000012C00010139000102E3010107000102B6
:1000F000E3010151000102E3010152000102E201AA
:10010000013D000102E00102E2010119000102E0EB
:10011000010219000102E0010206000102E30102EE
:10012000E1010216007774010128000102E3720167
:1001300003E30001013200010134000102E1010189
:10014000320103E1000102E10101260103E10001A6
:1001500002E10101340103E1000102E10101250195
:1001600003E1004C001E001F00200021002200B40B
:100170005D08570A570B5713001C002B620400122E
:1001800000080018440C00E000095714000D000E90
:10019000001B000000E200BD5D2C4129640457B241
:1001A0005D270026002500240023002F620F000B8E
:1001B0000006000A0009002A001600025717001561
:1001C000000700E7001D0019001A001000050000DC
:1001D00000BC5D065728423661055701003A003BD6
:1001E000003C003D003E0001003F004000E2002BCB
:1001F00000430001004E004B00BA5DBB5D6800018A
:1002000000000000000000000000000000010001EC
:10021000000100010000002A00AB00AE00AC0000AD
:10022000000000A9000000BF5DBE5DC05D0000A829
:10023000000F570E570D5700570C57AA000000002B
:1002400000000000000000000001000100010001AA
:10025000000000000000000000000000000000019D
:10026000004A004B0046000000000001001057113A
:100270005712570157135701004C004C004B004ECA
:1002800000E0000000010001000000000000002A62
:100290000000000000000000000000C15DB95DB872
:1002A0005DB65DB55DB75D01004F00520051005075
:1002B00000B35D000000000000000000000000002E
:1002C000000000000000000000000000000000002E
:1002D000000000000000000000000000000000CE50
:1002E0005CC35C0000C65CC85CCA5CCC5CC45C00DF
:1002F00000C75CC95CCB5CCD5C0000000000000066
:1003000000000000000000000000000000000000ED
:1003100000000000000000000000000000000000DD
:100320005C00000000000000000000000000000071
:1003300000000000000000000000000000000000BD
:1003400000000000000000000000000000000000AD
:10035000000000000000000000000000000000009D
:10036000000000000000000000000000000000008D
:10037000000000000000000000000000000000007D
:100380000000000000000000000000000000002647
:1003900000250024000000000000002300220021AE
:1003A0000027000000000020001F001E00000000C9
:1003B0000000000000000000000000000101010139
:1003C0000101010101020202020202020202030310
:1003D00003030303030304040404040404050505E0
:1003E00005050606060606070707070708080808A2
:1003F000090909090A0A0A0B0B0B0C0C0C0D0D0D4F
:100400000E0E0E0F0F0F10101111111212131314E4
:1004100014151516161717181819191A1A1B1B1C5C
:100420001D1D1E1E1F2020212222232424252626B6
:10043000272829292A2B2C2D2D2E2F3031323233EB
:100440003435363738393A3B3C3D3E3F40414243F4
:100450004445464748494A4C4D4E4F5051535455D8
:100460005658595A5B5D5E5F616264656668696B88
:100470006C6D6F7072737577787A7B7D7E80828306
:100480008587888A8C8E8F91939596989A9C9EA04A
:10049000A2A3A5A7A9ABADAFB1B3B5B7BABCBEC057
:1004A000C2C4C6C9CBCDCFD1D4D6D8DBDDDFE2E420
:1004B000E7E9EBEEF0F3F5F8FAFDFF00AE00AF0070
:1004C000DA0281FFD9F1DB20A4A62EAF00A0C00084
:1004D000A1C800AED580A81FD300408D1420000015
:1004E00000000000003E5B4F5B3E003E6B4F6B3EEA
:1004F000001C3E7C3E1C00183C7E3C18001C577DB6
:10050000571C001C5E7F5E1C0000183C180000FF9A
:10051000E7C3E7FF00001824180000FFE7DBE7FF50
:100520000030483A060E00262979292600407F052A
:10053000050700407F05253F005A3CE73C5A007FF5
:100540003E1C1C0800081C1C3E7F0014227F221445
:10055000005F5F005F5F0006097F017F0000668922
:10056000956A0060606060600094A2FFA294000839
:10057000047E04080010207E20100008082A1C08B1
:1005800000081C2A0808001E10101010000C1E0C79
:100590001E0C0030383E383000060E3E0E060000BD
:1005A000000000000000005F0000000007000700DE
:1005B00000147F147F1400242A7F2A1200231308BA
:1005C000646200364956205000000807030000000E
:1005D0001C224100000041221C00002A1C7F1C2A12
:1005E0000008083E08080000807030000008080875
:1005F0000808000000606000002010080402003EAF
:100600005149453E0000427F400000724949494639
:10061000002141494D33001814127F100027454531
:100620004539003C4A49493100412111090700364A
:100630004949493600464949291E00000014000076
:10064000000040340000000008142241001414147B
:100650001414000041221408000201590906003E4A
:10066000415D594E007C1211127C007F4949493688
:10067000003E41414122007F4141413E007F4949C6
:100680004941007F09090901003E41415173007F42
:100690000808087F0000417F4100002040413F01E1
:1006A000007F08142241007F40404040007F021C30
:1006B000027F007F0408107F003E4141413E007FE1
:1006C00009090906003E4151215E007F09192946AA
:1006D0000026494949320003017F0103003F4040A1
:1006E000403F001F2040201F003F4038403F006334
:1006F00014081463000304780403006159494D434E
:1007000000007F41414100020408102000004141E7
:10071000417F0004020102040040404040400000CC
:1007200003070800002054547840007F28444438D0
:1007300000384444442800384444287F0038545446
:1007400054180000087E0902001824241C78007F39
:10075000080404780000447D4000002040403D0033
:10076000007F102844000000417F4000007C047896
:100770000478007C08040478003844444438007C41
:100780001824241800182424187C007C0804040869
:100790000048545454240004043F4424003C404086
:1007A000207C001C2040201C003C4030403C004489
:1007B00028102844004C9090907C004464544C4491
:1007C00000000836410000000077000000004136BC
:1007D0000800000201020402003C2623263C00001F
:1007E0000000000080808080000000000080E07039
:1007F000180C1830E080000010F89010307830109D
:10080000B8FC3810000000000000F8FCF800000000
:10081000000000000000000000001C9C1C00000004
:1008200000F8FCF80000000000001CFCF8C000000C
:100830000000000080E0F87C1C000000F0FCFCFCE4
:100840001C1C1C1C1C1C1C1C000000000000C0F018
:10085000F8381C1C1C1C1C1C3CF8F0E000E0F0F0FC
:10086000F0E0ECEEF7F37020007C7C7C7E007E7E76
:100870007E7F7F7F000080C0E07E5B4F5BFEC0001C
:1008800000C000DCD7DEDEDED7DC00C000000000E8
:100890000000000000000000000000000000000058
:1008A000000000000FBCE0818181838382870C18E7
:1008B0003060C000001FFE90B9FFBB91983C18113A
:1008C000133F1100000000000000FFFFFF000000C8
:1008D00000000000000000000000FFFFFF0000001B
:1008E00000FFFFFF0000000000000000030F7FF882
:1008F000E080F0FC3F0F0100000000003F3F3F1C84
:100900001C1C1C1C3C78F8F0E08000000000C3E7D1
:10091000FF7E3C3878787070F8FFDF87000F1F3F4C
:100920007F7F7F7F7F3F1E0C001F1F1F3F003F3FC9
:100930003F7F7F7F00307B7F7830202030787F3B87
:100940000003000F7F0F0F0F7F0F00030000000058
:10095000000000000000000000000000000000187F
:100960003C24666341C18180808080808081C14158
:1009700062386C4CC68181808080808081C14362F6
:10098000361C1800000000000000FFFFFFC0C0C0C0
:10099000C0C0C0C0C0C0800000007FFF7F0000005A
:1009A000007FFFFFC080000000E0E0C0C0C0E0F9B1
:1009B0007F1F0700000000000000000070F0E0E072
:1009C000C0C0C0C0E0F0F87F3F0F0000000F3F7FC5
:1009D000F9E0E0C0C0C0C0C0E0F97F3F1F000000E8
:1009E0000000000000000000000000000000000007
:1009F00000000000000000000000000000000000F7
:100A000000000000000000000000000000000000E6
:100A100000000000000000000000000000000000D6
:100A2000000000000000002A2B2800000000000049
:100A30000000000000000000000029000000002C61
:100A40001E3420212224342627252E362D37382700
:100A50001E1F202122232425263333362E37381F0C
:100A60000405060708090A0B0C0D0E0F10111213CE
:100A70001415161718191A1B1C1D2F3130232D356C
:100A80000405060708090A0B0C0D0E0F10111213AE
:100A90001415161718191A1B1C1D2F3130354C0050
:100AA0000000000000000000000000000000000046
:100AB0000000000000000000000000000000000036
:100AC0000000007E0F00D4FFFFFFC7000000780E7B
:100AD000034C0069006C00790035003800000010FC
:100AE000036C0069006C00690075006D0073000004
:100AF000000403090409023B00020100A0FA0904F2
:100B00000000010301010009211101000122400040
:100B1000070581030800010904010001030000002A
:100B20000921110100012232000705820320000182
:100B30001201000200000008D8042DEB00010102A0
:100B4000000105010980A101850319012AB70015DB
:100B50000126B700950175108100C0050C0901A19F
:100B600001850419012AA002150126A0029501752C
:100B7000108100C005010906A101050719E029E758
:100B800015002501950875018102950175088101FF
:100B90000507190029FF150026FF00950675088135
:100BA0000005081901290595057501910295017542
:100BB000039101C011241FBECFEFDAE0DEBFCDBF2D
:100BC00013E0A0E0B1E0EEE2F8E602C005900D927D
:100BD000A23EB107D9F727E0A2EEB3E001C01D9213
:100BE000A23AB207E1F70E94FA190C94FF330C9471
:100BF00000008091390490913A048430910591F17C
:100C0000F8F4009731F160EF72E08230910519F14C
:100C10009F938F938BE093E09F938F931F9288E134
:100C20008F9380E295E09F938F930E9418318DB748
:100C30009EB708960FB6F8949EBF0FBE8DBF0FC02B
:100C40008830910519F08E30910511F76DEF72E043
:100C500002C064ED72E080E295E00E94113180E212
:100C600095E0089563EE72E0F6CF80E091E008959C
:100C7000CF93C0E28C33910520F4FC01E45DFC4F7E
:100C8000C0811F92CF939F938F93FB0180811F920E
:100C90008F9381811F928F938BE193E09F938F932A
:100CA0001F9288E18F938BEF93E09F938F930E9425
:100CB00018318DB79EB70E960FB6F8949EBF0FBE33
:100CC0008DBF8091E4039091E503449761F4109205
:100CD000E5031092E403E6EEF3E080E2819393E013
:100CE000EA3FF907D9F78091E4039091E503FC010D
:100CF000EA51FC4FC08301969093E5038093E4038F
:100D0000CF9108958BEF93E0089586EE93E00895D8
:100D1000CF93DF93EC018A81813059F460E089E55B
:100D200091E00E941B23CE010E946525DF91CF91A7
:100D300008958230C1F760E08FE491E0F2CFCF9365
:100D4000DF93EC018A81813059F460E085E491E021
:100D50000E941B23CE010E946525DF91CF9108954B
:100D60008230C1F760E08BE391E0F2CFCF93DF9365
:100D7000EC018A81813059F460E087E391E00E94C0
:100D80001B23CE010E946525DF91CF91089582300B
:100D9000C1F760E083E391E0F2CF23E042E061E05D
:100DA0000E94C7080895CF93C82F0E949E178111F3
:100DB00001C0C2E08C2FCF9108950E949E17882316
:100DC00089F00E94F90560E00E94D81F0E94820607
:100DD00060E00E94D81F0E94850660E00E94D81F34
:100DE00081E008950E94350660E00E94BD1FF8CFA3
:100DF0000F931F93CF93DF938C01EB018A8188239C
:100E000019F0C8010E943806093B2DE5120709F4C4
:100E100067C048F5043B9DE5190709F4A3C068F4D1
:100E2000023B8DE5180709F473C008F0ABC001312F
:100E3000104409F442C0C1E04DC0063B8DE51807DF
:100E400009F482C008F479C0073B2DE5120709F4C4
:100E500082C0083B1D4579F7CA8160E08CEF90E0C5
:100E6000C11153C05BC00D3B9DE5190709F491C04A
:100E700070F4CA810B3B8DE5180709F458C008F4DB
:100E800050C060E083E091E0C1113FC047C00F3B1C
:100E90002DE5120709F493C008F489C0003C9DE5D4
:100EA000190709F494C0013C1D4529F6CA81CC23D9
:100EB000A9F160E08CEA90E028C08D81807F09F084
:100EC000BACF8A81882309F4B6CF83E390E00E94E9
:100ED0007008C0E08C2FDF91CF911F910F91089582
:100EE000CA81CC2309F4A7CF60E08BE291E00E9495
:100EF0001B238FEF99E628E1815090402040E1F7D5
:100F000000C0000060E085E291E00E941B23E2CF78
:100F1000CA8160E08BE191E0C111F7CF0E94D50C4E
:100F20008ACF60E084E191E0C111EFCFF7CF60E0BC
:100F30008DE091E0C111E9CFF1CFCA8160E085EF8A
:100F400090E0C111E2CFEACFCA8160E08EEE90E07E
:100F5000C111DBCFE3CFCA8160E087EE90E0C11121
:100F6000D4CFDCCFCA81CC2309F465CF60E083EE17
:100F700090E00E941B230E94091D0E94671C0E9492
:100F8000761CA8CFCA8160E08CED90E0CC2331F2D2
:100F9000BCCFCA81CC2311F260E085ED90E00E94C5
:100FA0001B230E94D50C60E081ED90E0AECFCA819A
:100FB00060E087EC90E0CC2309F4B0CFA6CFCA81E3
:100FC00060E08DEB90E0CC2309F4A8CF9ECFCA81DE
:100FD00060E086EB90E0CC2309F4A0CF96CF9C0193
:100FE0003A9521153F4150F5FC01EE27F170BC0107
:100FF00066277270AC01442754709C012227387018
:1010000094FF0EC080E1EF2B09F480E0672B09F01C
:101010008062452B09F08064232B89F08068089555
:1010200081E0EF2B09F480E0672B09F08260452B0B
:1010300009F08460232B19F08860089580E00895FA
:10104000CF93DF93EB010E94EF07FE010995DF913B
:10105000CF910895CF93DF93EC01805E91090897BB
:1010600020F065EB7CE0209711F46AE77AE0CE018E
:101070000E9420088C2F0E94EB09DF91CF910895E8
:10108000CF93DF93EC010E942F0ACE01805E91097D
:10109000089720F06CEB7CE0209711F461E87AE08F
:1010A000CE010E942008DF91CF9108950F931F93E6
:1010B000CF93DF938C01EB010E942A08209741F423
:1010C000C8010E944008DF91CF911F910F910895B0
:1010D0008FE99FE00197F1F700C000002197EECF64
:1010E00070E060E08933910511F460E570E00E94E2
:1010F0005608089581E008950E94F806089508951D
:101100000E947F080895A5E0B0E0E9E8F8E00C94BB
:10111000CA3049835A833091180489819A813111E8
:1011200019C0662399F0222389F00E942B0E182FF4
:10113000682F89819A810E94070E69817A81812FA7
:101140000E9491142596E3E00C94E6300E94190E5B
:10115000182FF3CF0E942B0E69817A81F1CFFC0109
:10116000262F408151816281738184810E9483088E
:10117000089581E00895CF93DF93EC0160E00E9431
:10118000AF08BE010E948008DF91CF910895E1E091
:10119000F0E0DF0102C0AA0FBB1F6A95E2F7BD01B4
:1011A000DF0102C0AA0FBB1F4A95E2F7AD01462B33
:1011B000572B02C0EE0FFF1F2A95E2F79A01282352
:1011C00039232417350719F48E2B9F2B0895E095AA
:1011D000F0958E239F2308950E94F81508950E948C
:1011E000FC15089508950E94D50C0E94F2082FEF77
:1011F00084E39CE0215080409040E1F700C0000073
:1012000008950E94F3080E94CA2908950E94F308D5
:101210000E94DB2908950F931F93CF93DF938C01D6
:1012200061E00E94AF08EC01B8010E94C924B80136
:10123000CE010E947C08811106C080E0DF91CF9131
:101240001F910F910895B801CE010E94EA248823CE
:10125000A1F3B801CE010E941124882371F3B801D3
:10126000CE010E945021882341F3B801CE010E9493
:101270008323882311F3B801CE010E94961D882391
:10128000E1F2F8018281882361F0CB35FDE5DF07CB
:1012900001F158F4C115ECE5DE0791F0CF3DDC45D6
:1012A00091F0C8010E947A08C9CFCD358DE5D807E5
:1012B00069F090F0C83ADD45A1F70E940609BDCF5C
:1012C0000E940109BACF0E94CF12F7CF0E941412D8
:1012D000E8CF0E941E12E5CF0E942212E2CF0E94A8
:1012E000E0280E948E090E94FA2008950E94920927
:1012F0000E94E528089508950E947B09089581E0E1
:1013000008950E947F0908950895CF93C82F0E94E1
:101310007C098C2F0E948109CF91089580E00E9462
:10132000850908950E941E280E9485090895CF937B
:101330000E941E28C82F809113048C1779F0C09347
:1013400013040E946F296093140470931504809312
:101350001604909317048C2F0E948509CF9108954D
:10136000ABE0B0E0E6EBF9E00C94CB304F8358876C
:1013700069877A878B8761110E945F111E821D82A7
:1013800085E0FE013796DE01119601900D928A9557
:10139000E1F78C819D81892B61F449815A816B81B0
:1013A0007C818D819E810E9485102B96E2E00C94B9
:1013B000E73089819A8189238F3F79F3CE010196A5
:1013C0000E94B9088111E9CFF0CFFC0180819181A1
:1013D0000E945D0E0895CF93C82F8823B9F08CEF3B
:1013E0008C0F813AA8F46C2F809198029091990209
:1013F0000E947B28882329F08C2F0E941C110E94B8
:1014000080118C2F0E9414110E948011CF91089599
:1014100080E28C0F883048F4C77081E001C0880FEB
:10142000CA95EAF70E943F11EFCFEBE5EC0FE330EE
:1014300040F4F0E0EA56FC4F808190E00E943D28A5
:10144000E5CFC85AC73110F7EC2FF0E0EE0FFF1FC1
:10145000E859FC4F808191810E945328D7CF88237F
:1014600039F19CEF980F913A28F40E941C110E94C8
:101470008011089590E2980F983050F4877091E0B1
:1014800001C0990F8A95EAF7892F0E944511EFCF85
:101490009BE5980F933028F490E080E00E943D286F
:1014A0000895885A873120F490E080E00E94532804
:1014B00008951F93CF93DF93182FEB010E94EB0940
:1014C000209739F4812F0E942F0ADF91CF911F912D
:1014D00008958FE99FE00197F1F700C00000219780
:1014E000EFCF70E060E0893311F460E570E00E94B6
:1014F000590A0895882321F00E943F110E9480110B
:101500000895882321F00E9445110E9480110895BA
:10151000B0E0A0E0EEE8FAE00C94C4306C01D62F05
:10152000C72FFC011281058102950F700E943511B1
:10153000E82E8823B9F0E12E1123A1F08C2F807FB3
:10154000803421F080E28D0F8830C8F080913D0515
:1015500082FF15C082E00E94E3110E94351191E0E4
:10156000E82EE926BC2EB2949FE0B922FBE0FB15E1
:10157000B8F1EB2DF0E0EF5FFB4C0C94B530E12CB3
:10158000F1CF0C2F0F70C07F11F00295007F112357
:1015900099F0002359F080E28D0F883010F0D111BE
:1015A00007C0802F0E943F110E9480118D2F5AC0CA
:1015B000802F0E945211F8CF8D2F0E942F0A0023F6
:1015C00079F080E28D0F883010F0D11104C0802FA7
:1015D0000E94451103C0802F0E9458110E94801163
:1015E000EB2DE850FF0B349720F40E941E280E9438
:1015F0008509EE2089F00E94311180FD0DC0F601B1
:1016000012820E942B110E94650DC6010E948B0C54
:101610000E942B110E94750DCDB7DEB7E9E00C9446
:10162000E0302C2F2F70F22EC07FC03219F0F294D0
:1016300080EFF822DD2341F0D130E9F1112309F4E4
:1016400045C00023E9F1B2CF80913D0582FD15C070
:10165000112359F0FF2029F08F2D0E943F110E9485
:10166000801180E00E94EB09BBCF80E00E942F0A2E
:10167000FF2009F4B5CF8F2DABCF112381F00111DD
:1016800006C00E9462118F290E947A0AA9CF0130F8
:10169000C1F70E9462118F290E946911A1CF011127
:1016A00006C00E9476118F2D0E94810A99CF0130C9
:1016B00009F496CFF6CF112329F0063008F090CF29
:1016C0008F2DE2CF053008F08BCFEDCF002359F3FB
:1016D000D93349F43FEF87EE93E03150804090409A
:1016E000E1F700C000008D2F0E942F0A79CF8C2FC8
:1016F00086958695837069F0813009F071CF8D2FC2
:101700009C2F9370111102C090E080E00E9453283A
:1017100067CF8D2F9C2F9370111102C090E080E055
:101720000E943D285DCF8C2F8370A1F5111158CFF9
:101730004D2F429546954770440F440F2D2F2F7023
:1017400030E0042E02C0220F331F0A94E2F790E02B
:1017500080E0D4FF09C08FE090E002C0880F991F9D
:101760004A95E2F780959095C695C695C370822BF1
:10177000932BC23049F058F4C13019F00E94360D55
:101780002FCF0E942D0D2CCF0E943F0D29CF0E94FC
:101790002A0D26CF8695112311F08C2F8170882376
:1017A00009F41ECF4D2F429546954770440F440FC4
:1017B0002D2F2F7030E0042E02C0220F331F0A9409
:1017C000E2F790E080E0D4FF09C08FE090E002C033
:1017D000880F991F4A95E2F780959095C695C69512
:1017E000C370822B932BC23049F058F4C13019F0EA
:1017F0000E94A00DF5CE0E94970DF2CE0E94A90D79
:10180000EFCE0E944B0DECCECF70112329F08C2F20
:101810000E94650D8D2F38CF8D2F0E94810A8C2F4D
:101820000E94750DDDCED23F41F160F4D03FB9F09A
:10183000D13F81F0112309F446C00111B7CE8C2F9E
:101840008F711FC0D33F01F1D43FA1F780913D05B7
:1018500082FD24C08C2F8F71112311F312C011232C
:1018600041F0053008F0BCCE8C2F8F710E94870D9F
:10187000B7CE063008F0B4CEF7CF8C2F8F71111190
:10188000CFCF0E94650DACCE112329F08C2F8F7124
:101890000E94590DA5CE0E94540DA2CE112349F0ED
:1018A000CF718C2F0E94650D63E08C2F0E94C511B3
:1018B00097CE81E00E94E311023008F491CE82E0DD
:1018C0000E94E3118DCE002359F0D93309F00BCFDC
:1018D000EFEFF7EE23E0E150F0402040E1F701CFD9
:1018E0008C2F8F719DCF0F931F93CF93DF93EC01BC
:1018F000688179818A810E94680E8C010E94B20DF4
:101900000E94290DB801CE010E94880ADF91CF9173
:101910001F910F910895CF93DF93EC018B819C81F0
:10192000892B29F08881998189238F3F51F4DF9198
:10193000CF910895CE010E94730CCE010E94BB0886
:10194000F6CFCE010E940B098111F4CF0E94351110
:10195000882369F38A81882351F380913D0582FFB2
:10196000E6CF82E00E94E311E2CF882321F00E94BB
:1019700052110E9480110895882321F00E9458116D
:101980000E948011089590E080E00E943D2890E040
:1019900080E00E9453280E945F110E9480110895E8
:1019A0000E9424110E94C30C08950E944C110E94B1
:1019B000D00C089592959F70963091F058F4925FF4
:1019C0009F70923058F4803F19F030F4883E30F424
:1019D00081E008959A5FF4CF843FD1F380E00895C9
:1019E000883EB0F3813FD1F7F3CFFC01838194812E
:1019F000892B29F08081918189238F3F11F480E028
:101A00000895808191810E945D0E0E94DA0C0895F4
:101A1000A5E0B0E0EEE0FDE00C94CB302596E2E0EE
:101A20000C94E730A6E0B0E0E8E1FDE00C94CB30A8
:101A30002696E2E00C94E73008950E941C0D08956C
:101A40000E941D0D90933C0480933B040E94C30CA4
:101A5000089508950E94200D089520913B0430912F
:101A60003C04822B932B0E94200D089520913B046F
:101A700030913C04822393230E94200D08952091ED
:101A80003B0430913C04822793270E94200D089547
:101A90000E94CD0608950E94480D90933A048093C9
:101AA00039040E94C30C089590E080E00E944B0D21
:101AB000089521E030E0A90102C0440F551F8A9526
:101AC000E2F7CA010E944B0D089521E030E002C008
:101AD000220F331F8A95E2F78091390490913A04DE
:101AE000822B932B0E944B0D089521E030E002C021
:101AF000220F331F8A95E2F72095309580913904A3
:101B000090913A04822393230E944B0D089521E083
:101B100030E002C0220F331F8A95E2F7809139042A
:101B200090913A04822793270E944B0D08952091AB
:101B3000390430913A04822B932B0E944B0D089567
:101B40002091390430913A04822393230E944B0D53
:101B500008952091390430913A04822793270E94F6
:101B60004B0D08950895262F277091E001C0990F1D
:101B70002A95EAF723E0769567952A95E1F7660FAF
:101B8000771F660F771FFA01E60FF71F50E040E05E
:101B9000682F70E08191DF0111979B01042E02C034
:101BA000369527950A94E2F7217021952827292355
:101BB00028272C934F5F5F4F4430510559F7089504
:101BC000A82FA77023E0969587952A95E1F7880FAF
:101BD000991F880F991FFB01E80FF91F50E040E0A3
:101BE00080E0219130E00A2E02C0369527950A94B4
:101BF000E2F721703327042E01C0220F0A94EAF77E
:101C0000822B4F5F5F4F4430510559F70895262FBF
:101C10009A3070F4863060F4682F70E086E0989F08
:101C2000600D711D112449E154E0822F0E94B30D13
:101C30000895292F9A3068F4863058F490E069E1CD
:101C400074E036E0239F800D911D11240E94E00D69
:101C5000089580E00895B0E0A0E0E1E3FEE00C9498
:101C6000C4307C010091390410913A0480913B0406
:101C700090913C04082B192BCFE0D0E0CC24C394E6
:101C8000D12CBC2EC6010C2E02C0880F991F0A94BD
:101C9000E2F780239123892B49F4219790F7B12C07
:101CA0008B2DCDB7DEB7E9E00C94E030B7018C2F77
:101CB0000E94AC14019789F3F3CFCF93DF93EC012B
:101CC0000E942B0EBE010E94AC14DF91CF910895AB
:101CD0001F93CF93DF93EB0190911804992339F070
:101CE000CB010E945D0EDF91CF911F910895882353
:101CF00069F0CB010E942B0E182F682FCE010E9495
:101D0000070EBE01812F0E94AC14EDCFCB010E94C3
:101D1000190E182FF6CF1F93CF93DF93C0913D0478
:101D200016E080913E048C1304C0DF91CF911F9187
:101D30000895D0E01C9FF0011D9FF00D1124E15C7F
:101D4000FB4F4081518162817381848195810E9422
:101D5000120D2196C770E5CF40916F045091700429
:101D60006091710470917204809173049091740475
:101D70000E94120D08951F93CF93DF9380917404F6
:101D8000807F09F049C080917104882309F444C020
:101D900080913D04C0913E0460916F047091700485
:101DA000A0917204B0917304D62FD72316E0C81700
:101DB00099F190E0109711F0DF3F19F401968770C8
:101DC000F6CF189F9001199F300D1124F901E15CA5
:101DD000FB4F41814713F2CF40814613EFCF428141
:101DE0004111ECCF438154814A1B5B0B483C5105A8
:101DF00028F7809174048F70806180937404F901D6
:101E0000EC5BFB4F80818F70806180838FE694E074
:101E10000E948B0C0E948B0EDF91CF911F91089531
:101E2000A1E1B0E0E6E1FFE00C94C3308C0185E075
:101E3000F801DE011D9601900D928A95E1F7F801F7
:101E4000E2808FE6C82E84E0D82E609172047091F3
:101E500073046115710509F43CC190916F042091E0
:101E60007004892F82238F3F09F433C1408151814F
:101E7000A380B480F0907104F501E61BF70BFF20FE
:101E800009F4F8C080917404382F307FE83CF105E4
:101E900008F0B1C031116DC0FE2C251316C094138B
:101EA00014C0E11012C08F708061809374040E948E
:101EB000AC0EC6010E948B0C80917404F8018583DE
:101EC0008F2D6196EAE00C94DF30A114B10429F063
:101ED000842F85238F3F09F015C180E0F82FF17022
:101EE000DF2E80FF3CC080913D0420913E0436E00F
:101EF000821315C04D875E878D859E850E945D0E7D
:101F0000292F22952F702230F0F0243018F59F7081
:101F1000F1F0F8019581907FD1F4D12C1EC090E0B2
:101F2000389FF001399FF00D1124E15CFB4F618176
:101F3000651306C06081641303C06281E6120FC09E
:101F400001968770D5CF9F7011F0882331F3805EA2
:101F5000883018F3C8010E948B0CFD2CB1CFEE2005
:101F600009F4AECF80917404816080937404F12CE5
:101F7000A7CF251314C0941312C0E11010C0F801AC
:101F80008583C8010E948B0C86E0F801AFE6B4E0BF
:101F900001900D928A95E1F70E94AC0E91CFC80195
:101FA0000E94F50C882319F1EE2009F18091740448
:101FB000803270F020916F043091700438872F8345
:101FC0001986BB86AA868C87CE0107960E948B0C49
:101FD00086E0F801AFE6B4E001900D928A95E1F752
:101FE0000E94BB0E0E94AC0EFF24F39469CFC8017F
:101FF0000E948B0CF9CF311113C07A2DB98AA88AAF
:102000006E2D89890E94080D8FE694E00E948B0C4A
:1020100086E0F60111928A95E9F70E94AC0EA7CFEF
:1020200025130FC094130DC0E1100BC0F801858378
:10203000C8010E948B0C86E0F60111928A95E9F79F
:102040003FCFC8010E94F50C882389F2EE2079F277
:1020500080917404803208F4BBCF20916F043091DA
:1020600070043A8329831B82BD82AC828E83CE01A9
:102070000196ACCFE83CF105F8F4FE2CEE2009F413
:10208000B6CF25130BC0941309C086E0F801AFE664
:10209000B4E001900D928A95E1F712CFC8010E9439
:1020A000F50C811195CF8091740481608093740444
:1020B000C8010E948B0C04CF7A2DB98AA88A6E2D94
:1020C00089890E94080D86E0F60111928A95E9F748
:1020D00063CFEE2009F48BCFC8010E94F50CF82ED7
:1020E000882309F484CF86E0F801AFE6B4E00190DC
:1020F0000D928A95E1F78FE694E00E94E5090E942F
:10210000BB0E4ACF81E08E25E9CEACE0B0E0EBE833
:10211000F0E10C94CA304F83588769877A878B87A0
:102120009C87CE0107960E94100F882369F08A854C
:102130009B85892B39F04F815885842F85238F3FCC
:1021400009F06BC016E05FC086E0FE013796DE0145
:10215000119601900D928A95E1F78A859B85892BCE
:1021600089F38F81988589238F3F61F320913E0405
:1021700030E0C90101968770992740913D044817C6
:10218000190671F40E94D50C10923E0410923D0481
:1021900086E0EFE6F4E0DF011D928A95E9F7D2CF01
:1021A00096E0929FD001939FB00D1124A15CBB4F8C
:1021B000FE01319601900D929A95E1F780933E04CD
:1021C0000E948B0EBFCF819FC0011124815C9B4F69
:1021D0000E94100F8823E9F0E0913D041E9FF0015A
:1021E0001124E15CFB4F40815181628173818481C4
:1021F00095810E94120D80913D0490E001968770B8
:10220000992780933D0480913D0490913E04891369
:10221000DACF2C96E3E00C94E63069857A858B85DD
:102220009C850E94120D8ECF682F8091980290910C
:1022300099020E94B1280895682F80919802909188
:1022400099020E94B4280895809198029091990271
:102250000E94B728089580917D0485958595859580
:10226000089580917D048770089590917D04977002
:1022700081E009F480E008958091880408959091A8
:102280008804892B80938804089580959091880410
:10229000982390938804089510928804089580915B
:1022A0008704089590918704892B8093870408956B
:1022B00080959091870498239093870408951092B5
:1022C0008704089580917E04089508950E94651101
:1022D000089590913D0592FF08C090917E04981753
:1022E00021F080937E040E946611089580917E04FF
:1022F000882329F010927E0480E00E9466110895E0
:10230000CF93DF93E0919802F09199028091880435
:102310008083E0919802F0919902808190918704E6
:10232000892B808390917E04992381F0E09198021B
:10233000F09199028081892B8083809198029091FD
:1023400099020E94692881110E947611C091980219
:10235000D091990248E050E065E774E0CE010E9418
:10236000FB30892B59F088E0FE01A5E7B4E001902D
:102370000D928A95E1F7CE010E943228DF91CF912C
:10238000089508950E94C111089590913D0592FF0E
:1023900011C098E0899F90011124622B60937D0405
:1023A0000E94650D80917D048595859585950E9497
:1023B000C21108950E94650D089510927D0480E079
:1023C0000E94C211089590917D0480958923809385
:1023D0007D04282F277091F4282F082E000C330B32
:1023E0009217130659F090913D0592FF07C085950D
:1023F000859585950E94750D0E94DD110895909137
:102400003D0592FB222720F9281769F080FB92F9FD
:1024100090933D0580913C0590913D050E944912A5
:1024200082E00E94E311089580913D0582FB882798
:1024300080F991E089270E94FF11089581E00E94B0
:10244000FF11089580E00E94FF11089590E080E060
:102450000E94C53321E0883E9E4F09F020E0822F84
:10246000089582E090E00E94B733089583E090E001
:102470000E94B7330895CF9384E090E00E94B73371
:10248000C82F82E290E00E94B733982F8C2FCF9113
:102490000895CF93C92F682F84E090E00E94CB333A
:1024A0006C2F82E290E00E94CB33CF910895AB0174
:1024B000BC018FE090E00E94DD330895AB01BC01C8
:1024C00083E190E00E94DD33089560E070E0CB018D
:1024D0000E945E12089560E070E0CB010E945712E6
:1024E0000E946512089568EE7EEF90E080E00E9401
:1024F000E93360E082E090E00E94CB3360E083E06B
:1025000090E00E94CB3310923C0410923B0460E0B8
:1025100084E090E00E94CB3364E082E290E00E948D
:10252000CB3360E085E090E00E94CB3360E086E052
:1025300090E00E94CB336FEF87E090E00E94CB33B6
:1025400040E050E0BA0188E090E00E94DD3360E0B6
:102550008DE090E00E94CB3340E050E0BA0188E18A
:1025600090E00E94DD3360E087E190E00E94CB3391
:1025700040E050E0BA018CE190E00E94DD3370E071
:1025800060E080E290E00E94E93340E050E0BA0170
:1025900088E190E00E94DD330E946B1208950E9452
:1025A00073120895682F8EE090E00E94CB33089557
:1025B0000E946F296093990470939A0480939B04FE
:1025C00090939C0460939504709396048093970471
:1025D000909398040895089508950E94EC12089528
:1025E00008950E94F012089586ED95E10E94142846
:1025F0000E94EB120E94ED1208950E949E1708950A
:10260000089508950E9400130E94011308950E94E6
:10261000D9150E94840908950E945A290E9496158E
:102620000E94B9170E94FF160E9407130E943B1ECA
:1026300080E00E94931E0E94171D0E94CD170E94E9
:10264000F11208950E949E1781110E944525089558
:10265000AAE0B0E0EEE2F3E10C94C3300E9422174E
:102660008BE8A82E84E0B82E750110E0F7010191E7
:102670007F01812F0E94FF151F5F1A3009F441C0AE
:102680000817A1F380919D0481FD0E9405160E9408
:10269000FD12C82E10E0812F0E94FF15082FF501B2
:1026A00081915F01081731F1D02ED826F12CEE244C
:1026B000E3948D2D8E21B1F0CC20A1F0FE821F83FA
:1026C00091E0802F8E2109F490E098870E94632981
:1026D0008160782F9A8789874E815F8168858A8596
:1026E0000E94B009F394EE0CF6E0FF12E2CFF50180
:1026F000319700831F5F1A3071F60E94D81211E0E3
:1027000021C00813BFCF0E9463298C0180918904E6
:1027100090918A0408171907A1F08FEF89838A83A3
:102720001B820E9463298160782F9D838C8349815D
:102730005A816B818D810E94B00910938A040093A5
:10274000890410E00E9422130E94182111110E9496
:10275000DE1F0E9497092A96EAE00C94DF30CF939F
:10276000DF930E94B114EC01811522E59207E8F590
:10277000811531E5930708F0A3C0883E910510F557
:10278000803E910570F5883A910570F4853A91057F
:1027900008F078C08130910521F1009711F104977C
:1027A00000F5D0E0C0E01DC08F3B9105D0F7C85ABE
:1027B000D0E0CC0FDD1FC756DC4F0990D881C02D6B
:1027C000D4640FC0811540E5940708F066C0C115B8
:1027D00080E4D80708F05EC0CE019A9581159F412C
:1027E00000F7CE01DF91CF910895811536E593076B
:1027F00018F5811545E5940708F07BC0C11584E5FF
:10280000D80708F071C09E01237033279C2F96953E
:102810009695C115D34508F458C0C1E0D0E002C078
:10282000CC0FDD1F2A95E2F730E2939FC0011124FF
:10283000C82BD92BDA68D5CFC1158AE5D80778F42B
:10284000C11529E5D20708F05EC0C11538E5D307E8
:1028500008F4A7CFDC2FCC27C06FD06AC2CFCE013F
:1028600090568115904208F09CCF8D2F8F710E9459
:10287000531590E0982F882788279F719C012C2B57
:10288000E9013FC0C55AD0E0C953DC4FC881D0E050
:10289000D064A7CFDF70D06AA4CF8370992721E0DE
:1028A00030E002C0220F331F8A95E2F7C695C69525
:1028B00080E2C89FE0011124C22BD32BDD6891CFA9
:1028C000D82FCC27C16FD06A8CCFC1E0D0E002C036
:1028D000CC0FDD1F2A95E2F720E2929FC001112460
:1028E000C82BD92BDC687DCFDC2FCC27C46FD06AF6
:1028F00078CF0E945315C82FD0E0DC2FCC27CC27EF
:10290000DF71D0626ECF8C2F8F700E94531534E030
:10291000D695C7953A95E1F7CF709C2FEC01D06919
:1029200060CF972F7A30A8F4663098F470E026E0F4
:10293000929F600D711D1124FB019CE3899FE00DA6
:10294000F11D1124EE0FFF1FED59FE4F859194915B
:10295000089580E090E008950E9491140E94AF13C2
:10296000089582389105B9F1B0F48133910509F4E5
:102970007DC048F48932910509F46DC08A32910511
:1029800009F47BC008958533910509F45FC089334C
:10299000910509F10895833E9105D9F138F4803EFF
:1029A000910529F1823E910579F10895863E9105C0
:1029B000D9F1873E910509F43EC0843E910541F569
:1029C00020913D0521FF24C080913C0584FD19C064
:1029D00087EE90E0089520913C05237009F05AC0DD
:1029E00020913D0523FF14C089E290E008952091D5
:1029F0003C0520FD38C030913D0530FF09C024FF63
:102A000043C090E080E0089520913C0522FDF7CF7F
:102A1000089520913C0522FD3AC030913D0530FDDE
:102A200039C024FFF5CFEDCF20913C0523FFF0CF37
:102A300024FDE7CFCDCF20913C0523FD2EC0309162
:102A40003D0531FFEECF84EE90E0089520913C05E6
:102A500025FFDECFC9CF20913C0525FD21C0209167
:102A60003D0523FFD5CF89E390E0D2CF20913C05EF
:102A700026FFCECF8AE290E0089520913C0526FF04
:102A8000C7CF81E390E0089583EE90E0089582EE51
:102A900090E0089580EE90E0089586EE90E008952D
:102AA00085E390E0089590913C0592FF06C0282FA1
:102AB00028712830F9F4877F846093FF06C0282F9F
:102AC00028712831F1F4877E846120913D0520FF33
:102AD00006C0382F38713830D9F4877F816021FFE4
:102AE00006C0282F28712831D1F4877E816194FD9A
:102AF000877E0895282F24712430F9F68B7F886013
:102B0000DCCF282F2471243101F78B7E8861DDCF43
:102B1000382F3171313019F78E7F8860E0CF282F40
:102B20002171213121F78E7E8861E1CF1092380525
:102B30001092390510923A0510923B050895CF92F4
:102B4000DF92EF92FF926B017C010E949E17811130
:102B50000EC00E946F29C61AD70AE80AF90AC09265
:102B60003805D0923905E0923A05F0923B05FF9086
:102B7000EF90DF90CF9008950F931F930E949E17C0
:102B8000882329F00E946F291F910F9108950E94B8
:102B90006F29009138051091390520913A0530913F
:102BA0003B05600F711F821F931FEECF80E00895D9
:102BB00008950E942612811102C00E94CF120E9425
:102BC000311280939D040E943B1290933D058093A7
:102BD0003C050E94D8150E94361290E00E942A0DF2
:102BE0008091390490913A040E94480D0895089507
:102BF0000E94F715089508950E94FB150895E82F87
:102C0000F0E0E75BFA4F80810895089580EA8A95A5
:102C1000F1F7089500C008950E94061608950895DA
:102C20000E940F160895A5E0B0E0E9E1F6E10C94EA
:102C3000C7300E949E17F82E60915305882309F42F
:102C400040C085E0E82E8E010F5F1F4FF8018E2DEA
:102C500011928A95E9F7862F90E0B801875B9A4F29
:102C60000E94DB178823B9F080913E0590E045E093
:102C700050E0B801875B9A4F0E94FB3021E020931F
:102C80009E04892B91F4F12C0E94EF088F2D25963C
:102C9000E6E00C94E33080919E048823A1F3F801D0
:102CA0001192EA94E9F710929E04A0913E05B0E0DB
:102CB000A75BBA4F85E0F80101900D928A95E1F784
:102CC000E3CF70E0675B7A4F80913E0590E0875BD1
:102CD0009A4F0E9462180E941016D8CFF894E82FDD
:102CE000E295EF70F0E031A1282F2F7081E090E0A5
:102CF00001C0880F2A95EAF7982F9095932391A306
:102D000092A1892B82A378940895CF93DF93C0ED8D
:102D1000D3E089918F3F11F00E946E1683E0C53D8C
:102D2000D807B9F7CAECD3E089918F3F11F00E9420
:102D30006E1683E0C03DD807B9F7DF91CF910895B3
:102D4000B0E0A0E0E6EAF6E10C94C530EC01D62E46
:102D5000062F10E0C80180539C4F7C01FC0180814C
:102D60008F3F09F445C0F894E82FE295EF70F0E04A
:102D700091A18F7021E030E001C0220F8A95EAF71F
:102D8000892F822B81A382A12095282322A37894C6
:102D90000E940A16EAECF3E040ED53E031E0C12C6A
:102DA00021912F3F51F1A22FA295AF70B0E09096E4
:102DB0008C9190E02F7002C0959587952A95E2F747
:102DC00080FD1BC0832FC82A330F4E175F0741F7C2
:102DD000F70180818F3F11F00E946E1661E0C110F3
:102DE00001C060E08D2D0E940C16C00FD11FC8825B
:102DF000CDB7DEB7E8E00C94E13080E0E4CF80911D
:102E00009A0280919A0295E0811190E09093530587
:102E100085E0891B80933E050E9485168AE0E9E4DF
:102E2000F5E0DF01982F1D929A95E9F7EFE3F5E0C1
:102E3000DF011D928A95E9F785E00E9460170E94E4
:102E4000EC080895AAE0B0E0E8E2F7E10C94C8309D
:102E50008E010F5F1F4F8AE0F80111928A95E9F702
:102E6000F12C6F2DC8010E94A016F394F5E0FF121B
:102E7000F8CF4AE050E0B8018FE395E00E94FB30C4
:102E800021E0009709F420E0892B41F08AE0F80165
:102E9000AFE3B5E001900D928A95E1F7609153059B
:102EA00070E0675B7A4F45E08FE395E00E94611721
:102EB000182F0E941316812B2A96E5E00C94E4301B
:102EC0000895CF92DF92EF92FF920F931F93CF93CB
:102ED0006C017B01042F222349F081E08093A1043F
:102EE0000E9463299093A00480939F04C091A10441
:102EF000C1110AC0C0E08C2FCF911F910F91FF909C
:102F0000EF90DF90CF90089580919F049091A0045E
:102F10000E947B29059770F310E0A801B601C70154
:102F20000E94FB30892B41F0A801B601C7010E9425
:102F300008311092A104DFCFC0E0FBCF8091A40440
:102F4000811107C00E948830882351F081E080936E
:102F5000A40481E09091A404913009F080E00895E8
:102F600082E08093A4040E948330F3CF0E949E17D6
:102F700008950E94B61780939A0280919A0268E0A1
:102F8000882349F080E00E949E1A0E949E178111BA
:102F90000E941118089588E0F6CF0E949E178111B3
:102FA00002C00E941418089581E09091A5049A30FF
:102FB00008F080E008950F931F93CF93DF93EC0107
:102FC0008B018091A5048A30B8F4B801CE010E942B
:102FD0005F18C82F811122C08091A5048F3FB9F4DA
:102FE0000E9463299093A3048093A2048C2FDF9105
:102FF000CF911F910F9108958091A2049091A30405
:103000000E947B29843F914000F7C0E0EFCF8F5FA3
:103010008093A5048A3020F7C1E0E8CF1092A50480
:10302000E5CF0E94B22608950E94B5260895B0E02B
:10303000A0E0EDE1F8E10C94C6307901C82F880FCB
:10304000DD0B41155105A9F0FE0193E0EE0FFF1FC6
:103050009A95E1F7E556FD4F818192818A559B4F04
:10306000208130E04217530708F49A01A9010E9419
:103070000831CE010E949E27D82E8823D1F0011559
:103080001105B9F083E0CC0FDD1F8A95E1F7FE0151
:10309000E556FD4F438150E00417150708F4A801D9
:1030A000C556DD4F6C817D816A557B4FC7010E94FB
:1030B00008318D2DCDB7DEB7E7E00C94E2300E94E9
:1030C0008C1908950E94AD190895A4E0B0E0EBE6D4
:1030D000F8E10C94C9306091C6047091C7048091E6
:1030E000C8049091C9040E948A2911E064367105D0
:1030F0008105910518F10E94BC156E5F7F4F8F4FBF
:103100009F4F69837A838B839C8310E000E030E0DB
:1031100020E044E050E0BE016F5F7F4F82E00E94FC
:103120001718182F882351F00E946F296093C60446
:103130007093C7048093C8049093C904812F249688
:10314000E4E00C94E530B0E0A0E0E9EAF8E10C94AA
:10315000C3307C015B016A010E94D41701E010E0DA
:10316000882311F00AE010E0C1E0D0E0B501C7010A
:10317000F6010995811104C021960C171D072CF446
:10318000CDB7DEB7EAE00C94DF30CC9F9001CD9F45
:10319000300D300D112490E080E045E34A95F1F7C1
:1031A0000000019682179307C1F7E0CFA9E0B0E0D5
:1031B000ECEDF8E10C94C930CE0101960E94501D4F
:1031C00018856091CA047091CB048091CC049091D1
:1031D000CD040E948A29643671058105910510F499
:1031E0001123C1F010E000E030E020E049E050E0C1
:1031F000BE016F5F7F4F83E00E941718882369F03C
:103200000E946F296093CA047093CB048093CC040E
:103210009093CD040E944D1D81E02996E4E00C942A
:10322000E530A6E0B0E0E7E1F9E10C94C3307B01C2
:10323000C090D503D090D60301E010E09E012A5F34
:103240003F4F50E040E070E060E080E00E941718DF
:10325000182F882309F448C056018FEFA81AB80A1E
:103260006091C2047091C3048091C4049091C5041C
:103270000E948A29643671058105910568F105E08F
:1032800010E09E012F5F3F4F50E040E070E060E0B3
:1032900081E00E941718D82E65E070E0C5010E94F9
:1032A0003C1E11E09E81981310E01D2141F10E9407
:1032B0006F296093C2047093C3048093C4049093F5
:1032C000C50485E0FE013196ADEBB4E001900D92AE
:1032D0008A95E1F711E013C065E070E0C5010E9436
:1032E0003C1E9E818913CBCF85E0F6013196DE012D
:1032F000119601900D928A95E1F71111E2CF85E0C8
:10330000EDEBF4E0D70101900D928A95E1F7812F62
:103310002696EAE00C94DF300F931F93CF93DF9350
:10332000EC018B0141E159E10E94A318811106C013
:1033300080E0DF91CF911F910F91089545E658E10C
:10334000B801CE010E94A318882391F346ED58E1FD
:10335000B801CE010E94A318ECCF0F931F93CF9317
:10336000DF93C091D503D091D603CE01019625E01D
:10337000FB01DC0101900D922A95E1F765E070E018
:103380000E943C1E88836E817F818885998500918B
:10339000B9041091BA042091BB043091BC046017A9
:1033A00071078207930751F06093B9047093BA04D0
:1033B0008093BB049093BC040E949F158989882345
:1033C00031F060E0CE010A960E94661D198ADF91F5
:1033D000CF911F910F9108950E945E2B0E940C13B4
:1033E0000E946B2B08950E94702B0E9428130E944C
:1033F0008A2B08950E94FC280E94442B0E94F412FC
:103400000E94EC190E94F3190E940213FBCFEF9265
:10341000FF920F931F93CF93DF93EB01E82FD1110E
:103420000EC0442321F0F0E0E554FC4FE4916E2FF0
:103430007E2F8E2FCDB7DEB7E6E00C94E3300D2F54
:1034400010E0282F30E0442329F025543C4FF901A7
:10345000249130E0F6E0CF9FC0011124EFEFF0E0BF
:10346000BF010E94A130AB018C2F90E0880F991F03
:10347000A5E5A49FB001A59F700D1124861B970B95
:10348000982F990F980FBF01601B710B629FD0019D
:10349000639FB00D729FB00D11248B2F9D9FB001C3
:1034A0001124672F7727EF01C61BD70BBE01629F40
:1034B000E001639FD00D729FD00D11247F01E91AA6
:1034C000F108E09EB001E19E700DF09E700D112498
:1034D000672F7727E61BF70BE29F8001E39F100D14
:1034E000F29F100D1124E12F722F4230510599F0F7
:1034F00048F44115510569F04130510581F0EB2F39
:103500008D2F07C04430510569F080F046305105D9
:10351000B1F76E2F8FCFE22F7B2F812FFACFE22FC3
:103520007D2FF7CFEB2F822F712FF3CF7B2F822FA1
:10353000ED2FEFCF41E00E94071A0895EBEBF2E088
:103540008083618308950E949A1A0895CF93DF9330
:10355000762FE901682F842F0E94A31A798368834C
:103560008A83DF91CF910895453B08F044EB0E9498
:10357000A61A089580915405982F9E7F71F480912A
:103580005405817082608093540580915705853B76
:1035900018F084EB809357050895843080F7F5CFB9
:1035A00088E090E00E94BF330895CF92DF92EF92BF
:1035B000FF926B017C010E94BA1AB701A60188E054
:1035C00090E00E94DD33FF90EF90DF90CF90089560
:1035D000E4E5F5E083E0808311828FEF828384EB62
:1035E00083831482A1EDB4E012968C9112978360CC
:1035F00012968C9360817181828193810E94D51A89
:10360000089590915805933018F49F5F9093580552
:10361000882351F0609154057091550580915605AD
:10362000909157050E94D51A089581E00E94011BD0
:10363000089590915805992319F091509093580549
:10364000882351F06091540570915505809156057D
:10365000909157050E94D51A089581E00E94191B88
:10366000089521E030E001C0220F8A95EAF7909199
:10367000D404922381E009F480E0089570E00E9470
:103680000F1E0895A5E0B0E0E8E4FBE10C94BF3024
:103690007090BC029091540590FF16C0C090CE046B
:1036A000D090CF04C114D10409F58091BB0233E05E
:1036B000839FC0011124672D875A9A4F0E943E1B99
:1036C0002596EEE00C94DB308091BD022091BE0285
:1036D00033E0839FF0011124E75AFA4F8217F0F686
:1036E0001182108212828F5F3396F8CF90FFDDCF68
:1036F000F12CE12C43E0642E8E2D0E94311B882397
:1037000009F43BC0F701EE0FFF1FEC0DFD1DA59066
:10371000B490A114B10449F245E050E0B501CE01E6
:1037200001960E94F23009810F3F39F18A81800FA2
:103730009927991F8131910514F080E190E04C01A7
:10374000880C991C880D991D9C01275A3A4F4901F4
:10375000069D80011124075A1A4F0815190520F0FB
:1037600035E0A30EB11CD8CF98014D816C818B81BF
:103770000E94B41A0D5F1F4FF0CF8FEFE81AF80ABE
:1037800028E0E216F10409F0B7CF8FCFE4E5F5E0C9
:1037900080818E7F808360817181828193810E948C
:1037A000D51AE1EDF4E08281816082832FEF80E71A
:1037B00092E0215080409040E1F700C000000E945C
:1037C000421B0895E4E5F5E080818E7F8083E1ED82
:1037D000F4E08281816082832FEF80E792E02150C4
:1037E00080409040E1F700C000000E94421B089515
:1037F0009091540590FF0EC09091BD022091BE02A1
:1038000033E0939FF0011124E75AFA4F921718F012
:103810000E94421B08958183608342839F5F339699
:10382000F5CFA3E0B0E0E7E1FCE10C94C730F82E5F
:10383000062F142FE22E8091540580FF39C0E82F07
:10384000E695F0E0E952FC4F90819093D1048E7F91
:10385000823059F49E012F5F3F4F8F2D0E94B41A82
:103860004B8169818A810E94F81B809155058F11D7
:1038700008C080915605801304C0809157058117B8
:1038800029F08091D30482608093D304F09255058F
:103890000093560510935705EE2051F060915405A2
:1038A0007091550580915605909157050E94D51A43
:1038B0002396E6E00C94E330E4E5F5E09181282FCF
:1038C000438162818AE0890F0E94111C089581E082
:1038D0000E945C1C0895E4E5F5E09181282F438166
:1038E000628186EF890F0E94111C089581E00E9479
:1038F0006B1C0895E4E5F5E0628121E1620F08F4B4
:103900006FEF282F438181810E94111C089581E06F
:103910000E947A1C0895E4E5F5E0628121E1621BD2
:1039200008F460E0282F438181810E94111C0895D2
:1039300081E00E948B1C0895E4E5F5E0438121E1DC
:10394000420F08F44FEF282F628181810E94111CE1
:10395000089581E00E949C1C0895E4E5F5E0438110
:1039600021E1421B08F440E0282F628181810E94FE
:10397000111C089581E00E94AD1C089520E00E9472
:10398000111C08958091540580FF1DC081708260D4
:10399000809354058091D30481608093D30466237F
:1039A00051F06091540570915505809156059091A4
:1039B00057050E94D51A4091570560915605809190
:1039C00055050E94BE1C0895682F81E00E94C21C0C
:1039D000089581E00E94E41C0895682F9091540599
:1039E00096958FEF890F09F481E00E94C21C08951B
:1039F00081E00E94ED1C089561E00E94C21C0895C0
:103A0000E4E5F5E080818160808386950E94FC1C5E
:103A100008958091540580FF03C00E94C61B08953D
:103A20000E94001D089560E00E94C21C08958091CC
:103A3000D004811131C00E942612811104C00E945D
:103A4000CF120E94E81A0E94D01A60935405709316
:103A5000550580935605909357058091D304836054
:103A60008093D3046E7F61F40E94E81A0E94D01AFA
:103A700060935405709355058093560590935705B0
:103A80000E94BA1A8091540580FF03C086950E9457
:103A9000131D81E08093D00408951092D3040895FB
:103AA00025E0E4E5F5E0DC0101900D922A95E1F7CF
:103AB0004091D1045091D2046091D3047091D40408
:103AC000FC01458356836783708708951F93CF93C6
:103AD000DF93EC01162F8F8184FF03C098859093AC
:103AE000D40480FF0DC0888180FF17C080915405E9
:103AF0008160809354058881612F86950E94C21C45
:103B00008F8181FF06C0212F4B816A8189810E94AC
:103B1000111CDF91CF911F9108950E94E21BF0CFFD
:103B2000FA01811101C0FB01099508951F93CF93FC
:103B3000DF93EC01FB01128111114FC00E943C1177
:103B40008272CA3CFCE5DF0709F460C030F5C63C70
:103B5000ECE5DE0709F455C060F4C43C9CE5D907E8
:103B600009F443C008F048C0C33CDC45D9F111E07A
:103B700034C048E95CE167E87CE1C83C9CE5D907D2
:103B8000C1F147E65CE166E77CE1C93CDC4588F1D0
:103B900047E85CE168E97CE12CC0CE3CFCE5DF074E
:103BA000D1F1A0F44DE25BE165E17BE1CC3CECE5D9
:103BB000DE07F9F049EA5CE16AEB7CE1CD3CDC45EB
:103BC000C0F045E15BE16DE27BE113C0C73D8CE5F0
:103BD000D80718F0CE35DD4551F6812FDF91CF9112
:103BE0001F9108950E94091DF8CF48EF5CE169EE2E
:103BF0007CE10E94901DF1CF49EE5CE168EF7CE131
:103C0000F8CF46E75CE167E67CE1F3CF4AEB5CE1A5
:103C100069EA7CE1EECF81E00E94FC1CDECF539A82
:103C20004BB1477F5BB15860EFB7F8949B01220F0F
:103C3000331F260F371F280F391F2817390741F464
:103C4000EFBF8FE594E00197F1F700C00000089501
:103C5000DC016D91CD0178E05BB9000000C067FF29
:103C60004BB9660F000000C000C000C04BB900C0D7
:103C70007A9591F7E2CF0895FC01680F791F8FEFD5
:103C800091E36E177F0709F408952191822728E0B8
:103C900030E087FF06C0880F892721503109C9F716
:103CA000F0CF880FFACFB0E0A0E0E9E5FEE10C9498
:103CB000C5306C017B0164E670E088E70E947225E4
:103CC000EC0197FD12C010E000E0F601E00FF11FDB
:103CD000849164E670E00E94DE25EC01892B29F4D2
:103CE0000F5F1F4F0E151F0581F70E945426CE014E
:103CF000CDB7DEB7E8E00C94E1300895E9E8F5E0EF
:103D000080E092E0DF019C011D9221503040E1F7FC
:103D1000F0939007E0938F078FEF9FEF909301054B
:103D20008093000508950E947D1E0E94D306809313
:103D3000FC0480FD0FC080E88093FB040E946C258A
:103D40006DE070E082ED94E00E94531E892B21F01B
:103D500080E0089580E2F0CF8091FC0463E070E0A1
:103D600081FD26C08FEC94E00E94531E892B81F7C1
:103D70006DE070E08FEB94E00E94531E892B41F7B9
:103D80000E946F29605A75418F4F9F4F60938B0738
:103D900070938C0780938D0790938E070E947E1EF0
:103DA00081E08093FF048093FE041092FD04089547
:103DB0008CEC94E0D9CF2091FB0436E0839FC001C6
:103DC0001124629F800D911D1124811522E092071C
:103DD00014F090E080E087579A4F9093900780937B
:103DE0008F07089520918F07309190072358354011
:103DF0004091FB04642F70E0C9010E94A130481B70
:103E0000463010F4240F311D211582E0380710F0E0
:103E100030E020E027573A4F3093900720938F07E8
:103E200008951F93CF93DF93162F8A3039F481E0E2
:103E30000E948A1FDF91CF911F9108958D3011F458
:103E400080E0F6CFC0918F07D091900796E0FE01F9
:103E5000A5EDB4E001900D929A95E1F7803EB8F09F
:103E600086E0FE0111928A95E9F711111CC0C091FC
:103E70008F07D091900746E050E0BE0185ED94E0B9
:103E80000E94FB30892BE9F40E94F21ED3CFF6E0AA
:103E90008F9FB001112461527B4F46E050E0CE016C
:103EA0000E94F230E2CFE0918F07F09190079F01DE
:103EB0002A5F3F4F2E173F07D1F280818095819373
:103EC000F9CFC958D540CE0125E0969587952A951A
:103ED000E1F721E030E0A90102C0440F551F8A95A7
:103EE000E2F7CA014091000550910105842B952B02
:103EF000259645E0D695C7954A95E1F702C0220F71
:103F0000331FCA95E2F7822B932B90930105809380
:103F10000005BACFCF93382FE0918F07F09190072B
:103F2000E958F5402091FB04622F70E0CF010E9418
:103F3000A130281B822F332369F066E00E94953060
:103F4000C82FC15010F4CF91089560E080E20E9424
:103F5000111FF7CF9F01280F311D2115324018F096
:103F600080E0F0E0E0E08E0F9F2F911D87579A4F81
:103F70009093900780938F07E6CFFF920F931F9344
:103F8000CF93DF93EC01F62EFC0101900020E9F7BE
:103F90008F0101501109C017D10728F0CDB7DEB746
:103FA000E5E00C94E4306F2D89910E94111FF3CF4E
:103FB0000E94BD1F81E00E948A1F08958091FF0426
:103FC000811103C08091FE0408950E946F29605AF8
:103FD00075418F4F9F4F60938B0770938C07809331
:103FE0008D0790938E078091FE048111EBCF62E0E4
:103FF00070E08DEB94E00E94531E892B19F781E04D
:104000008093FE04DFCF2F923F925F926F927F9258
:104010008F929F92AF92BF92CF92DF92EF92FF92D8
:104020000F931F93CF93DF938091FF04882369F050
:1040300020910005309101052115310531F0809165
:10404000FD0461E070E0882399F0DF91CF911F912A
:104050000F91FF90EF90DF90CF90BF90AF909F9027
:104060008F907F906F905F903F902F9008958F5F1B
:10407000082F10E01B01082E02C0220C331C0A94EA
:10408000E2F7A90142215321452B89F39091FC04C9
:1040900090FD44C08295880F80768093C20298017B
:1040A00036952795369527952093C502815E809396
:1040B000C3021092C60224E630E047E050E060EC14
:1040C00072E088E70E940C26892B09F0BECFA80178
:1040D00025E0440F551F2A95E1F78091FC0480FDEF
:1040E0002BC047575A4F04E610E020E230E060E46E
:1040F00088E70E942D26892B09F0A7CF0E94DE1F9A
:10410000E101C095D0958091000590910105C823EB
:10411000D923D0930105C093000597CF880F880F4E
:10412000880F8093C2021092C502895F8093C302F8
:1041300083E08093C602BFCFEBEDF4E080E2DF01C5
:104140001D928A95E9F7ADEDB3E009ED13E081EE3C
:10415000C82E83E0D82E97E0592E772473948D9142
:10416000E80129918E01240F352F311D27573A4F31
:10417000E82FF0E0E552FB4F90E080E0652C681AF4
:10418000872C082E01C0880C0A94EAF77901A12C2B
:10419000E701B9907E01B820662D6A196770962EE6
:1041A000062E000C770BDB2D01C0DD0F9A94EAF789
:1041B0007195619571096770772701C0B6946A950A
:1041C000EAF7BD2A6081962E9B289082A39468E02E
:1041D000A612DECF019631968830910579F6CA167F
:1041E000DB0609F0BCCF04E610E020E230E04BED46
:1041F00054E07DCF8091FE049091FF04911103C0A3
:1042000091E089270895882369F062E070E08BEBE4
:1042100094E00E94531E892B19F08091FE040895AA
:104220001092FE048091FE04EBCF0E94DD060895FB
:104230000F931F938091FF04882379F18091890760
:1042400090918A070E947B29C29760F00E9463299F
:1042500090938A078093890760E080E00E94DB1ECC
:104260000E9415210E9403208091FE048823A9F05A
:104270000E946F2900918B0710918C0720918D0768
:1042800030918E07601B710B820B930B6F3F7F4F3A
:104290008F4F9F4710F40E94FA201F910F910895AD
:1042A000CF93DF93EC01FB018281882309F464C181
:1042B000C430FDE5DF07E0F5CB3F9CE5D90730F4DE
:1042C0009E0122503C4524313105D8F50E943B1215
:1042D00090933D0580933C05C231ECE5DE0709F47F
:1042E0001FC108F06EC0C9308CE5D80709F4F2C0D0
:1042F00008F03FC0C530ECE5DE0709F4DBC058F537
:10430000C3308CE5D80709F4CDC008F0CFC0809148
:104310003C058160C230DC4509F4AEC080913C05AB
:1043200090913D050E9449120E94D50C80E009C081
:10433000C63AEDE5DE0751F238F4C2369DE5D907FD
:1043400029F2DF91CF9108959E012E5A3D452330E9
:104350003105B8F7BBCF80913C058062C730FCE5E2
:10436000DF0709F489C008F4B1C080913C0580647E
:1043700083C0CD309CE5D90709F4BAC070F48091B0
:104380003C058E7FCB30FCE5DF0709F475C008F4EF
:10439000A7C080913C058D7F6FC0CF309CE5D907C9
:1043A00009F4B6C008F4A8C0C031FCE5DF0709F481
:1043B000B3C0C131DC4509F0B1CF80913C058F7BA2
:1043C0005BC0C1159DE5D90709F4B4C098F5CB3F92
:1043D000FCE5DF0709F472C0B8F4C4319CE5D907E5
:1043E00009F4B6C008F4A2C0C531DC4509F096CF87
:1043F00080913C0582FB992790F921E0922790FB60
:1044000082F990FB83F938C0CD3F8CE5D80709F4D9
:1044100077C008F457C0CE3FECE5DE0709F474C05E
:1044200080913D058360CF3FDC4509F077CF8093D5
:104430003D0574CFC2368DE5D80709F496C068F4FF
:10444000C230EDE5DE0709F48CC008F477C0C33054
:10445000DD4509F063CF80E085C0CE3A9DE5D90700
:10446000E9F068F490913C05892F8E7F90FF816080
:10447000C63ADD4509F052CF80933C054FCFCF3A85
:104480008DE5D80789F1C03BDD4509F047CF909114
:104490003D05892F877F93FF8860C9CF80913D05B7
:1044A0008860C5CF80913C058260E6CF80913C0555
:1044B0008460E2CF80913C058860DECF80913D052D
:1044C0008160B5CF80913D058260B1CF80913C0580
:1044D0008061D2CF0E94D50C80913C058068CCCF02
:1044E00080913C058C60C8CF80913D05877F9FCF30
:1044F00080913C058B7FC0CF80913C05877FBCCFEE
:1045000080913D058E7F93CF80913D058D7F8FCF2C
:1045100080913C058F7EB0CF80913C058F7DACCFE4
:104520000E94D50C80913C058F77A6CF80913C05E9
:10453000837FA2CF80913D058C7F79CF80913D050F
:10454000982F909591708E7F892B90FB81F96FCF7A
:104550000E94D50C90913C05892F97FB87F98058D4
:104560008BCF81E00E94D212D9CE90913C05892F49
:104570008F7E94FF806180CF81E0E3CEB0E0A0E049
:10458000E4ECF2E20C94C630E82FF0E0E15EF54F87
:10459000D490282F26952695269530E0F901E154F0
:1045A000F54F0491877010E0082E02C0159507950D
:1045B0000A94E2F701701127F901E155F54FE490F3
:1045C000F12C082E02C0F594E7940A94E2F791E0EA
:1045D000E922FF24F901E156F54FC491D0E002C071
:1045E000D595C7958A95E2F7C170DD2701151105AC
:1045F00019F081EE0E94EB09E114F10419F086EE46
:104600000E94EB098D2D0E94710AE114F10419F04A
:1046100086EE0E942F0A0115110519F081EE0E9405
:104620002F0ACD2B19F08CE20E94710ACDB7DEB7AC
:10463000E7E00C94E230EF92FF920F931F93CF9339
:10464000DF938C01F62E8AE0E82EF801849188230E
:1046500009F454C0813009F04DC0E8012196FE01F3
:104660008491813091F42196FE0184910E94710A17
:104670008E010F5F1F4F8F2D815038F3EFE9FFE060
:104680003197F1F700C00000F7CF823039F4E8012C
:104690002296FE0184910E94EB09EACF833039F41F
:1046A000E8012296FE0184910E942F0AE1CF843016
:1046B000F9F6E8012296FE01249190E080E0FE01E7
:1046C00031962053330B2A30310548F0019780F2A0
:1046D000EFE9FFE03197F1F700C00000F7CFE89E67
:1046E000A001E99E500D1124C901840F951F24914A
:1046F000EF01E5CF0E94BE22E801BACFCDB7DEB709
:10470000E6E00C94E330CF93DF93EB0186319C45D8
:1047100011F50E943C119A81992399F08A7A91E0CF
:1047200009F490E090930205811109C089E20E948A
:1047300014110E94801180E0DF91CF91089585E3EC
:10474000F6CF80910205811104C089E20E941C11FC
:10475000F0CF85E3FBCF81E0EFCF0F931F93CF9393
:10476000DF93C42FD22FFC0182818823C9F04093AC
:1047700005050E946329909304058093030580E258
:104780008C0F883040F4C77081E001C0880FCA9553
:10479000EAF70E947A0ADF91CF911F910F91089555
:1047A00010910505141332C0809103059091040502
:1047B0000E947B29883C910548F5C0E2CD0F1D176A
:1047C000B9F080E2810F883040F4177081E001C0B9
:1047D000880F1A95EAF70E94810AC83048F481E0F0
:1047E0009D2F977001C0880F9A95EAF70E947A0A68
:1047F000802F0E94710AC83070F6D77081E001C026
:10480000880FDA95EAF70E94810AC5CF80E28C0F03
:10481000883008F6C77081E001C0880FCA95EAF7B2
:10482000F2CF0F939C01CB01243F4CE5340759F1A3
:10483000A8F4293DFCE53F0701F12A3D4CE534078A
:10484000D1F1283D3C4591F406E221EE41EE68EDC0
:104850007CE50E94AD2380E00F910895263FFCE5A2
:104860003F07E9F0B0F0273F3C45F9F0FC018281B9
:10487000882339F110920505EFCF07E225EE45EECA
:1048800069ED7CE5E6CF06E221EE40EE64EF7CE5E3
:10489000E0CF07E225EE44EE65EF7CE5DACF06E2F5
:1048A00021EE42EE66EF7CE5D4CF07E225EE46EE40
:1048B00067EF7CE5CECF08E221E045EE6AED7CE5CE
:1048C000C8CF81E0C9CFCF93DF93EC01EA85FB85A8
:1048D000309719F06C857D8509958B810E94581160
:1048E0008C810E9445110E94801186E0FE01119288
:1048F0008A95E9F7DF91CF910895CF93DF93EC018B
:104900008D8181FD12C082608D838B810E94521146
:104910008C810E943F110E948011E885F9853097B3
:1049200021F06C857D85CE010995109209051092C4
:1049300008058D8180FD03C0CE010E946324DF91B4
:10494000CF910895CF93DF93EC018A81823041F4B7
:10495000FB01828193810E942A088D8182608D8370
:10496000DF91CF910895FB01808191810E942A08F7
:104970000895FC018281813031F4FB0180819181B5
:104980000E94400808958230E9F7FB0182819381FB
:10499000F7CFFB0122812223E1F0E0910805F0919D
:1049A00009053097B1F0E817F90799F02EE0E29F7A
:1049B000F0011124DF01AB5BBE4F2C9124602C93DE
:1049C000E05CFE4F91838083CF010E947D240E9492
:1049D0005F110895EF92FF920F931F93CF93DF9390
:1049E0008C0197558F3F910511F008F041C0780177
:1049F000FF248EE0089FF0011124EF01C05CDE4F20
:104A0000DB0112962C91EB5BFE4F808120FB80F93D
:104A10008083222399F10E94632990930705809354
:104A200006058A818F5F8A830E943C118B830E94D6
:104A30004F119B81892B8B830E9462118C83EE81A5
:104A4000FF81309721F06C857D85CE0109958EE040
:104A50008E9DF0018F9DF00D1124E05CFE4F85814D
:104A600081FF02C010E000E01093090500930805E3
:104A700081E0CDB7DEB7E6E00C94E3308D8181FFB5
:104A8000F7CFCE010E946324F3CF80910805909167
:104A90000905892BC9F080910605909107050E94B0
:104AA0007B29893C910580F0809108052EE0829F4A
:104AB000C0011124FC01EB5BFE4F208122FD04C0EC
:104AC000805C9E4F0E947D240895109209051092EB
:104AD00008050E94632408951092B9008CE0809329
:104AE000B8000895B0E0A0E0E8E7F5E20C94C23029
:104AF000B82EEB010E9463296C01EE24E394F12CA3
:104B0000C431D10560F025E0E22EF12CCF3FDC0767
:104B100031F0CE0164E170E00E94A1307B0184EAB3
:104B2000A82E94E8992E1092BC00A092BC000E947E
:104B300063298C018091BC0087FF0DC08091B90072
:104B4000887F8830F9F08091B900887F8031D1F07A
:104B50000FEF1FEF08C0C8010E947B29E816F90675
:104B600048F70EEF1FEFCF3FDC07E9F2C6010E94C6
:104B70007B29C817D907B8F6C801CDB7DEB7EBE077
:104B80000C94DE30B092BB009092BC000E9463296E
:104B90008C018091BC0087FF0AC08091B900887F9A
:104BA000883111F08034A1F610E000E0E5CFC801B3
:104BB0000E947B29E816F90660F7D3CF0F931F9365
:104BC000CF93DF93EB018093BB0084E88093BC001C
:104BD0000E9463298C018091BC0087FF11C0209145
:104BE000B900287F81E090E0283211F490E080E065
:104BF000919581959109DF91CF911F910F91089522
:104C0000CF3FDC0741F3C8010E947B29C817D907B1
:104C100010F78EEF9FEFEFCFB0E0A0E0E2E1F6E219
:104C20000C94C5306B018A017901B9010E9472258B
:104C3000E6010C0D1D1DC017D10711F097FF08C02C
:104C400024E92093BC00CDB7DEB7E8E00C94E13056
:104C5000B70189910E94DE25EECFB0E0A0E0E3E34A
:104C6000F6E20C94C530C62F6A017901B8010E94A2
:104C7000722597FD0CC0B8018C2F0E94DE25E6013D
:104C8000EC0CFD1CCE15DF0511F097FF08C024E9E0
:104C90002093BC00CDB7DEB7E8E00C94E130B8015A
:104CA00089910E94DE25EECF84E98093BC000895AF
:104CB0008EE14A9B02C08150E1F74A9BFECF0895E6
:104CC0005A9880E28A95F1F75A9A0895FC013BE0E0
:104CD0003A95F1F798E020E080E031E040E14A9534
:104CE000F1F7880F4A9B02C08160232742E04A9572
:104CF000F1F7000040E14A95F1F7915079F790E122
:104D00009A95F1F799B132E03A95F1F7000040E158
:104D10004A95F1F792FB992790F992272081920FFB
:104D200090830895A1E0B0E0E8E9F6E20C94C73082
:104D300019828C017C01E60EF11C0E151F0541F451
:104D400081E09981911180E02196E6E00C94E330B6
:104D50000E945826CE0101960E946626F801819392
:104D60008F01EBCF529A5A9A089552985A9AEA9A1A
:104D7000E9E6F0E080818F7C808308956150770BB5
:104D800091E001C0990F6A95EAF720E031E09111B6
:104D900008C0222391F05A9A80E28A95F1F75A9836
:104DA0000895492F482339F05A9A232740E24A951B
:104DB000F1F79695ECCF5A98F9CF5A98EDCFFF922C
:104DC0000F931F93CF93DF93EC018C01060F111DFE
:104DD000C017D10729F4CDB7DEB7E5E00C94E43075
:104DE000F9900E94602668E08F2D0E94BE26F0CFC9
:104DF0001F920F920FB60F9211240F931F932F93B0
:104E00003F934F935F936F937F938F939F93AF9352
:104E1000BF93EF93FF93CF93DF930F92CDB7DEB79E
:104E200019820E945826CE0101960E946626082FFC
:104E3000069506950695282F22952570902F95703A
:104E4000290F922F937026952695920F9827977089
:104E50008981982B09F05CC0053008F059C080E1C9
:104E60008A95F1F75A9A529A82E08A95F1F700C032
:104E70005A9888E0089F80011124D801A556BD4F9B
:104E80001696ED91FC9117973097A9F06091D50394
:104E90007091D60314962D913C911597260F371FCC
:104EA00011968D919C911297680F791F13964C91D2
:104EB00013978C910995F801E556FD4F63816623A0
:104EC00051F02091D5033091D60384819581820FD2
:104ED000931F0E94DF260E94602680E18A95F1F7E9
:104EE0005A9852985A9A80E18A95F1F7F801E55656
:104EF000FD4F6081662351F02091D5033091D60398
:104F000081819281820F931F0E9492260E945826CF
:104F10000F90DF91CF91FF91EF91BF91AF919F9152
:104F20008F917F916F915F914F913F912F911F9141
:104F30000F910F900FBE0F901F9018950F931F9316
:104F4000CF93DF93EC0105970CF04CC0F894529A84
:104F50005A9885E08A95F1F700009C2F96959570F8
:104F60008C2F8570980F892F83709695969523E0E6
:104F7000CC0FDD1F2A95E1F7980F8E01092B0E94B7
:104F8000602600C068E0802F0E94BE2680E18A95DE
:104F9000F1F752985A9A4A9B1EC087E090E04A99CE
:104FA0001CC0FE01E556FD4F63816623F9F0209198
:104FB000D5033091D60384819581820F931F0E947F
:104FC0009226811113C0529A5A9A7894DF91CF9108
:104FD0001F910F91089500C0DECF019729F4529AD6
:104FE0005A9A789480E0F2CF00C0D9CF0E94582618
:104FF00080E28A95F1F75A98529A80E18A95F1F702
:10500000C556DD4F6881662351F02091D50330915C
:10501000D60389819A81820F931F0E94DF260E9406
:105020006026789481E0D2CF9093E3038093E203EB
:1050300008959093100580930F0508950E949E1780
:10504000811103C080910A050895E0910F05F09148
:105050001005309729F00190F081E02D0995089511
:1050600080E00895E0910F05F0911005309721F050
:105070000280F381E02D0995089520910D0530916E
:105080000E052817390771F090930E0580930D05D2
:10509000E0910F05F0911005309721F00680F7811F
:1050A000E02D0995089520910B0530910C052817E6
:1050B000390771F090930C0580930B05E0910F0573
:1050C000F0911005309721F00084F185E02D0995CD
:1050D00008959C012E5F3F4FAC01485F5F4F80E019
:1050E0002417350709F40895F90191919F01992337
:1050F000B9F38F5FF5CF662349F0FC01329608962D
:105100002191261729F0E817F907D1F780E00895D3
:1051100081E008959C01FC0132969FEF80E041916F
:10512000461751F09F3F19F4411101C0982F8F5F2E
:105130008630A9F79F3F09F40895290F311D97FD87
:105140003A95F90162830895FC01329608962191FF
:10515000261303C0DF0111971C92E817F907B9F76E
:1051600008950E948A2808950E94A428089502960E
:1051700026E0FC0111922A95E9F7089508950E940E
:10518000BE280895811106C081E0809311050E9418
:10519000BF28089582E0F9CF83E0809311050E9433
:1051A000BF2808950E94C228089581E080931105C8
:1051B0000E94BF2808950E94D52808950895089553
:1051C0000E94DF280895089508950E94DE2808951A
:1051D000CF930E94E3280E9422170E94E428C0E097
:1051E0008C2F0E94FF15811105C0CF5FCA30C1F717
:1051F000CF91089581E0FCCF85B7806885BF85B7E2
:10520000806885BF08951F921FB61F9211248F9347
:105210009F93AF93BF9380911205811113C080912A
:10522000910790919207A0919307B09194074196AE
:10523000A11DB11D8093910790939207A0939307AE
:10524000B0939407BF91AF919F918F911F901FBE14
:105250001F90189580919907843031F10E946F0951
:105260001092120588E190E020E40FB6F894A8951A
:10527000809360000FBE2093600083B7817F8460BD
:1052800083BF83B7816083BF7894889583B78E7F0F
:1052900083BF0FB6F894A8958091600088618093D1
:1052A0006000109260000FBE08950E94D50C0E940D
:1052B0007609089582E084BD93E095BD9AEF97BD8D
:1052C00080936E0008952FB7F89480919107909184
:1052D0009207A0919307B09194072FBF08952FB71D
:1052E000F894609191077091920780919307909143
:1052F00094072FBF08959C014FB7F89480919107B0
:1053000090919207A0919307B09194074FBF821B91
:10531000930B0895CF92DF92EF92FF922FB7F894FC
:10532000C0909107D0909207E0909307F090940777
:105330002FBFA7019601261B370B480B590BCA013B
:10534000B901FF90EF90DF90CF90089578941F926D
:105350001FB61F9211248F939F93AF93BF93809199
:10536000910790919207A0919307B09194070196AD
:10537000A11DB11D8093910790939207A09393076D
:10538000B0939407BF91AF919F918F911F901FBED3
:105390001F90189587E797E790930108809300087E
:1053A00088E19AE00FB6F894A895809360000FBE4C
:1053B00090936000FFCF88E19AE00FB6F894A8952B
:1053C000809360000FBE90936000FFCF80911E0518
:1053D00008950895CF93DF93EC0181E08093E90075
:1053E0008FEF9091E800815095FD06C095ED9A955C
:1053F000F1F700008111F5CF8091E80085FF14C01E
:1054000050E040E068E070E0CE010E94FC2B80910B
:10541000E8008E778093E80088E0FE01A6E1B5E021
:1054200001900D928A95E1F7DF91CF9108958093D5
:1054300013057093150560931405809199078430C6
:1054400001F582E08093E9008FEF9091E8008150B0
:1054500095FD06C095ED9A95F1F700008111F5CF05
:105460008091E80085FF0DC050E040E063E070E00F
:1054700083E195E00E94FC2B8091E8008E77809379
:10548000E8000895BC0184E00E94172A0895BC0139
:1054900083E00E94172A089508958091980781114A
:1054A00009C00E948C2D0E94E92D8091E200846049
:1054B0008093E20008951092980708950E94D528DD
:1054C00008956091950781E0611101C080E00E941C
:1054D000CC2808959091990781E0943009F080E0FC
:1054E000609195070E94D228089542E061EC81E026
:1054F0000E94082D42E261EC82E00E94082D90910A
:10550000990781E0943009F080E0609195070E944E
:10551000C228089580919B07833009F461C030F45C
:105520008130D1F1823009F49EC008958A3009F4A7
:105530008AC08B3009F46FC0893009F050C0809167
:105540009A07813209F04BC080919E0790919F0786
:10555000029708F044C08091E800877F8093E800BC
:105560008091E80082FF37C09091F3008091F200B3
:10557000029731F48091F100813011F0863021F4EE
:105580008091F10080931E058091E8008B778093D5
:10559000E8000E943C2D23C080919A07813AF9F4DB
:1055A0008091E800877F8093E80080919E0790912A
:1055B0009F07892B61F468E086E195E070E00E9426
:1055C0004B2C8091E8008B778093E800089560E091
:1055D00090E080E0F3CF809199078111C1CF0895C9
:1055E00080919A07813AD9F780919E0790919F0701
:1055F000892BA9F78091E800877F8093E80080914C
:10560000E80080FFFCCF8091D3028093F10080916D
:10561000E8008E77BCCF80919A07813201F78091A4
:105620009E0790919F07892BD1F68091E800877F94
:105630008093E8000E943C2D80919C078093D302C8
:105640000E94D50C089580919A07813241F680918D
:10565000E800877F8093E8000E943C2D80919D07A1
:1056600080931F05089580919A07813A09F0B7CF7A
:105670008091E800877F8093E8008091E80080FFB8
:10568000FCCF80911F05C1CF84B7877F84BF0FB641
:10569000F894A895809160008861809360001092D2
:1056A00060000FBE80E890E00FB6F8948093610030
:1056B000909361000FBE0E94DB2808950E948C2DFC
:1056C0000E94E92DE2EEF0E080818460808378948E
:1056D0000E946830089587EC92E00E94192808958E
:1056E00080919907853031F480919907853019F0C0
:1056F0000E94552908950E942A298091970788239E
:1057000099F30E94E828882379F30E94E62B0E94EF
:10571000D50CEACF08950E948E2B0895292F3327A8
:105720002330310519F168F42130310509F444C002
:105730002230310509F445C090E080E030E020E0FF
:1057400025C02132310549F122323105A9F780E423
:1057500090E024E73BE061157105C1F082E390E041
:1057600022E43BE06130710589F0E6CF9927813072
:10577000910581F0009729F00297F1F6EFECFAE03D
:1057800002C0E1EFFAE0849190E09F01FA013183D9
:1057900020830895EFEDFAE0F6CF89E090E027E06E
:1057A0003BE06115710591F389E090E020E23BE078
:1057B0006130710559F3C0CF82E190E020E33BE016
:1057C000E5CF8BE390E025EF3AE0E0CF80E189BDC3
:1057D00082E189BD09B400FEFDCF8091D8008F7DA4
:1057E0008093D8008091E00082608093E0008091F7
:1057F000E00081FDFCCF0895AF92BF92CF92DF927F
:10580000FF920F931F93CF93DF936C01EB018A01FB
:105810000E945B2DF82E811123C00115110539F06E
:10582000F80180819181C81BD90BC80ED91EB12CFB
:10583000A12C2097A9F08091E80085FD22C08091DD
:10584000E8008E778093E80001151105A1F0F801BA
:1058500080819181A80EB91EB182A08285E0F82EC8
:105860008F2DDF91CF911F910F91FF90DF90CF90FF
:10587000BF90AF9008950E945B2D8823D1F2F82E3F
:10588000EFCFF60181916F018093F1002197FFEF37
:10589000AF1ABF0ACECFFC018091A0079091A1075B
:1058A00086179707A0F06115710529F49091E8001B
:1058B0009E779093E80090E06115710551F4911185
:1058C00008C08091E80082FF34C080E00895BC01E8
:1058D000F2CF809199078823C1F18530C1F1809181
:1058E000E80083FD30C08091E80082FDEACF80911E
:1058F000E80080FFE1CF8091F3002091F200382F83
:105900006115710519F02830310558F091E0283003
:10591000310509F090E02091E8002E772093E8000F
:10592000CBCF81918093F100615071092F5F3F4F80
:10593000E7CF80919907882341F0853041F080912D
:10594000E80083FFBECF81E0089582E0089583E000
:105950000895FC018091A0079091A10786179707F1
:10596000A0F06115710529F48091E8008E7780938D
:10597000E80090E06115710551F4911108C0809123
:10598000E80082FF35C080E00895BC01F2CF80912D
:1059900099078823C9F18530C9F18091E80083FD1A
:1059A00031C08091E80082FDEACF8091E80080FF5D
:1059B000E1CF8091F3002091F200382F611571053D
:1059C00019F02830310558F091E02830310509F000
:1059D00090E08091E8008E778093E800CBCF8491AF
:1059E0008093F1003196615071092F5F3F4FE6CFF0
:1059F00080919907882341F0853041F08091E8003B
:105A000083FFBDCF81E0089582E0089583E008958B
:105A1000982F973028F08F708093E90081E00895E7
:105A20009093E900242F762F50E0981731F0709171
:105A3000EC002091ED005091F00021FD02C09F5F2D
:105A4000E8CF3091EB003E7F3093EB003091ED00DA
:105A50003D7F3093ED003091EB0031603093EB00EF
:105A60007093EC002093ED005093F0002091EE0035
:105A700027FDE5CF80E0089580919A0787FF13C046
:105A80008091E80082FF06C08091E8008B778093C8
:105A9000E80004C0809199078111F2CF08958091A8
:105AA00099078823D9F38091E80080FFF8CF80918F
:105AB000E8008E77ECCF2091E4003091E50095E688
:105AC000A9012091EC00822F817020FF06C08091F7
:105AD000E80080FF06C080E008952091E80022FDE4
