:100000000C94D8050C94F5050C94F5050C94432A32
:100010000C94F5050C94F5050C94F5050C94F50578
:100020000C94F5050C94F5050C94632F0C94373063
:100030000C94D4270C94F5050C94F5050C94F50557
:100040000C94F5050C94F5050C94F5050C94F50548
:100050000C94F5050C9477280C94F5050C94F50593
:100060000C94F5050C94F5050C94F5050C94F50528
:100070000C94F5050C94F5050C94F5050C94F50518
:100080000C94F5050C94F5050C94F5050C94F50508
:100090000C94F5050C94F5050C94F5050C94F505F8
:1000A0000C94F5050C94F5050C94F5050102E0019E
:1000B000012B000102E00102E101011A000102E04E
:1000C0000102E101010700010136000102E0010126
:1000D0001C000102E201012C00010139000102E3D0
:1000E000010107000102E3010151000102E30101E6
:1000F00052000102E201013D000102E00102E201C1
:100100000119000102E0010219000102E0010206EA
:10011000000102E30102E1010216007774010128E7
:10012000000102E3720103E3000101320001013426
:10013000000102E10101320103E1000102E10101DC
:10014000260103E1000102E10101340103E10001A4
:1001500002E10101250103E1004C001E001F002007
:100160000021002200427E08570A570B5713001C3B
:10017000002B2204001200080018440C00030009A0
:100180005714000D000E001B000000E2004B7E2CF7
:100190004129240457407E270026002500240023FF
:1001A000002F220F000B0006000A0009002A00168B
:1001B000000257170015000700E7001D0019001A7C
:1001C000001000050000004A7E065728423621052F
:1001D0005701003A003B003C003D003E0001003F5B
:1001E000004000E2002B00430001004E004B00489D
:1001F0007E497E6800010000000000000000000051
:10020000000000010001000100010000002A00AB15
:1002100000AE00AC0000000000A90000004D7E4CC4
:100220007E4E7E0000A8000F570E570D5700570C4A
:1002300057AA0000000000000000000000000001BC
:1002400000010001000100000000000000000000AB
:10025000000000000001004A004B004600000000C2
:100260000001001057115712570157135701004C46
:10027000004C004B004E00E00000000100010000B7
:1002800000000000002A0000000000000000000044
:10029000000000477E467E447E437E457E01004F3F
:1002A00000520051005000417E000000000000009C
:1002B000000000000000000000000000000000003E
:1002C00000000000000000000000000000007C00B2
:1002D000000000000000002078017C000000000009
:1002E000000000000000000000000000000000000E
:1002F00000000000000000000000000000000000FE
:10030000000000000000000000007C000000000071
:100310000000000000017C00000000000000000060
:1003200000000000000000000000000000000000CD
:1003300000000000000000000000000000000000BD
:1003400000000000000000000000000000000000AD
:10035000000000000000000000000000000000009D
:10036000000000000000000000000000000000008D
:10037000000000000000000000000000000000007D
:1003800000000000002600250024000000000000FE
:100390000023002200210027000000000020001F91
:1003A000001E00000000000000000000000000002F
:1003B000000001010101010101010102020202022A
:1003C00002020202030303030303030304040404FD
:1003D00004040405050505050606060606070707C5
:1003E000070708080808090909090A0A0A0B0B0B7C
:1003F0000C0C0C0D0D0D0E0E0E0F0F0F1010111119
:10040000111212131314141515161617171818199C
:10041000191A1A1B1B1C1D1D1E1E1F202021222203
:10042000232424252626272829292A2B2C2D2D2E46
:100430002F30313232333435363738393A3B3C3D60
:100440003E3F404142434445464748494A4C4D4E51
:100450004F50515354555658595A5B5D5E5F616217
:1004600064656668696B6C6D6F7072737577787AA6
:100470007B7D7E8082838587888A8C8E8F91939501
:1004800096989A9C9EA0A2A3A5A7A9ABADAFB1B325
:10049000B5B7BABCBEC0C2C4C6C9CBCDCFD1D4D605
:1004A000D8DBDDDFE2E4E7E9EBEEF0F3F5F8FAFDA7
:1004B000FF00AE00AF00DA0281FFD9F1DB20A4A675
:1004C0002EAF00A0C0D30000A1C8D30000AED580DD
:1004D000A81F408D1420000000000000003E5B4F6C
:1004E0005B3E003E6B4F6B3E001C3E7C3E1C00188A
:1004F0003C7E3C18001C577D571C001C5E7F5E1C18
:100500000000183C180000FFE7C3E7FF00001824B4
:10051000180000FFE7DBE7FF0030483A060E002630
:100520002979292600407F05050700407F05253FE2
:10053000005A3CE73C5A007F3E1C1C0800081C1C6B
:100540003E7F0014227F2214005F5F005F5F000681
:10055000097F017F00006689956A006060606060C5
:100560000094A2FFA2940008047E04080010207EDC
:1005700020100008082A1C0800081C2A0808001E71
:1005800010101010000C1E0C1E0C0030383E3830BD
:1005900000060E3E0E060000000000000000005F96
:1005A000000000000700070000147F147F140024DF
:1005B0002A7F2A120023130864620036495620500D
:1005C00000000807030000001C2241000000412237
:1005D0001C00002A1C7F1C2A0008083E0808000096
:1005E0008070300000080808080800000060600003
:1005F000002010080402003E5149453E0000427FA1
:100600004000007249494946002141494D330018D4
:1006100014127F10002745454539003C4A494931AD
:100620000041211109070036494949360046494928
:10063000291E0000001400000000403400000000EB
:100640000814224100141414141400004122140848
:10065000000201590906003E415D594E007C12110D
:10066000127C007F49494936003E41414122007FCA
:100670004141413E007F49494941007F0909090143
:10068000003E41415173007F0808087F0000417F10
:100690004100002040413F01007F08142241007FBB
:1006A00040404040007F021C027F007F0408107F12
:1006B000003E4141413E007F09090906003E41518B
:1006C000215E007F09192946002649494932000365
:1006D000017F0103003F4040403F001F2040201F9A
:1006E000003F4038403F006314081463000304785F
:1006F0000403006159494D4300007F41414100021C
:100700000408102000004141417F0004020102045E
:1007100000404040404000000307080000205454BF
:100720007840007F28444438003844444428003846
:100730004444287F0038545454180000087E0902AD
:10074000001824241C78007F080404780000447DED
:100750004000002040403D00007F10284400000081
:10076000417F4000007C04780478007C0804047811
:10077000003844444438007C1824241800182424E9
:10078000187C007C080404080048545454240004D5
:10079000043F4424003C4040207C001C2040201C9E
:1007A000003C4030403C004428102844004C9090CD
:1007B000907C004464544C44000008364100000022
:1007C0000077000000004136080000020102040228
:1007D000003C2623263C0000000000008080808032
:1007E000000000000080E070180C1830E08000006D
:1007F00010F8901030783010B8FC3810000000006D
:100800000000F8FCF80000000000000000000000FC
:1008100000001C9C1C00000000F8FCF80000000018
:1008200000001CFCF8C000000000000080E0F87C24
:100830001C000000F0FCFCFC1C1C1C1C1C1C1C1CD8
:10084000000000000000C0F0F8381C1C1C1C1C1C20
:100850003CF8F0E000E0F0F0F0E0ECEEF7F37020B0
:10086000007C7C7C7E007E7E7E7F7F7F000080C05F
:10087000E07E5B4F5BFEC00000C000DCD7DEDEDE4A
:10088000D7DC00C0000000000000000000000000F5
:100890000000000000000000000000000FBCE0812C
:1008A0008181838382870C183060C000001FFE9016
:1008B000B9FFBB91983C1811133F110000000000D4
:1008C0000000FFFFFF00000000000000000000002B
:1008D0000000FFFFFF00000000FFFFFF000000001E
:1008E00000000000030F7FF8E080F0FC3F0F0100E4
:1008F000000000003F3F3F1C1C1C1C1C3C78F8F013
:10090000E08000000000C3E7FF7E3C38787870701C
:10091000F8FFDF87000F1F3F7F7F7F7F7F3F1E0C29
:10092000001F1F1F3F003F3F3F7F7F7F00307B7FC7
:100930007830202030787F3B0003000F7F0F0F0FAF
:100940007F0F000300000000000000000000000016
:1009500000000000000000183C24666341C1818053
:10096000808080808081C14162386C4CC6818180EA
:100970008080808081C14362361C18000000000026
:100980000000FFFFFFC0C0C0C0C0C0C0C0C080002A
:1009900000007FFF7F000000007FFFFFC08000009D
:1009A00000E0E0C0C0C0E0F97F1F070000000000C9
:1009B0000000000070F0E0E0C0C0C0C0E0F0F87FD0
:1009C0003F0F0000000F3F7FF9E0E0C0C0C0C0C093
:1009D000E0F97F3F1F000000000000000000000061
:1009E0000000000000000000000000000000000007
:1009F00000000000000000000000000000000000F7
:100A000000000000000000000000000000000000E6
:100A10000000000000000000000000000000002AAC
:100A20002B28000000000000000000000000000073
:100A3000000029000000002C1E342021222434262E
:100A400027252E362D3738271E1F20212223242527
:100A5000263333362E37381F0405060708090A0BDC
:100A60000C0D0E0F101112131415161718191A1B4E
:100A70001C1D2F3130232D350405060708090A0BEC
:100A80000C0D0E0F101112131415161718191A1B2E
:100A90001C1D2F3130354C0000000000000000000C
:100AA0000000000000000000000000000000000046
:100AB00000000000000000000000007E0F00D4FFD6
:100AC000FFFFC7000000780E034C0069006C00793E
:100AD0000035003800000010036C0069006C0069EC
:100AE0000075006D00730000000403090409023B57
:100AF00000020100A0FA090400000103010100093D
:100B000021110100012244000705810308000109A9
:100B1000040100010300000009211101000122323B
:100B200000070582032000011201000200000008F6
:100B3000D8042DEB00010102000105010980A1018B
:100B4000850319012AB700150126B7009501751014
:100B50008100C0050C0901A101850419012AA00228
:100B6000150126A002950175108100C00501090636
:100B7000A101050719E029E7150025019508750170
:100B800081029501750881010507190029FF1500EB
:100B900026FF00950675088100050819012905152D
:100BA000002501950575019102950175039101C01C
:100BB00011241FBECFEFDAE0DEBFCDBF14E0A0E00E
:100BC000B1E0E6E0FCE602C005900D92A631B10767
:100BD000D9F727E0A6E1B4E001C01D92AE3EB2070E
:100BE000E1F70E94AD1A0C94AD350C940000809191
:100BF0006D0490916E048430910591F1F8F40097A2
:100C000031F164E173E08230910519F19F938F9384
:100C10008FE293E09F938F931F9288E18F9389E6F1
:100C200095E09F938F930E94B6328DB79EB708963A
:100C30000FB6F8949EBF0FBE8DBF0FC088309105D0
:100C400019F08E30910511F761E273E002C06BEF8D
:100C500072E089E695E00E94AF3289E695E008955A
:100C600067E073E0F6CF80E091E00895CF93C0E2B3
:100C70008C33910520F4FC01E05BFC4FC0811F9296
:100C8000CF939F938F93FB0180811F928F938181DC
:100C90001F928F938FE393E09F938F931F9288E12E
:100CA0008F938FE294E09F938F930E94B6328DB71B
:100CB0009EB70E960FB6F8949EBF0FBE8DBF809163
:100CC000180490911904449761F410921904109239
:100CD0001804EAE1F4E080E2819394E0EE32F9074F
:100CE000D9F78091180490911904FC01E65EFB4F3E
:100CF000C08301969093190480931804CF910895AE
:100D00008FE294E008958AE194E00895CF93DF9311
:100D1000EC018A81813059F460E08FE491E00E9417
:100D20008724CE010E94AF26DF91CF9108958230B3
:100D3000C1F760E085E491E0F2CFCF93DF93EC015F
:100D40008A81813059F460E08BE391E00E9487242E
:100D5000CE010E94AF26DF91CF9108958230C1F776
:100D600060E081E391E0F2CFCF93DF93EC018A81E1
:100D7000813059F460E08DE291E00E948724CE0139
:100D80000E94AF26DF91CF9108958230C1F760E0D5
:100D900089E291E0F2CF0E94D61D089523E042E05F
:100DA00061E00E94930E0895CF93C82F0E945218BD
:100DB000811101C0C2E08C2FCF9108950E9452187A
:100DC000882389F00E94F70560E00E9469210E9453
:100DD000800660E00E9469210E94830660E00E9414
:100DE000692181E008950E94330660E00E944E214F
:100DF000F8CF0F931F93CF93DF938C01EB018D817D
:100E0000882319F0C8010E94360606342EE712071F
:100E100009F489C000F502349EE7190709F496C069
:100E200060F400348EE7180709F467C008F0A1C029
:100E300001311044C9F1C1E043C0CD8104348EE7D3
:100E4000180709F47DC008F475C060E08DED90E0EE
:100E5000C11150C058C00A342EE7120709F45CC013
:100E600068F4CD8108349EE7190709F44FC070F18A
:100E700060E083E091E0C1113DC045C00C348EE7D5
:100E8000180709F48CC008F47BC00D342EE7120754
:100E900009F48DC00E341E4771F6CD81CC2399F133
:100EA00060E08CEA90E026C08E81807F21F68D8103
:100EB000882309F4C0CF83E390E00E947F08C0E05C
:100EC0008C2FDF91CF911F910F910895CC2309F4BE
:100ED000B2CF60E081E291E00E9487249FEF29E693
:100EE00088E1915020408040E1F700C0000060E0C0
:100EF0008BE191E00E948724E3CFCD8160E081E126
:100F000091E0C111F7CF0E94E70C95CF60E08AE035
:100F100091E0C111EFCFF7CFCD8160E089EF90E094
:100F2000C111E8CFF0CFCD8160E082EF90E0C11138
:100F3000E1CFE9CF60E08BEE90E0C111DBCFE3CFF2
:100F400060E084EE90E0C111D5CFDDCFCD81CC2320
:100F500009F471CF0E94FD1B811108C00E94641E1C
:100F60000E944C1D60E089ED90E0C4CF0E94D61D28
:100F7000F9CFCD8160E082ED90E0CC2321F2BACFB1
:100F8000CD81CC2309F4BFCF60E08BEC90E00E94D0
:100F900087240E94E70C60E087EC90E0ABCFCD8126
:100FA00060E08DEB90E0CC2309F4ADCFA3CFCD81F1
:100FB00060E083EB90E0CC2309F4A5CF9BCF853094
:100FC000B8F46A30A8F4463098F450E096E0699F8F
:100FD000400D511D1124FA019CE3899FE00DF11D84
:100FE0001124EE0FFF1FE75AFE4F8591949108954B
:100FF00081E090E008950E94DF0708959C013A95F2
:1010000021153F4150F5FC01EE27F170BC01662728
:101010007270AC01442754709C012227387094FFF1
:101020000EC080E1EF2B09F480E0672B09F08062AD
:10103000452B09F08064232B89F08068089581E0B6
:10104000EF2B09F480E0672B09F08260452B09F053
:101050008460232B19F08860089580E00895CF9371
:10106000DF93EB010E94FE07FE010995DF91CF910E
:101070000895CF93DF93EC01805E9109089720F0EB
:1010800067EC7CE0209711F46CE87AE0CE010E94D6
:101090002F088C2F0E94010ADF91CF910895CF93E2
:1010A000DF93EC010E94410ACE01805E910908970E
:1010B00020F06EEC7CE0209711F463E97AE0CE0139
:1010C0000E942F08DF91CF9108950F931F93CF9324
:1010D000DF938C01EB010E943908209741F4C8018D
:1010E0000E944F08DF91CF911F910F9108958FE9D2
:1010F0009FE00197F1F700C000002197EECF70E06C
:1011000060E08933910511F460E570E00E946508A4
:10111000089581E008950E948908089581E0089566
:101120000E94F906089508950E9493080895A6E084
:10113000B0E0EDE9F8E00C94253249835A839E83B0
:1011400030914C0489819A8131111AC03E81332338
:1011500099F0222389F00E94330E182F682F89817D
:101160009A810E940F0E69817A81812F0E94331526
:101170002696E3E00C9441320E94210E182FF3CF03
:101180000E94330E69817A81F1CFFC01262F4081C4
:10119000518162817381848195810E9497080895AD
:1011A000CF93DF93EC0161E00E94C508BE010E946D
:1011B0008B08DF91CF910895CF93DF93EC0160E02E
:1011C0000E94C508BE010E949408DF91CF91089546
:1011D00081E008950E94E8080895CF93C82F0E94E7
:1011E000E70C8C2F0E94EA082FEF84E39CE021504B
:1011F00080409040E1F700C00000CF91089581E069
:101200000E94ED080E949B28089580E00E94ED084E
:101210000E94AC2808950F931F93CF93DF938C0106
:1012200061E00E94C508EC01B8010E9401268823F4
:1012300029F061E0C8010E94C508EC01F801858130
:1012400081110E945C1FB801CE010E94900881119B
:1012500006C080E0DF91CF911F910F910895B801F2
:10126000CE010E9429268823A1F3B801CE010E9455
:101270005325882371F3B801CE010E944E238823A1
:1012800041F3B801CE010E942423882311F3B80151
:10129000CE010E94661F8823E1F2F8018581882330
:1012A00061F0C330FCE7DF07E9F058F4C115ECE763
:1012B000DE07A9F0C130DC47B9F0C8010E948E08F2
:1012C000C9CFCB358CE7D807A9F0CC35ECE7DE07E2
:1012D00071F0CA35DC4789F70E947512EECF0E9483
:1012E000FF08B7CF0E947D120E940509B2CF0E946D
:1012F0006B12E3CF0E947912E0CF0E94B1270E94C7
:10130000A6090E94892208950E94AA090E94B62770
:101310000895089581E008950895CF93DF93D82F1D
:101320000E948A09C82F882319F08D2F0E948C09EA
:101330008C2FDF91CF9108950895CF93C82F0E94ED
:1013400089098C2F0E948D09CF91089580E00E9419
:101350009D0908950E94BB260E949D090895CF9380
:101360000E94BB26C82F809147048C1779F0C09348
:1013700047040E9440286093480470934904809376
:101380004A0490934B048C2F0E949D09CF9108959D
:10139000ADE0B0E0EEECF9E00C94263248875987D6
:1013A0006A877B878C879D8791110E94A8111F8275
:1013B00086E0FE013896DE01119601900D928A9525
:1013C000E1F78D8181110DC029813A814B815C81CA
:1013D0006D817E818F810E94EF102D96E2E00C944A
:1013E0004232CE0101960E94D0088111EDCFF5CF97
:1013F000FC012481213021F4808191810E94650EBD
:101400000895CF93C82F882399F08CEF8C0F813AE1
:1014100088F48C2F0E943927882329F08C2F0E9472
:101420007C270E941A128C2F0E9474270E941A1285
:10143000CF91089580E28C0F883048F4C77081E026
:1014400001C0880FCA95EAF70E948811EFCFEBE53B
:10145000EC0FE33040F4F0E0EE53FC4F808190E07D
:101460000E94DA26E5CFC85ACB3110F7EC2FF0E016
:10147000EE0FFF1FE457FC4F808191810E94FF26F1
:10148000D7CF882339F19CEF980F913A28F40E9426
:101490007C270E941A12089590E2980F983050F419
:1014A000877091E001C0990F8A95EAF7892F0E9411
:1014B0008E11EFCF9BE5980F933028F490E080E0F9
:1014C0000E94DA260895885A8B3120F490E080E05B
:1014D0000E94FF2608951F93CF93DF93182FEB01EF
:1014E0000E94010A209739F4812F0E94410ADF915E
:1014F000CF911F9108958FE99FE00197F1F700C008
:1015000000002197EFCF70E060E0893311F460E5CF
:1015100070E00E946B0A0895882321F00E948811D0
:101520000E941A120895882321F00E948E110E94B1
:101530001A120895B0E0A0E0E0EAFAE00C941F323D
:101540006C01D62FC72FFC011581068102950F7003
:101550000E947E11E82E8823F9F0E12E1123E1F09C
:101560008C2F807F803461F080E28D0F883008F10D
:101570008C2F807E803221F4D230D8F00023C9F045
:101580008091860582FF15C082E00E943F120E9472
:101590007E1191E0E82EE926BC2EB2949FE0B9229C
:1015A000FBE0FB15B8F1EB2DF0E0E155FA4C0C94A3
:1015B0001032E12CF1CF0C2F0F70C07F11F002958B
:1015C000007F112399F0002359F080E28D0F8830BD
:1015D00010F0D11107C0802F0E9488110E941A12AA
:1015E0008D2F5AC0802F0E949B11F8CF8D2F0E9403
:1015F000410A002379F080E28D0F883010F0D1117C
:1016000004C0802F0E948E1103C0802F0E94A11160
:101610000E941A12EB2DE850FF0B349720F40E9421
:10162000BB260E949D09EE2089F00E947A1180FD60
:101630000DC0F60115820E9474110E946D0DC60145
:101640000E94A40C0E9474110E947D0DCDB7DEB7DC
:10165000E9E00C943B322C2F2F70F22EC07FC03269
:1016600019F0F29480EFF822DD2341F0D130D1F16E
:10167000112309F444C00023F1F0B2CF8091860514
:1016800082FD15C0112359F0FF2029F08F2D0E94F3
:1016900088110E941A1280E00E94010ABBCF80E0EC
:1016A0000E94410AFF2009F4B5CF8F2DABCF112343
:1016B00069F0011104C08F2D0E948C0AABCF01305C
:1016C00009F0A8CF8F2D0E94C211A4CF0111A2CF83
:1016D0008F2D0E94930A8F2D0E94CE118F2D0E9474
:1016E000B21198CF112321F0063008F093CFE3CF49
:1016F000053008F08FCF8F2D0E94930A8BCF0023E7
:10170000D1F3D93349F43FEF87EE93E03150804075
:101710009040E1F700C000008D2F0E94410A7ACF6F
:101720008C2F86958695837069F0813009F072CF91
:101730008D2F9C2F9370111102C080E090E00E94C9
:10174000FF2668CF8D2F9C2F9370111102C080E06F
:1017500090E00E94DA265ECF8C2F8370A1F51111E4
:1017600059CF4D2F429546954770440F440F2D2F6A
:101770002F7030E0042E02C0220F331F0A94E2F7CC
:1017800090E080E0D4FF09C08FE090E002C0880FB5
:10179000991F4A95E2F780959095C695C695C370B6
:1017A000822B932BC23049F058F4C13019F00E94BB
:1017B000400D30CF0E94370D2DCF0E94490D2ACF0A
:1017C0000E94340D27CF8695112311F08C2F817044
:1017D000882309F41FCF4D2F429546954770440F3B
:1017E000440F2D2F2F7030E0042E02C0220F331F24
:1017F0000A94E2F790E080E0D4FF09C08FE090E027
:1018000002C0880F991F4A95E2F780959095C6957A
:10181000C695C370822B932BC23049F058F4C13067
:1018200019F00E94A80DF6CE0E949F0DF3CE0E94E3
:10183000B10DF0CE0E94550DEDCECF70112329F0E1
:101840008C2F0E946D0D8D2F37CF8D2F0E94930A04
:101850008C2F0E947D0DDECED23F41F160F4D03F4F
:10186000B9F0D13F81F0112309F446C00111B8CE7F
:101870008C2F8F711FC0D33F01F1D43FA1F780910E
:10188000860582FD24C08C2F8F71112311F312C0A5
:10189000112341F0053008F0BDCE8C2F8F710E94CE
:1018A0008F0DB8CE063008F0B5CEF7CF8C2F8F71E4
:1018B0001111CFCF0E946D0DADCE112329F08C2FC9
:1018C0008F710E94610DA6CE0E945C0DA3CE1123E4
:1018D00049F0CF718C2F0E946D0D63E08C2F0E9418
:1018E000211298CE81E00E943F12023008F492CE7D
:1018F00082E00E943F128ECE002359F0D93309F0C6
:101900000BCFEFEFF7EE23E0E150F0402040E1F79E
:1019100001CF8C2F8F719DCF0F931F93CF93DF93A8
:10192000EC01688179818D810E94700E8C010E948A
:10193000BA0D0E94330DB801CE010E949A0ADF91C0
:10194000CF911F910F910895CF93DF93EC018C817C
:10195000882399F0CE010E940B09811111C00E94C9
:101960007E11882351F08D81882339F0809186057E
:1019700082FF03C082E00E943F12DF91CF91089561
:10198000CE010E948C0CCE010E94DC08F6CF882389
:1019900021F00E949B110E941A120895882321F0C1
:1019A0000E94A1110E941A12089590E080E00E9406
:1019B000DA2690E080E00E94FF260E94A8110E9493
:1019C0001A1208950E9484270E94D50C08950E943F
:1019D00095110E94E20C089592959F70963091F0B7
:1019E00058F4925F9F70923058F4803F19F030F4B1
:1019F000883E30F481E008959A5FF4CF843FD1F3BC
:101A000080E00895883EB0F3813FD1F7F3CFFC0129
:101A10002481222339F0808191810E94650E0E94E9
:101A2000EC0C089580E00895A6E0B0E0EAE1FDE066
:101A30000C9426322696E2E00C944232A7E0B0E005
:101A4000E4E2FDE00C9426322796E2E00C94423268
:101A500008950E94280D08950E94290D9093700406
:101A600080936F04089508950E942C0D089520918D
:101A70006F0430917004822B932B0E942C0D0895DB
:101A800020916F0430917004822393230E942C0DC7
:101A9000089520916F0430917004822793270E944B
:101AA0002C0D08950E94CE0608950E94520D909329
:101AB0006E0480936D04089590E080E00E94550DBF
:101AC000089521E030E0A90102C0440F551F8A9516
:101AD000E2F7CA010E94550D089521E030E002C0EE
:101AE000220F331F8A95E2F780916D0490916E0466
:101AF000822B932B0E94550D089521E030E002C007
:101B0000220F331F8A95E2F72095309580916D045E
:101B100090916E04822393230E94550D089521E035
:101B200030E002C0220F331F8A95E2F780916D04E6
:101B300090916E04822793270E94550D089520915D
:101B40006D0430916E04822B932B0E94550D0895E5
:101B500020916D0430916E04822393230E94550DD1
:101B6000089520916D0430916E04822793270E947E
:101B7000550D08950895262F277091E001C0990F03
:101B80002A95EAF723E0769567952A95E1F7660F9F
:101B9000771F660F771FFA01E60FF71F50E040E04E
:101BA000682F70E08191DF0111979B01042E02C024
:101BB000369527950A94E2F7217021952827292345
:101BC00028272C934F5F5F4F4430510559F70895F4
:101BD000A82FA77023E0969587952A95E1F7880F9F
:101BE000991F880F991FFB01E80FF91F50E040E093
:101BF00080E0219130E00A2E02C0369527950A94A4
:101C0000E2F721703327042E01C0220F0A94EAF76D
:101C1000822B4F5F5F4F4430510559F70895262FAF
:101C20009A3070F4863060F4682F70E086E0989FF8
:101C3000600D711D11244DE454E0822F0E94BB0DF4
:101C40000895292F9A3068F4863058F490E06DE4B6
:101C500074E036E0239F800D911D11240E94E80D51
:101C6000089580E00895B0E0A0E0E9E3FEE00C9480
:101C70001F327C0100916D0410916E0480916F04FD
:101C800090917004082B192BCFE0D0E0CC24C394A2
:101C9000D12CBC2EC6010C2E02C0880F991F0A94AD
:101CA000E2F780239123892B49F4219790F7B12CF7
:101CB0008B2DCDB7DEB7E9E00C943B32B7018C2F0A
:101CC0000E943F15019789F3F3CFCF93DF93EC0187
:101CD0000E94330EBE010E943F15DF91CF910895FF
:101CE0001F93CF93DF93EB0190914C04992339F02C
:101CF000CB010E94650EDF91CF911F91089588233B
:101D000069F0CB010E94330E182F682FCE010E947C
:101D10000F0EBE01812F0E943F15EDCFCB010E9417
:101D2000210E182FF6CFE1E0F0E0DF0102C0AA0F8C
:101D3000BB1F6A95E2F7BD01DF0102C0AA0FBB1FFE
:101D40004A95E2F7AD01462B572B02C0EE0FFF1F5D
:101D50002A95E2F79A01282339232417350719F425
:101D60008E2B9F2B0895E095F0958E239F23089549
:101D70001F93CF93DF93C091710417E08091720499
:101D80008C1304C0DF91CF911F910895D0E01C9F68
:101D9000F0011D9FF00D1124ED58FB4F2081318182
:101DA000428153816481758186810E941E0D219636
:101DB000C770E4CF2091AB043091AC044091AD04E6
:101DC0005091AE046091AF047091B0048091B10461
:101DD0000E941E0D0895CF93DF938091B104807F00
:101DE00009F04DC08091B004882309F448C0E09107
:101DF000710450917204C091AC04D091AB04609115
:101E0000AD047091AE0447E05E17C9F18E2F90E0EB
:101E1000E49FF0011124ED58FB4F2481222391F11E
:101E2000489FF001499FF00D1124DF01AD58BB4FD1
:101E300011962C9111972C1325C02C912D1322C093
:101E400015962C91159721111DC012962D913C913C
:101E5000261B370B283C3105A8F48091B1048F7004
:101E600080618093B104E758FB4F80818F7080615F
:101E700080838BEA94E00E94A40C0E94B80EDF914C
:101E8000CF910895FC013196E770BECF482F209185
:101E900071049091720457E0291302C080E0089504
:101EA00030E0529FF001539FF00D1124ED58FB4F8D
:101EB0008181681306C08081481303C08581811128
:101EC000EECF2F5F3F4F2770E7CFA4E1B0E0EBE606
:101ED000FFE00C941C328C0186E0F801DE011F96B5
:101EE00001900D928A95E1F7F8018481E5809BEAE3
:101EF000A92E94E0B92E9091AF0491111FC08823B0
:101F0000D1F0EE20A9F0C8010E94070DF82E882319
:101F100079F087E0F801D50101900D928A95E1F7FB
:101F2000C5010E94F8090E94EB0E0E94DA0E5FC004
:101F3000C8010E94A40CFF24F39459C0C080D18032
:101F400082809380F090B0042091AD043091AE0473
:101F5000A401421B530BFF2009F4F9C0483C510572
:101F600008F0A7C0882309F442C09091AC04809186
:101F7000B104282F207F09F05CC09D1116C09091FC
:101F8000AB04C91212C0E1104EC08F708061809303
:101F9000B1040E94DA0E8BEA94E00E94A40C8091B6
:101FA000B104F8018683F12C22C0E1103CC06D2DF4
:101FB0008C2D0E94460F6D2D8C2D0E94460FE82E11
:101FC0008111F1CFCF86D88A8F8598890E94650EBE
:101FD000292F22952F70243078F49F702230A8F09A
:101FE0009923B9F0F8019681907F99F4FE2C8F2DFA
:101FF0006496ECE00C9438322A5F2F70223068F03F
:10200000C8010E94A40CEF2CF1CF992311F0882372
:1020100069F3805E883050F3F3CF803F38F3815FFF
:10202000833070F7E3CF8091B10481608093B10475
:10203000BACF9D1113C09091AB04C9120FC0E1102B
:102040000DC08683C8010E94A40C87E0F801ABEAAA
:10205000B4E001900D928A95E1F767CFC8010E9424
:10206000070D882309F464CFEE2009F461CF809135
:10207000B104803288F02091AB043091AC043987F0
:1020800028879B868A869091AF049C871D868E87C1
:10209000CE0108960E94A40C87E0F801ABEAB4E0F8
:1020A00001900D928A95E1F70E94EB0E0E94DA0EE4
:1020B00042CF9091B104292F207FA1F4682D9A8AF4
:1020C000898AA6017A899E2D0E94140D8BEA94E0DC
:1020D0000E94A40C87E0F50111928A95E9F70E940D
:1020E000DA0E61CF882309F482CF8091AC048D1180
:1020F00010C08091AB04C8120CC0E1100AC09683D6
:10210000C8010E94A40C87E0F50111928A95E9F7B5
:102110006ECFC8010E94070D882309F409CFEE2075
:1021200009F406CF8091B104803208F4B5CF209134
:10213000AB043091AC043A8329839C828B829091CA
:10214000AF049D831E828F83CE010196A3CF483CAE
:102150005105B8F5882309F4EECEFE2CEE2009F4E3
:10216000E7CE8091AC048D111EC08091AB04C812E3
:102170001AC08091B10480FD0DC0982F907F51F05E
:102180008683903F09F45ECF982F907F905F8F7089
:10219000892B57CF87E0F801ABEAB4E001900D92AC
:1021A0008A95E1F724CFC8010E94070D811174CFF1
:1021B0008091B10481608093B104C8010E94A40C95
:1021C00016CF682D9A8A898AA6017A899E2D0E9447
:1021D000140D87E0F50111928A95E9F7A6CEAEE0DD
:1021E000B0E0E5EFF0E10C942532288739874A8783
:1021F0005B876C877D878E87CE0108960E94650F6E
:102200008823B1F06C85662341F0288539854A859D
:102210005B857D858E850E941E0D17E0809171047F
:102220009091720489133DC02E96E3E00C944132E4
:1022300087E0FE013896DE01119601900D928A9595
:10224000E1F78C85882349F32091720430E0C901BD
:10225000019687709927409171044817190699F0E3
:1022600097E0929FD001939FB00D1124AD58BB4FC2
:10227000FE01319601900D929A95E1F780937204D8
:102280000E94B80ECACF0E94E70C109272041092FE
:10229000710487E0EBEAF4E0DF011D928A95E9F72B
:1022A000BCCF819FC00111248D589B4F0E94650FA8
:1022B000882309F4B9CFE09171041E9FF001112425
:1022C000ED58FB4F208131814281538164817581BA
:1022D00086810E941E0D8091710490E001968770A6
:1022E0009927809371049ACF8091BA048695869538
:1022F000869508958091BA04877008959091BA04E4
:10230000977081E009F480E008958091C6040895F3
:102310009091C604892B8093C6040895809590916E
:10232000C60498239093C60408951092C604089595
:102330008091C50408959091C504892B8093C504AC
:10234000089580959091C50498239093C5040895AD
:102350001092C50408958091BC04089508950E94C8
:10236000AE1108959091BB04292F282331F0809558
:1023700089238093BB040E94AF11089508950E94A1
:10238000BE1108959091BC04292F2823281729F005
:10239000982B9093BC040E94BF1108959091BC04A7
:1023A000292F282331F0809589238093BC040E9433
:1023B000BF1108958091BC04882329F01092BC04B9
:1023C00080E00E94BF1108950F931F93CF93DF9376
:1023D0000091C0021091C102C091C6048091C50451
:1023E000C82B8091BC04882331F0C82B0E9424277D
:1023F00081110E94DA11F801C083C091C002D0910E
:10240000C10248E050E062EB74E0CE010E949932D4
:10241000892B59F088E0FE01A2EBB4E001900D9207
:102420008A95E1F7CE010E94CF26DF91CF911F91CF
:102430000F9108950E94E411089508950E941D12BD
:1024400008959091860592FF11C098E0899F9001B0
:102450001124622B6093BA040E946D0D8091BA041E
:102460008695869586950E941E1208950E946D0D90
:1024700008951092BA0480E00E941E12089590916F
:10248000BA04809589238093BA04282F277069F4B1
:10249000891759F09091860592FF07C08695869519
:1024A00086950E947D0D0E943912089590918605AF
:1024B00092FB222720F9281769F080FB92F990936C
:1024C000860580918505909186050E949E1282E086
:1024D0000E943F1208958091860582FB882780F92B
:1024E00091E089270E945612089581E00E945612B9
:1024F000089580E00E94561208956FEF7FEF90E0FC
:1025000080E00E949735089590E080E00E94633556
:1025100021E0863E9E4F09F020E0822F089582E060
:1025200090E00E945535089583E090E00E94553573
:10253000089584E090E00E9463350895BC0184E032
:1025400090E00E9497350895AB01BC018FE090E0C8
:102550000E948B350895AB01BC0183E190E00E949D
:102560008B35089560E070E0CB010E94AB120895B6
:1025700060E070E0CB010E94A4120E94B2120895A4
:10258000A8E0B0E0E6ECF2E10C94263266EE7EEFD5
:1025900090E080E00E94973560E082E090E00E9449
:1025A000793581E090E09093700480936F0461E04E
:1025B00083E090E00E94793560E074E184E090E08F
:1025C0000E94973560E086E090E00E9479356FEFD9
:1025D00087E090E00E94793540E050E0BA0188E061
:1025E00090E00E948B3560E084E290E00E947935B3
:1025F00060E087E190E00E94793560E08CE090E057
:102600000E94793560E08DE090E00E947935198272
:102610001A821B821C821D821E821F82188648E03D
:1026200050E068E170E0CE0101960E94693540E01B
:1026300050E0BA0180E290E00E948B350E94B8120F
:102640002896E2E00C9442320E94C0120895682F4E
:102650008EE090E00E9479350895A6E0B0E0E3E3D3
:10266000F3E10C9424320E9434288C018091C70439
:102670009091C8048017910781F019821A820E94F4
:102680003428682F49815A81792F80E090E00E9498
:10269000C8091093C8040093C7042696E4E00C947C
:1026A00040320E945B166093D7047093D8048093E5
:1026B000D9049093DA046093D3047093D404809384
:1026C000D5049093D6040895089508950E94641344
:1026D00008950E94CB06089581E0089580E896E170
:1026E0000E94BA1A0E9465130E94661308950E9400
:1026F00052180895089508950E947A130E947B133A
:1027000008950E9483160E949C0908950E942B2818
:102710000E9435160E9458180E94A9170E94811322
:102720000E940C2380E00E9420200E947C1E0E94B8
:1027300074180E94691308950E94521881110E9412
:102740008B260895A6E0B0E0E8EAF3E10C941C3291
:102750000E946C13C82E811112C00E942D13C12C2F
:102760000E949C130E945D1F0E94A722C1100E941C
:102770006F210E94AF092696ECE00C9438320E943B
:10278000CC1789ECA82E84E0B82E750110E0F70173
:1027900001917F01812F0E94A9161F5F1A3009F451
:1027A00041C00817A1F38091DB0481FD0E94AF16A0
:1027B0000E947713982E10E088248394812F0E9422
:1027C000A916082FF50181915F01081729F1D02E74
:1027D000D826F12CEE24E3948D2D8E21A9F099209A
:1027E00099F0F9821A830E9434289C838B838D820E
:1027F00091E0802F8E2109F490E049815A816B810C
:102800007C818D810E94C809F394EE0CF6E0FF12E2
:10281000E3CFF501319700831F5F1A3079F60E94EC
:1028200051139ECF0813BFCF98CF1F93CF93DF9341
:102830000E944415EC01C11580E5D807F0F5C115DB
:1028400080E4D80708F09CC0C03ED10520F5CD3CFF
:10285000D10508F082C0C83AD10578F4C53AD1054F
:1028600008F073C0C130D10519F1209709F1C430C7
:10287000D105F0F4D0E0C0E01BC0C33CD105D0F7D7
:10288000C85AD0E0CC0FDD1FCB53DC4F0990D88164
:10289000C02DD4640DC0C11580E2D80708F0D1C0A6
:1028A000C11581E0D80708F05AC0C83ED10510F71D
:1028B000CE01DF91CF911F910895C03682E5D807F0
:1028C00018F5C03482E5D80708F06BC0C03282E545
:1028D000D80708F05FC0C11582E5D80708F497C093
:1028E0002C2F2695269580E2289F900111248C2F6D
:1028F0008370C1E0D0E002C0CC0FDD1F8A95E2F703
:10290000C22BD32BDD68D4CFC03A82E5D80760F460
:10291000C03882E5D80708F459C0CF71D0E0DC2F69
:10292000CC27C46FD06AC4CFC03C82E5D80708F476
:1029300062C0C03E82E5D80708F09CCFDC2FCC27D0
:10294000CC27DF71C06FD06AB3CFC55AD0E0C55075
:10295000DC4FC881D0E0D064ABCFD065A9CF8D2F3C
:102960000E94E615182FCE0199270E944415C12F09
:10297000D0E0DC2FCC27CC27DF71C82BD92B98CF08
:10298000CE0199270E944415CC27DF70C82BD92B84
:10299000D06A8ECFCF71D0E0DC2FCC27C16FD06A48
:1029A00087CF2C2F26952695277080E2289F9001AF
:1029B00011248C2F8370C1E0D0E002C0CC0FDD1F4A
:1029C0008A95E2F7C22BD32BDC6872CF2C2F269589
:1029D0002695277080E2289F900111248C2F837008
:1029E000C1E0D0E002C0CC0FDD1F8A95E2F7C22B18
:1029F000D32BDA685DCF8C2F8F710E94E615C82F1C
:102A0000D0E0DC2FCC27CC27DF71D06251CF8C2FC8
:102A10008F710E94E61555E0D695C7955A95E1F756
:102A2000CF70D0E0DC2FCC27282F30E084FF05C00A
:102A300044E0220F331F4A95E1F7C22BD32BD06914
:102A400037CF8D2F8F710E94E615182FCE01992751
:102A50000E944415C12FD0E0DC2FCC27CC27DF719A
:102A6000C82BD92BD2CF462F7A3030F4663020F4E1
:102A7000672F0E94FB07089590E080E008950E9470
:102A800033150E941514089582389105B9F1B0F4F8
:102A90008133910509F47DC048F48932910509F428
:102AA0006DC08A32910509F47BC008958533910584
:102AB00009F45FC08933910509F10895833E9105BA
:102AC000D9F138F4803E910529F1823E910579F1E2
:102AD0000895863E9105D9F1873E910509F43EC0DF
:102AE000843E910541F52091860521FF24C0809107
:102AF000850584FD19C087EE90E008952091850535
:102B0000237009F05AC02091860523FF14C089E282
:102B100090E008952091850520FD38C0309186050C
:102B200030FF09C024FF43C090E080E00895209169
:102B3000850522FDF7CF08952091850522FD3AC035
:102B40003091860530FD39C024FFF5CFEDCF2091BF
:102B5000850523FFF0CF24FDE7CFCDCF209185055C
:102B600023FD2EC03091860531FFEECF84EE90E03C
:102B700008952091850525FFDECFC9CF20918505D9
:102B800025FD21C02091860523FFD5CF89E390E064
:102B9000D2CF2091850526FFCECF8AE290E008951E
:102BA0002091850526FFC7CF81E390E0089583EE4D
:102BB00090E0089582EE90E0089580EE90E0089510
:102BC00086EE90E0089585E390E008959091850564
:102BD00092FF10C041E0282F2471243009F040E01A
:102BE00031E0282F2871283009F030E0431711F028
:102BF0002CE0822793FF10C041E0282F247124315C
:102C000009F040E031E0282F2871283109F030E048
:102C1000431711F02CE082273091860530FF10C059
:102C200051E0282F2171213009F050E041E0282F98
:102C30002871283009F040E0541711F029E082276C
:102C400031FF10C041E0282F2171213109F040E00F
:102C500031E0282F2871283109F030E0431711F0B6
:102C600029E0822794FD877E0895109281051092B5
:102C7000820510928305109284050895CF92DF9209
:102C8000EF92FF926B017C010E94521881110EC0DD
:102C90000E944028C61AD70AE80AF90AC09281059C
:102CA000D0928205E0928305F0928405FF90EF9028
:102CB000DF90CF9008950F931F930E94521888239E
:102CC00029F00E9440281F910F9108950E944028EA
:102CD0000091810510918205209183053091840532
:102CE000600F711F821F931FEECF0E94521888231E
:102CF00019F00E94342808950E945B16CB010895B4
:102D000080E0089508950E948412811102C00E94FB
:102D100024130E948F128093DB040E9499129093D7
:102D20008605809385050E9482160E94941290E089
:102D30000E94340D80916D0490916E040E94520D9A
:102D4000089508950E94A116089508950E94A51659
:102D50000895E82FF0E0EE56FA4F80810895089527
:102D600080EA8A95F1F7089500C008950E94B01690
:102D7000089508950E94B9160895A5E0B0E0E3EC27
:102D8000F6E10C9422320E945218F82E60919C05B4
:102D9000882309F440C085E0E82E8E010F5F1F4FA5
:102DA000F8018E2D11928A95E9F7862F90E0B801EF
:102DB0008E569A4F0E9482188823B9F08091870519
:102DC00090E045E050E0B8018E569A4F0E9499324B
:102DD00021E02093DC04892B91F4F12C0E94A616AB
:102DE0008F2D2596E6E00C943E328091DC048823FA
:102DF000A1F3F8011192EA94E9F71092DC04A09192
:102E00008705B0E0AE56BA4F85E0F80101900D920B
:102E10008A95E1F7E3CF70E06E567A4F809187058F
:102E200090E08E569A4F0E9409190E94BA16D8CF88
:102E3000F894E82FE295EF70F0E031A1282F2F7081
:102E400081E090E001C0880F2A95EAF7982F9095CD
:102E5000932391A392A1892B82A378940895CF9371
:102E6000DF93C4E0D4E089918F3F11F00E941817DE
:102E700084E0C930D807B9F7CEEFD3E089918F3F0E
:102E800011F00E94181784E0C430D807B9F7DF9119
:102E9000CF910895B0E0A0E0E0E5F7E10C94203296
:102EA000EC01D62E062F10E0C8018C5F9B4F7C01F1
:102EB000FC0180818F3F09F445C0F894E82FE2952A
:102EC000EF70F0E091A18F7021E030E001C0220F9F
:102ED0008A95EAF7892F822B81A382A12095282346
:102EE00022A378940E94B416EEEFF3E044E054E09D
:102EF00031E0C12C21912F3F51F1A22FA295AF704B
:102F0000B0E090968C9190E02F7002C095958795D7
:102F10002A95E2F780FD1BC0832FC82A330F4E1776
:102F20005F0741F7F70180818F3F11F00E9418176A
:102F300061E0C11001C060E08D2D0E94B616C00F87
:102F4000D11FC882CDB7DEB7E8E00C943C3280E0F8
:102F5000E4CF8091C2028091C20295E0811190E09D
:102F600090939C0585E0891B809387050E942F170D
:102F70008AE0E2E9F5E0DF01982F1D929A95E9F7E2
:102F8000E8E8F5E0DF011D928A95E9F785E00E9407
:102F90000A180E94A2160895AAE0B0E0E2EDF7E157
:102FA0000C9423328E010F5F1F4F8AE0F8011192BB
:102FB0008A95E9F7F12C6F2DC8010E944A17F39406
:102FC000F5E0FF12F8CF4AE050E0B80188E895E05C
:102FD0000E94993221E0009709F420E0892B41F00A
:102FE0008AE0F801A8E8B5E001900D928A95E1F732
:102FF00060919C0570E06E567A4F45E088E895E058
:103000000E940B18182F0E94BD16812B2A96E5E00E
:103010000C943F320895B0E0A0E0E1E1F8E10C94B7
:1030200020326C017B01042FC22F222379F081E032
:103030008093DF040E9434289093DE048093DD04A3
:1030400080E0CDB7DEB7E8E00C943C32D091DF04ED
:10305000DD23B1F38091DD049091DE040E944C28C1
:10306000059770F310E0A801B601C7010E949932DC
:10307000892B31F0A801B601C7010E94A632CD2FDD
:103080001092DF048C2FDDCFCF930E94E331C82F45
:10309000811102C00E94DE318C2FCF910895809162
:1030A000E30408958091E20408950E94521808955F
:1030B0000E9444188093E2040E9455188093E30410
:1030C0000E944F188093C2020E944F1868E0882324
:1030D00049F080E00E94561B0E94521881110E9404
:1030E000B818089588E0F6CF0E945218811102C0E6
:1030F0000E94BB18089581E09091E4049A3008F092
:1031000080E008950F931F93CF93DF93EC018B0121
:103110008091E4048A30B8F4B801CE010E94061907
:10312000C82F811122C08091E4048F3FB9F40E941E
:1031300034289093E1048093E0048C2FDF91CF91A9
:103140001F910F9108958091E0049091E1040E94F5
:103150004C28843F914000F7C0E0EFCF8F5F809311
:10316000E4048A3020F7C1E0E8CF1092E404E5CF10
:103170000E94FD2908950E94002A0895B0E0A0E071
:10318000E4ECF8E10C9421327901C82F880FDD0BB3
:1031900041155105A9F0FE0193E0EE0FFF1F9A952E
:1031A000E1F7ED53FD4F818192818B519B4F20813F
:1031B00030E04217530708F49A01A9010E94A63291
:1031C000CE010E94E92AD82E8823D1F001151105DD
:1031D000B9F083E0CC0FDD1F8A95E1F7FE01ED53D6
:1031E000FD4F438150E00417150708F4A801CD53A3
:1031F000DD4F6C817D816B517B4FC7010E94A632F0
:103200008D2DCDB7DEB7E7E00C943D320E94331A26
:1032100008950E94541A0895A4E0B0E0E2E1F9E1B3
:103220000C942432609108057091090580910A057B
:1032300090910B050E945B2811E0643671058105B1
:10324000910518F10E945B166E5F7F4F8F4F9F4F65
:1032500069837A838B839C8310E000E030E020E078
:1032600044E050E0BE016F5F7F4F82E00E94BE18D5
:10327000182F882351F00E9440286093080570930E
:10328000090580930A0590930B05812F2496E4E0AD
:103290000C944032B0E0A0E0E0E5F9E10C941E327D
:1032A0007C015B016A010E947B1801E010E0882329
:1032B00011F00AE010E0C1E0D0E0B501C701F6016D
:1032C0000995811104C021960C171D072CF4CDB768
:1032D000DEB7EAE00C943A32CC9F9001CD9F300DDE
:1032E000300D112490E080E045E34A95F1F70000AD
:1032F000019682179307C1F7E0CFACE0B0E0E3E8B6
:10330000F9E10C942432CE0101960E94AA1D1B857E
:1033100060910C0570910D0580910E0590910F053F
:103320000E945B28643671058105910510F4112314
:10333000C1F010E000E030E020E04CE050E0BE01E1
:103340006F5F7F4F83E00E94BE18882369F00E9460
:10335000402860930C0570930D0580930E059093A3
:103360000F050E94A71D81E02C96E4E00C944032EA
:10337000A6E0B0E0EEEBF9E10C941E327B01C090C8
:103380000904D0900A0401E010E09E012A5F3F4F3B
:1033900050E040E070E060E080E00E94BE18182F2E
:1033A000882309F448C056018FEFA81AB80A609123
:1033B00004057091050580910605909107050E940E
:1033C0005B28643671058105910568F105E010E020
:1033D0009E012F5F3F4F50E040E070E060E081E0F1
:1033E0000E94BE18D82E65E070E0C5010E940D2332
:1033F00011E09E81981310E01D2141F10E944028A8
:103400006093040570930505809306059093070566
:1034100085E0FE013196AFEFB4E001900D928A9500
:10342000E1F711E013C065E070E0C5010E940D23D3
:103430009E818913CBCF85E0F6013196DE0111968E
:1034400001900D928A95E1F71111E2CF85E0EFEF3F
:10345000F4E0D70101900D928A95E1F7812F26962D
:10346000EAE00C943A320F931F93CF93DF93EC0171
:103470008B0148EB59E10E944A19811106C080E096
:10348000DF91CF911F910F9108954CE059E1B80160
:10349000CE010E944A19882391F34DE759E1B80102
:1034A000CE010E944A19ECCFACE0B0E0EAE5FAE1C7
:1034B0000C9420320091090410910A04C80101966D
:1034C00025E0FB01DC0101900D922A95E1F765E012
:1034D00070E00E940D23F8018083668177818085EA
:1034E0009185C090FB04D090FC04E090FD04F09026
:1034F000FE046C157D058E059F0551F06093FB045D
:103500007093FC048093FD049093FE040E943E1689
:103510008CE0F8013A96DE01119601900D928A95A1
:10352000E1F7F801148A8B85882329F060E0CE0149
:1035300001960E94C51E2C96E8E00C943C320E9435
:10354000B42C0E9486130E94C12C08950E94C62CA0
:103550000E94A2130E94E02C08950E94CD270E9491
:103560009A2C0E946E130E949F1A0E94A61A0E9413
:103570007C13FBCF90931704809316040895EF9269
:10358000FF920F931F93CF93DF93EB01E82FD1119D
:103590000EC0442321F0F0E0EF54FC4FE4916E2F75
:1035A0007E2F8E2FCDB7DEB7E6E00C943E320D2F86
:1035B00010E0282F30E0442329F02F543C4FF9012C
:1035C000249130E0F6E0CF9FC0011124EFEFF0E04E
:1035D000BF010E94FC31AB018C2F90E0880F991F36
:1035E000A5E5A49FB001A59F700D1124861B970B24
:1035F000982F990F980FBF01601B710B629FD0012C
:10360000639FB00D729FB00D11248B2F9D9FB00151
:103610001124672F7727EF01C61BD70BBE01629FCE
:10362000E001639FD00D729FD00D11247F01E91A34
:10363000F108E09EB001E19E700DF09E700D112426
:10364000672F7727E61BF70BE29F8001E39F100DA2
:10365000F29F100D1124E12F722F4230510599F085
:1036600048F44115510569F04130510581F0EB2FC7
:103670008D2F07C04430510569F080F04630510568
:10368000B1F76E2F8FCFE22F7B2F812FFACFE22F52
:103690007D2FF7CFEB2F822F712FF3CF7B2F822F30
:1036A000ED2FEFCF41E00E94BF1A0895E3EEF2E064
:1036B0008083618308950E94521B0895CF93DF9306
:1036C000762FE901682F842F0E945B1B7983688322
:1036D0008A83DF91CF910895453B08F044EB0E9427
:1036E0005E1B089580919D05982F9C7F71F48091B9
:1036F0009D058370846080939D058091A005853B26
:1037000018F084EB8093A0050895883080F7F5CFFA
:10371000B0E0A0E0EEE8FBE10C94203288E090E01D
:103720000E945D356B017C0184E290E00E9455357A
:10373000282F30E040E050E060E070E080E090E072
:1037400000E20E944D32B22FA32FF42FE52FD62F87
:10375000C72F97018601BC29A12BFE295E2F532B71
:103760002B2F3A2F4F2F6D2F7C2FCDB7DEB7E8E0F0
:103770000C943C32B0E0A0E0E0ECFBE10C941C3295
:1037800049015A016B017C010E94721B8401A40152
:103790006A2D7B2D88E090E00E948B3594014A2DA4
:1037A0005B2DB601C70100E20E946832622F84E2FD
:1037B00090E00E947935CDB7DEB7ECE00C9438325A
:1037C000EDE9F5E085E0808311828FEF828384EB61
:1037D00083831482ADE1B5E012968C9112978360D9
:1037E00012968C93758125E030E04FEF54EB60E04A
:1037F000868197810E94BA1B089580919D058170F2
:1038000008959091A105933018F49F5F9093A105BE
:10381000882391F020919D0530919E0540919F0550
:103820005091A0056091A1057091A2058091A3051A
:103830009091A4050E94BA1B089581E00E94011C8A
:1038400008959091A105992319F091509093A105A5
:10385000882391F020919D0530919E0540919F0510
:103860005091A0056091A1057091A2058091A305DA
:103870009091A4050E94BA1B089581E00E94211C2A
:10388000089521E030E001C0220F8A95EAF7909177
:103890002005922381E009F480E0089570E00E9401
:1038A000E0220895A5E0B0E0E8E5FCE10C941A32CE
:1038B0007090E40290919D0590FF16C0C090140591
:1038C000D0901505C114D10409F58091E30233E0CD
:1038D000839FC0011124672D8B559A4F0E944E1C67
:1038E0002596EEE00C9436328091E5022091E602B6
:1038F00033E0839FF0011124EB55FA4F8217F0F665
:103900001182108212828F5F3396F8CF90FFDDCF45
:10391000F12CE12C43E0642E8E2D0E94411C882363
:1039200009F43BC0F701EE0FFF1FEC0DFD1DA59044
:10393000B490A114B10449F245E050E0B501CE01C4
:1039400001960E94833209810F3F39F18A81800FED
:103950009927991F8131910514F080E190E04C0185
:10396000880C991C880D991D9C012B553A4F4901D3
:10397000069D800111240B551A4F0815190520F0DA
:1039800035E0A30EB11CD8CF98014D816C818B819D
:103990000E946C1B0D5F1F4FF0CF8FEFE81AF80AE3
:1039A00028E0E216F10409F0B7CF8FCF90919D0582
:1039B00090FF0EC09091E5022091E60233E0939FC4
:1039C000F0011124EB55FA4F921718F00E94521C87
:1039D00008958183608342839F5F3396F5CFA3E090
:1039E000B0E0E5EFFCE10C942232F82E062F142F04
:1039F000E22E80919D0580FF40C090919E059F1111
:103A000008C090919F05961304C09091A00594174B
:103A100029F090911F05926090931F05E82FE6957D
:103A2000E695F0E0E55FFB4F908190931D058C7F5C
:103A3000843069F49E012F5F3F4F412F602F8F2DFF
:103A40000E946C1B4B8169818A810E94D61CF09276
:103A50009E0500939F051093A005EE2071F0209124
:103A60009D056091A1057091A2053F2DA80180914F
:103A7000A3059091A4050E94BA1B2396E6E00C943E
:103A80003E32EDE9F5E09181282F438162818AE0A1
:103A9000890F0E94EF1C089581E00E94411D089546
:103AA000EDE9F5E09181282F4381628186EF890F4E
:103AB0000E94EF1C089581E00E94501D0895EDE9D9
:103AC000F5E0628121E1620F08F46FEF282F438156
:103AD00081810E94EF1C089581E00E945F1D08957E
:103AE000EDE9F5E0628121E1621B08F460E0282F36
:103AF000438181810E94EF1C089581E00E94701D26
:103B00000895EDE9F5E0438121E1420F08F44FEF1C
:103B1000282F628181810E94EF1C089581E00E941C
:103B2000811D0895EDE9F5E0438121E1421B08F490
:103B300040E0282F628181810E94EF1C089581E07E
:103B40000E94921D089520E00E94EF1C089510929B
:103B50001F05089528E0EDE9F5E0DC0101900D92E4
:103B60002A95E1F740911D0550911E0560911F05B2
:103B700070912005FC014087518762877387089503
:103B8000EDE1F5E011828281846082830895EDE9A0
:103B9000F5E080818E7F80830E94C01DEDE1F5E01D
:103BA0008281816082830E94521C0895EDE9F5E0D4
:103BB00020812E7F208331814281538164817581F0
:103BC000868197810E94BA1B0E94C01DEDE1F5E03D
:103BD0008281816082830E94521C089560919D05BC
:103BE0006695669570E041E050E088EE92E00E94B4
:103BF0008C32892B19F481E080931E050E94751682
:103C0000909317058093160580911F05846080931B
:103C10001F05089520919D0520FF35C02370246065
:103C200020939D0580911F05816080931F05662369
:103C300081F030919E0540919F055091A0056091C3
:103C4000A1057091A2058091A3059091A4050E9401
:103C5000BA1B60919D056695669570E041E050E065
:103C600088EE92E00E948C32892B71F00E94C01D78
:103C700081E0809319054091A00560919F05809196
:103C80009E050E94A31D08950E94EE1DF1CF682F8E
:103C900081E00E940A1E089581E00E94471E089557
:103CA000682F90919D05969596958FEF890F09F451
:103CB00081E00E940A1E089581E00E94501E08952E
:103CC00061E00E940A1E0895EDE9F5E080818160BF
:103CD0008083869586950E94601E089580919D053B
:103CE00080FF03C00E94D61D08950E94641E08959F
:103CF00060E00E940A1E089580911C05811144C055
:103D00000E948412811104C00E9424130E94E01BAF
:103D10000E94881B20939D0530939E0540939F052C
:103D20005093A0056093A1057093A2058093A3050D
:103D30009093A40580911F05836080931F052C7FBD
:103D4000A1F40E94E01B0E94881B20939D053093E4
:103D50009E0540939F055093A0056093A105709325
:103D6000A2058093A3059093A4050E94721B0E9454
:103D7000C01D80919D0580FF04C0869586950E9498
:103D8000781E81E080931C0508951F93CF93DF93E5
:103D9000EC01162F8A8584FF03C09B859093200534
:103DA00080FF0EC0888180FF26C080919D058160C4
:103DB00080939D058881612F869586950E940A1EB5
:103DC0008A8581FF06C0212F4B816A8189810E94EB
:103DD000EF1C8A8582FF05C08985882379F00E94BF
:103DE000EE1D8A8583FF03C081E080931905DF9172
:103DF000CF911F9108950E94C71DE2CF0E94C01D60
:103E0000F0CF80911E05882309F445C080919D055F
:103E10008695869590911D05891B80931805809144
:103E20001905882361F0109219050E947516909368
:103E300017058093160510921B0510921A050E9413
:103E400075162091160530911705AC01421B530BD6
:103E50004F3F5F4700F5409112054423B1F01092A7
:103E600012054091100550911105841B950B8F3F51
:103E70009F4758F4405D5A485093110540931005F0
:103E800080911F05886080931F052053384F309321
:103E900017052093160580911305882361F0109271
:103EA000130580911E05811106C080919D058695A0
:103EB00086950E94781E089508950E94011F089516
:103EC000FA01811101C0FB01099508951F93CF9359
:103ED000DF93EC01FB011581111110C00E948511C7
:103EE0008272FE01E052F847E531F10508F043C067
:103EF000E554FA4C0C9410320E946E1E812FDF9113
:103F0000CF911F9108954CE55EE16CE47EE10E9443
:103F1000601FF4CF4CE45EE16CE57EE1F8CF4BE549
:103F20005DE16CE47DE1F3CF4CE45DE16BE57DE1C7
:103F3000EECF4DE75DE16CE67DE1E9CF4CE65DE17A
:103F40006DE77DE1E4CF4FE95DE16EE87DE1DFCF34
:103F50004EE85DE16FE97DE1DACF4DE35CE16DE1D3
:103F60007CE1D5CF4DE15CE16DE37CE1D0CF81E038
:103F70000E94601EC3CF11E0C1CFAB0124E630E048
:103F8000BC0188E70E94572921E0892B09F020E035
:103F9000822F0895B0E0A0E0E0EDFFE10C94203224
:103FA0006C017B0164E670E088E70E94BD288C010B
:103FB000E601EC0CFD1CCE15DF0561F40E949F2983
:103FC00081E00115110509F080E0CDB7DEB7E8E02A
:103FD0000C943C3217FDF2CFFE01849164E670E050
:103FE0000E9429298C012196E6CF0F931F939B01F4
:103FF00004E610E0AC0160E488E70E94782921E043
:10400000892B09F020E0822F1F910F9108950E94C3
:10401000B72808950895E5EDF5E080E092E0DF012E
:104020009C011D9221503040E1F7F093DC07E093B2
:10403000DB078FEF9FEF90934D0580934C0508951C
:10404000CF930E940A200E94D4068093480580FDE9
:1040500011C080E8809347050E9407206BE070E064
:104060008CEC94E00E94CA1F811106C0C0E08C2F26
:10407000CF91089580E2EECF8091480565E070E031
:1040800081FD27C087EC94E00E94CA1F882371F34A
:104090006DE070E085EB94E00E94CA1FC82F882372
:1040A00029F30E944028605A75418F4F9F4F6093BB
:1040B000D7077093D8078093D9079093DA070E94A7
:1040C0000B2081E080934B0580934A0510924905AF
:1040D000CECF82EC94E0D8CF2091470536E0839F85
:1040E000C0011124629F800D911D1124811522E0D1
:1040F000920714F090E080E08B529A4F9093DC0787
:104100008093DB0708952091DB073091DC072F5C5B
:10411000354040914705642F70E0C9010E94FC3191
:10412000481B463010F4240F311D211582E038075A
:1041300010F030E020E02B523A4F3093DC07209310
:10414000DB0708951F93CF93DF93162F8A3039F43E
:1041500081E00E941B21DF91CF911F9108958D3046
:1041600011F480E0F6CFC091DB07D091DC0796E038
:10417000FE01A1E2B5E001900D929A95E1F7803E33
:10418000B8F086E0FE0111928A95E9F711111CC082
:10419000C091DB07D091DC0746E050E0BE0181E230
:1041A00095E00E949932892BE9F40E948320D3CFB5
:1041B000F6E08F9FB001112469527B4F46E050E03A
:1041C000CE010E948332E2CFE091DB07F091DC0761
:1041D0009F012A5F3F4F2E173F07D1F280818095C4
:1041E0008193F9CFC55DD540CE0125E096958795A1
:1041F0002A95E1F721E030E0A90102C0440F551FE4
:104200008A95E2F7CA0140914C0550914D05842BE7
:10421000952B259645E0D695C7954A95E1F702C0BE
:10422000220F331FCA95E2F7822B932B90934D05F3
:1042300080934C05BACFCF93382FE091DB07F091F4
:10424000DC07E55DF54020914705622F70E0CF0166
:104250000E94FC31281B822F332369F066E00E9404
:10426000F031C82FC15010F4CF91089560E080E282
:104270000E94A220F7CF9F01280F311D2115324047
:1042800018F080E0F0E0E0E08E0F9F2F911D8B5240
:104290009A4F9093DC078093DB07E6CFFF920F9352
:1042A0001F93CF93DF93EC01F62EFC0101900020C9
:1042B000E9F78F0101501109C017D10728F0CDB7D8
:1042C000DEB7E5E00C943F326F2D89910E94A22069
:1042D000F3CF0E944E2181E00E941B21089580911E
:1042E0004B05811103C080914A0508950E94402822
:1042F000605A75418F4F9F4F6093D7077093D807CF
:104300008093D9079093DA0780914A058111EBCF0A
:1043100062E070E083EB94E00E94CA1F882319F3E7
:1043200081E080934A05DFCFA6E0B0E0EAE9F1E260
:104330000C941632182F80914C0590914D05892BC5
:1043400009F180914B058823E9F08091490581119D
:1043500019C00E946F211C821B8222242394312CBD
:1043600003E065E1E62E64E0F62E77E0672E8091AB
:104370004C0590914D05009729F0BC81BB2349F075
:10438000111107C02696E2E10C9432322B812F5F87
:104390002B833B81C32ED12C210102C0440C551C20
:1043A0003A95E2F7920128233923232B79F3809160
:1043B000480580FD3EC08B818295880F8076809372
:1043C000EB02960136952795369527952093EE02B8
:1043D000815E8093EC022093EF0267E070E089EE4B
:1043E00092E00E94BD1F882369F2C60135E0880F64
:1043F000991F3A95E1F72091480520FD28C060E219
:1044000070E08B529A4F0E94F51F882309F4BACFAF
:10441000C2018095909540904C0550904D054822E2
:10442000592250924D0540924C054C814F5F4C8370
:104430009ECF8B81880F880F880F8093EB0210929C
:10444000EE02895F8093EC020093EF02C6CFA7E2F1
:10445000B5E0E0E21D92EA95E9F721E134E03E8320
:104460002D832DE0C22E24E0D22EAD81BE816D9130
:10447000BE83AD83F60121916F01280F392F311DC5
:10448000A9014B525A4F5A834983E62FF0E0E95D68
:10449000FA4F30E020E0762C721A922C022E01C0E6
:1044A000990C0A94EAF769817A81A12CDB01BD900D
:1044B000BD01B920472D4A194770842E042E000CE7
:1044C000550BBB2D01C0BB0F8A94EAF78B2E51957B
:1044D000419551094770552701C0B6944A95EAF7AE
:1044E0008B28B0808B288082A39448E0A412DECF72
:1044F0002F5F3F4F31962830310569F6AD81BE817F
:10450000EA16FB0609F0B1CF60E270E087E295E0C1
:104510007ACF80914A0590914B05911103C091E0AB
:1045200089270895882369F062E070E081EB94E0C8
:104530000E94CA1F811103C080914A0508951092FC
:104540004A0580914A05EBCF0E94DE0608950F933D
:104550001F9380914B05882381F18091D50790911D
:10456000D6070E944C28C29760F00E94342890938E
:10457000D6078093D50760E080E00E946C200E94FF
:10458000A42280E00E94942180914A058823A9F00A
:104590000E9440280091D7071091D8072091D90791
:1045A0003091DA07601B710B820B930B6F3F7F4FCB
:1045B0008F4F9F4710F40E9489221F910F910895F9
:1045C000539A4BB1477F5BB15860EFB7F8949B01AA
:1045D000220F331F260F371F280F391F28173907BF
:1045E00041F4EFBF8FE594E00197F1F700C00000C0
:1045F0000895DC016D91CD0178E05BB9000000C049
:1046000067FF4BB9660F000000C000C000C04BB987
:1046100000C07A9591F7E2CF0895FC01680F791FE9
:104620008FEF91E36E177F0709F408952191822798
:1046300028E030E087FF06C0880F89272150310924
:10464000C9F7F0CF880FFACFCF93DF93EB01863114
:104650009C4711F50E9485119D81992399F08A7AD2
:1046600091E009F490E090934E05811109C089E230
:104670000E9474270E941A1280E0DF91CF91089562
:1046800085E3F6CF80914E05811104C089E20E9436
:104690007C27F0CF85E3FBCF81E0EFCFCF93DF9393
:1046A000EC01FB018581882309F4D2C09E013057BB
:1046B0002332310508F0B2C00E949912909386050A
:1046C00080938505FE01E150F047E232F10520F4C8
:1046D000E053FA4C0C9410328091850581608093F0
:1046E000850593C0809186058860809386058DC07E
:1046F000809185058260F3CF809185058460EFCF3E
:10470000809185058860EBCF809186058160EDCF33
:10471000809186058260E9CF809185058061DFCF39
:10472000809185058062DBCF809185058064D7CF3D
:104730000E94E70C809185058068D1CF8091850526
:104740008C60CDCF809186058360CFCF8091850529
:104750008E7FC5CF80918605877FC7CF80918505E5
:104760008D7FBDCF809185058B7FB9CF80918505E9
:10477000877FB5CF809186058E7FB7CF80918605E4
:104780008D7FB3CF809185058F7EA9CF80918505E0
:104790008F7DA5CF809185058F7BA1CF0E94E70CEF
:1047A000809185058F779BCF80918505837F97CFFB
:1047B000809186058C7F99CF8091850582FB992712
:1047C00090F921E0922790FB82F990FB83F987CF43
:1047D00080918605982F909591708E7F892B90FB04
:1047E00081F983CF90918505892F8F7B96FF806417
:1047F00076CF0E94E70C90918505892F97FB87F96A
:1048000080586DCF81E00E9427138091850590919B
:1048100086050E949E120E94E70C80E0DF91CF91F6
:10482000089580E0F0CF90918505892F8F7E94FFC9
:10483000806155CF90918505892F8E7F90FF816093
:104840004ECF90918605892F877F93FF88604DCF4B
:1048500081E0E4CFB0E0A0E0E0E3F4E20C942132A8
:10486000E82FF0E0E95EF54FD490282F26952695A5
:10487000269530E0F901E954F54F0491877010E076
:10488000082E02C0159507950A94E2F701701127CA
:10489000F901E955F54FE490F12C082E02C0F5948A
:1048A000E7940A94E2F791E0E922FF24F901E9563E
:1048B000F54FC491D0E002C0D595C7958A95E2F72F
:1048C000C170DD270115110519F081EE0E94010A62
:1048D000E114F10419F086EE0E94010A8D2D0E9468
:1048E000830AE114F10419F086EE0E94410A0115D1
:1048F000110519F081EE0E94410ACD2B19F08CE2CE
:104900000E94830ACDB7DEB7E7E00C943D32EF9208
:10491000FF920F931F93CF93DF938C01F62E8AE0C3
:10492000E82EF8018491882309F454C0813009F0FD
:104930004DC0E8012196FE018491813091F42196C9
:10494000FE0184910E94830A8E010F5F1F4F8F2DFD
:10495000815038F3EFE9FFE03197F1F700C0000034
:10496000F7CF823039F4E8012296FE0184910E944B
:10497000010AEACF833039F4E8012296FE018491DE
:104980000E94410AE1CF8430F9F6E8012296FE0147
:10499000249190E080E0FE0131962053330B2A30C1
:1049A000310548F0019780F2EFE9FFE03197F1F728
:1049B00000C00000F7CFE89EA001E99E500D112431
:1049C000C901840F951F2491EF01E5CF0E942A248D
:1049D000E801BACFCDB7DEB7E6E00C943E320F93D4
:1049E0001F93CF93DF93C42FD22FFC01858188239F
:1049F000C9F0409351050E9434289093500580934C
:104A00004F0580E28C0F883040F4C77081E001C010
:104A1000880FCA95EAF70E948C0ADF91CF911F9107
:104A20000F91089510915105141332C080914F05D4
:104A3000909150050E944C28883C910548F5C0E2B1
:104A4000CD0F1D17B9F080E2810F883040F4177048
:104A500081E001C0880F1A95EAF70E94930AC830D6
:104A600048F481E09D2F977001C0880F9A95EAF76E
:104A70000E948C0A802F0E94830AC83070F6D7707B
:104A800081E001C0880FDA95EAF70E94930AC5CF4A
:104A900080E28C0F883008F6C77081E001C0880F73
:104AA000CA95EAF7F2CF0F93DB0188519C47873014
:104AB0009105A0F5FC01EE50FA4C0C94103206E280
:104AC00021EE41EE6AE17CE7CD010E94EF2480E017
:104AD0000F91089507E225EE45EE6BE17CE7F4CFF8
:104AE00006E221EE40EE68E17CE7EECF07E225EE3C
:104AF00044EE69E17CE7E8CF06E221EE42EE6CE1AC
:104B00007CE7E2CF07E225EE46EE6DE17CE7DCCF05
:104B100008E221E045EE6EE17CE7D6CF15968C9158
:104B2000882319F010925105D3CF81E0D1CF4115E0
:104B3000510511F0FA0109950895CF93DF93EC0127
:104B40004A855B856E857F850E9497258B810E94B3
:104B5000A1118C810E948E110E941A1286E0FE0122
:104B600011928A95E9F7DF91CF910895CF93DF9362
:104B7000EC018D8181FD11C082608D838B810E944B
:104B80009B118C810E9488110E941A1248855985B8
:104B90006E857F85CE010E94972510925505109253
:104BA00054058D8180FD03C0CE010E949D25DF91BB
:104BB000CF910895CF93DF93EC018A81823041F445
:104BC000FB01828193810E9439088D8182608D83EF
:104BD000DF91CF910895FB01808191810E94390876
:104BE0000895FC018281813031F4FB018081918143
:104BF0000E944F0808958230E9F7FB01828193817A
:104C0000F7CFCF93FB01C581CC23F1F0E0915405A0
:104C1000F09155053097D9F0E817F907C1F0FF2753
:104C200024E0EE0FFF1F2A95E1F7DF01AB5BBE4FDB
:104C30002C9124602C93E05CFE4F91838083CF0104
:104C40000E94B6250E94A8118C2FCF910895C0E034
:104C5000FBCF0F931F93CF93DF938C0197558F3F1B
:104C6000910509F0C8F5C801992724E0880F991F1C
:104C70002A95E1F7EC01C05CDE4FFB012581FC01C8
:104C8000EB5BFE4F808120FB80F98083222351F172
:104C90000E94342890935305809352058A818F5F38
:104CA0008A830E9485118B830E9498119B81892B96
:104CB0008B830E94AB118C834E815F816E857F85D3
:104CC000CE010E9497258D8181FF02C010E000E097
:104CD000109355050093540581E0DF91CF911F910A
:104CE0000F9108954C855D856E857F85CE010E946C
:104CF00097258D8181FFF0CFCE010E949D25809167
:104D00005405909155058017910731F7109255057C
:104D100010925405E1CF8091540590915505892B4F
:104D2000E9F080915205909153050E944C28893CEE
:104D30009105A0F08091540590915505992724E0A4
:104D4000880F991F2A95E1F7FC01EB5BFE4F20814C
:104D500022FD04C0805C9E4F0E94B62508951092EB
:104D60005505109254050E949D25089590935C0569
:104D700080935B0508950E945218811103C08091B1
:104D800056050895E0915B05F0915C05309729F098
:104D90000190F081E02D0995089580E00895E0915B
:104DA0005B05F0915C05309721F00280F381E02DE6
:104DB00009950895A3E0B0E0E0EEF6E20C94263207
:104DC0002091590530915A0528173907A1F0909381
:104DD0005A0580935905E0915B05F0915C05309789
:104DE00051F023E029839B838A830084F185E02DA1
:104DF000CE01019609952396E2E00C944232A3E09D
:104E0000B0E0E5E0F7E20C942632209157053091AE
:104E1000580528173907A1F0909358058093570536
:104E2000E0915B05F0915C05309751F024E0298317
:104E30009B838A830084F185E02DCE01019609953C
:104E40002396E2E00C9442324091C0025091C1029C
:104E50009A012E5F3F4F485F5F4F80E02417350770
:104E600009F40895F90191919F019923B9F38F5F96
:104E7000F5CF882371F02091C0023091C102F90171
:104E80003296285F3F4F9191981729F0E217F30768
:104E9000D1F780E0089581E008959C01FC013296ED
:104EA0009FEF80E04191461751F09F3F19F4411167
:104EB00001C0982F8F5F8630A9F79F3F09F40895AE
:104EC000290F311D97FD3A95F90162830895FC0180
:104ED000329608962191261303C0DF0111971C9288
:104EE000E817F907B9F70895682F8091C0029091EB
:104EF000C1020E944D270895682F8091C0029091B1
:104F0000C1020E9467270895E091C002F091C1029A
:104F1000329686E0DF011D928A95E9F7089508959B
:104F20000E948F270895811106C081E080935D055E
:104F30000E949027089582E0F9CF83E080935D0579
:104F40000E94902708950E949327089581E08093FE
:104F50005D050E94902708950E94A6270895089550
:104F600008950E94B0270895089508950E94AF27DC
:104F70000895CF930E94B4270E94CC170E94B527B2
:104F8000C0E08C2F0E94A916811105C0CF5FCA30E6
:104F9000C1F7CF91089581E0FCCF85B7806885BFC8
:104FA00085B7806885BF08951F921FB61F92112490
:104FB0008F939F93AF93BF9380915E05811113C030
:104FC0008091DD079091DE07A091DF07B091E007A7
:104FD0004196A11DB11D8093DD079093DE07A0933C
:104FE000DF07B093E007BF91AF919F918F911F9022
:104FF0001FBE1F9018958091E507843031F10E9403
:105000007D0910925E0588E190E020E40FB6F894E7
:10501000A895809360000FBE2093600083B7817FC6
:10502000846083BF83B7816083BF7894889583B79A
:105030008E7F83BF0FB6F894A89580916000886139
:1050400080936000109260000FBE08950E94E70CEC
:105050000E948409089582E084BD93E095BD9AEF93
:1050600097BD80936E0008952FB7F8948091DD0767
:105070009091DE07A091DF07B091E0072FBF089560
:105080002FB7F8946091DD077091DE078091DF07FC
:105090009091E0072FBF08959C014FB7F89480913D
:1050A000DD079091DE07A091DF07B091E0074FBFC9
:1050B000821B930B0895CF92DF92EF92FF922FB74E
:1050C000F894C090DD07D090DE07E090DF07F09005
:1050D000E0072FBFA7019601261B370B480B590B82
:1050E000CA01B901FF90EF90DF90CF9008957894B6
:1050F0001F921FB61F9211248F939F93AF93BF935C
:105100008091DD079091DE07A091DF07B091E00765
:105110000196A11DB11D8093DD079093DE07A0933A
:10512000DF07B093E007BF91AF919F918F911F90E0
:105130001FBE1F90189587E797E79093010880930B
:10514000000888E19AE00FB6F894A8958093600073
:105150000FBE90936000FFCF88E19AE00FB6F894FD
:10516000A895809360000FBE90936000FFCF1092CF
:10517000B9008CE08093B8000895B0E0A0E0E3ECC3
:10518000F8E20C941D32B82EEB010E9434286C0119
:10519000EE24E394F12CC431D10560F025E0E22E39
:1051A000F12CCF3FDC0731F0CE0164E170E00E94CA
:1051B000FC317B0184EAA82E94E8992E1092BC0061
:1051C000A092BC000E9434288C018091BC0087FF13
:1051D0000DC08091B900887F8830F9F08091B900C6
:1051E000887F8031D1F00FEF1FEF08C0C8010E9407
:1051F0004C28E816F90648F70EEF1FEFCF3FDC0703
:10520000E9F2C6010E944C28C817D907B8F6C801B0
:10521000CDB7DEB7EBE00C943932B092BB00909280
:10522000BC000E9434288C018091BC0087FF0AC01A
:105230008091B900887F883111F08034A1F610E0A8
:1052400000E0E5CFC8010E944C28E816F90660F797
:10525000D3CF0F931F93CF93DF93EB018093BB00CA
:1052600084E88093BC000E9434288C018091BC00AB
:1052700087FF11C02091B900287F81E090E028329B
:1052800011F490E080E0919581959109DF91CF91A3
:105290001F910F910895CF3FDC0741F3C8010E9491
:1052A0004C28C817D90710F78EEF9FEFEFCFB0E06B
:1052B000A0E0EDE5F9E20C9420326B018A0179015E
:1052C000B9010E94BD28E6010C0D1D1DC017D107B4
:1052D00011F097FF08C024E92093BC00CDB7DEB7DA
:1052E000E8E00C943C32B70189910E942929EECF65
:1052F000B0E0A0E0EEE7F9E20C942032C62F6A019C
:105300007901B8010E94BD2897FD0CC0B8018C2F0F
:105310000E942929E601EC0CFD1CCE15DF0511F0D9
:1053200097FF08C024E92093BC00CDB7DEB7E8E0C2
:105330000C943C32B80189910E942929EECF84E96E
:105340008093BC0008958EE14A9B02C08150E1F732
:105350004A9BFECF08955A9880E28A95F1F75A9AAF
:105360000895FC013BE03A95F1F798E020E080E0F9
:1053700031E040E14A95F1F7880F4A9B02C0816015
:10538000232742E04A95F1F7000040E14A95F1F702
:10539000915079F790E19A95F1F799B132E03A9509
:1053A000F1F7000040E14A95F1F792FB992790F957
:1053B00092272081920F90830895A1E0B0E0E3EE60
:1053C000F9E20C94223219828C017C01E60EF11C68
:1053D0000E151F0541F481E09981911180E021961D
:1053E000E6E00C943E320E94A329CE0101960E9471
:1053F000B129F80181938F01EBCF529A5A9A0895FF
:1054000052985A9AEA9AE9E6F0E080818F7C80838C
:1054100008956150770B91E001C0990F6A95EAF702
:1054200020E031E0911108C0222391F05A9A80E2E5
:105430008A95F1F75A980895492F482339F05A9AD6
:10544000232740E24A95F1F79695ECCF5A98F9CF89
:105450005A98EDCFFF920F931F93CF93DF93EC01F8
:105460008C01060F111DC017D10729F4CDB7DEB787
:10547000E5E00C943F32F9900E94AB2968E08F2D53
:105480000E94092AF0CF1F920F920FB60F9211249B
:105490000F931F932F933F934F935F936F937F933C
:1054A0008F939F93AF93BF93EF93FF93CF93DF932C
:1054B0000F92CDB7DEB719820E94A329CE010196C3
:1054C0000E94B129082F069506950695282F22954A
:1054D0002570902F9570290F922F93702695269501
:1054E000920F982797708981982B09F05CC005303E
:1054F00008F059C080E18A95F1F75A9A529A82E0F1
:105500008A95F1F700C05A9888E0089F800111241D
:10551000D801AD53BD4F1696ED91FC91179730977A
:10552000A9F06091090470910A0414962D913C91A0
:105530001597260F371F11968D919C911297680F22
:10554000791F13964C9113978C910995F801ED539F
:10555000FD4F6381662351F02091090430910A04C4
:1055600084819581820F931F0E942A2A0E94AB2971
:1055700080E18A95F1F75A9852985A9A80E18A9573
:10558000F1F7F801ED53FD4F6081662351F0209152
:10559000090430910A0481819281820F931F0E9435
:1055A000DD290E94A3290F90DF91CF91FF91EF9108
:1055B000BF91AF919F918F917F916F915F914F912B
:1055C0003F912F911F910F910F900FBE0F901F9041
:1055D00018950F931F93CF93DF93EC0105970CF071
:1055E0004CC0F894529A5A9885E08A95F1F70000D9
:1055F0009C2F969595708C2F8570980F892F8370AE
:105600009695969523E0CC0FDD1F2A95E1F7980F2C
:105610008E01092B0E94AB2900C068E0802F0E94F8
:10562000092A80E18A95F1F752985A9A4A9B1EC03E
:1056300087E090E04A991CC0FE01ED53FD4F638165
:105640006623F9F02091090430910A048481958140
:10565000820F931F0E94DD29811113C0529A5A9A1A
:105660007894DF91CF911F910F91089500C0DECF04
:10567000019729F4529A5A9A789480E0F2CF00C0A8
:10568000D9CF0E94A32980E28A95F1F75A98529ABD
:1056900080E18A95F1F7CD53DD4F6881662351F0A3
:1056A0002091090430910A0489819A81820F931F05
:1056B0000E942A2A0E94AB29789481E0D2CF80915F
:1056C00067050895089508959B01BA019091E50733
:1056D0009430E9F48F708093E9009FEF8091E800A7
:1056E000915085FD06C085ED8A95F1F70000911176
:1056F000F5CF8091E80085FF0AC050E040E0C90185
:105700000E94572D8091E8008E778093E8000895DD
:1057100043E050E0BC0182E00E94642B0895CF93E7
:10572000DF93EC0148E050E0BC0181E00E94642B73
:1057300088E0FE01AFE5B5E001900D928A95E1F7B2
:10574000DF91CF9108958091E407811109C00E94F3
:10575000E72E0E94442F8091E20084608093E20053
:1057600008951092E40708950E94A6270895609175
:10577000E10781E0611101C080E00E949D2708954A
:105780009091E50781E0943009F080E06091E107B5
:105790000E94A327089542E061EC81E00E94632EFD
:1057A00042E261EC82E00E94632E9091E50781E085
:1057B000943009F080E06091E1070E9493270895FA
:1057C0008091E707833009F461C030F48130D1F172
:1057D000823009F49EC008958A3009F48AC08B3063
:1057E00009F46FC0893009F050C08091E60781321A
:1057F00009F04BC08091EA079091EB07029708F0FF
:1058000044C08091E800877F8093E8008091E800A1
:1058100082FF37C09091F3008091F200029731F43B
:105820008091F100813011F0863021F48091F100F7
:10583000809367058091E8008B778093E8000E9451
:10584000972E23C08091E607813AF9F48091E80011
:10585000877F8093E8008091EA079091EB07892B7E
:1058600061F468E08FE595E070E00E94A62D8091DC
:10587000E8008B778093E800089560E090E080E096
:10588000F3CF8091E5078111C1CF08958091E6079C
:10589000813AD9F78091EA079091EB07892BA9F714
:1058A0008091E800877F8093E8008091E80080FF86
:1058B000FCCF8091FA028093F1008091E8008E770E
:1058C000BCCF8091E607813201F78091EA07909181
:1058D000EB07892BD1F68091E800877F8093E80061
:1058E0000E94972E8091E8078093FA020E94E70CAD
:1058F00008958091E607813241F68091E800877F24
:105900008093E8000E94972E8091E90780936805B4
:1059100008958091E607813A09F0B7CF8091E800B9
:10592000877F8093E8008091E80080FFFCCF809122
:105930006805C1CF84B7877F84BF0FB6F894A89558
:1059400080916000886180936000109260000FBEBB
:1059500080E890E00FB6F894809361009093610026
:105960000FBE0E94AC2708950E94E72E0E94442F8C
:10597000E2EEF0E080818460808378940E94C331FD
:10598000089580EF92E00E94B62608958091E50781
:10599000853031F48091E507853019F00E94262882
:1059A00008950E94FB278091E307882399F30E94C2
:1059B000B927882379F30E94412D0E94E70CEACF92
:1059C00008959A014091EC075091ED070E94E92C4F
:1059D0000895492F55274330510519F168F4413096
:1059E000510509F444C04230510509F445C090E026
:1059F00080E050E040E025C04132510549F142329B
:105A00005105A9F784E490E04CE65BE0611571056F
:105A1000C1F082E390E04AE35BE06130710589F018
:105A2000E6CF99278130910581F0009729F0029700
:105A3000F1F6E7ECFAE002C0E9EEFAE0849190E0DA
:105A4000AF01F901518340830895E7EDFAE0F6CF05
:105A500089E090E04FEF5AE06115710591F389E01C
:105A600090E048E15BE06130710559F3C0CF82E11D
:105A700090E048E25BE0E5CF8BE390E04DEE5AE04A
:105A8000E0CF80E189BD82E189BD09B400FEFDCF90
:105A90008091D8008F7D8093D8008091E000826053
:105AA0008093E0008091E00081FDFCCF0895AF92EB
:105AB000BF92CF92DF92FF920F931F93CF93DF930A
:105AC0006C01EB018A010E94B62EF82E811123C0D1
:105AD0000115110539F0F80180819181C81BD90B9E
