:100000000C94D1050C94EE050C94EE050C949D2AED
:100010000C94EE050C94EE050C94EE050C94EE0594
:100020000C94EE050C94EE050C94BE2F0C949130BC
:100030000C942A280C94EE050C94EE050C94EE0515
:100040000C94EE050C94EE050C94EE050C94EE0564
:100050000C94EE050C94CF280C94EE050C94EE0550
:100060000C94EE050C94EE050C94EE050C94EE0544
:100070000C94EE050C94EE050C94EE050C94EE0534
:100080000C94EE050C94EE050C94EE050C94EE0524
:100090000C94EE050C94EE050C94EE050C94EE0514
:1000A0000C94EE050C94EE050C94EE050102E001B3
:1000B000012B000102E00102E101011A000102E04E
:1000C0000102E101010700010136000102E0010126
:1000D0001C000102E201012C00010139000102E3D0
:1000E000010107000102E3010151000102E30101E6
:1000F00052000102E201013D000102E00102E201C1
:100100000119000102E0010219000102E0010206EA
:10011000000102E00102E2010117000101320001C9
:100120000134000102E10101320103E1000102E1B9
:100130000101260103E1000102E10101340103E1B3
:10014000000102E10101250103E1004C001E001F36
:1001500000200021002200417E08570A570B571348
:10016000001C002B2204001200080018440C00039D
:1001700000095714000D000E001B000000E2004AA9
:100180007E2C412924045746002700260025002400
:100190000023002F220F000B0006000A0009002A8E
:1001A0000016000257170015000700E7001D001990
:1001B000001A00100005000000497E06572842364C
:1001C00021055701003A003B003C003D003E000184
:1001D0000000000000E2002B000000010000000011
:1001E00000477E487E000001000000000000000083
:1001F00000000000000100010001000100000000FB
:100200000043004200410040003F00A90000000000
:1002100000000000000000A8000F570E570D570007
:10022000570C57AA0000000000000000000000006A
:1002300000010001000100010000000000000000BA
:100240000000000000000001004A004B00460000D2
:1002500000000001001057115712570157135701A2
:1002600000010001004B004E00E000000001000111
:10027000000000000000002A000000000000000054
:100280000000000000467E457E437E427E447E01A3
:10029000004F00520051005000407E00000000005E
:1002A000000000000000000000000000000000004E
:1002B000000000000000000000000000000000003E
:1002C0007C00000000000000002078017C0000009D
:1002D000000000000000000000000000000000001E
:1002E000000000000000000000000000000000000E
:1002F0000000000000000000000000007C00000082
:1003000000000000000000017C0000000000000070
:1003100000000000000000000000000000000000DD
:1003200000000000000000000000000000000000CD
:1003300000000000000000000000000000000000BD
:1003400000000000000000000000000000000000AD
:10035000000000000000000000000000000000009D
:10036000000100000000000000000000000000008C
:10037000000000000000002600250024000000010D
:1003800000000023002200210027000000000020C0
:10039000001F001E0000000000000000000100001F
:1003A000000000000101010101010101010202023E
:1003B0000202020202020303030303030303040411
:1003C00004040404040505050505060606060607DB
:1003D0000707070708080808090909090A0A0A0B94
:1003E0000B0B0C0C0C0D0D0D0E0E0E0F0F0F101035
:1003F00011111112121313141415151616171718BC
:100400001819191A1A1B1B1C1D1D1E1E1F20202126
:100410002222232424252626272829292A2B2C2D6D
:100420002D2E2F30313232333435363738393A3B8E
:100430003C3D3E3F404142434445464748494A4C83
:100440004D4E4F50515354555658595A5B5D5E5F4F
:10045000616264656668696B6C6D6F7072737577E5
:10046000787A7B7D7E8082838587888A8C8E8F9147
:10047000939596989A9C9EA0A2A3A5A7A9ABADAF71
:10048000B1B3B5B7BABCBEC0C2C4C6C9CBCDCFD15B
:10049000D4D6D8DBDDDFE2E4E7E9EBEEF0F3F5F804
:1004A000FAFDFF00AE00AF00DA0281FFD9F1DB20D8
:1004B000A4A62EAF00A0C0D30000A1C8D30000AEF8
:1004C000D580A81F408D1420000000000000003ED1
:1004D0005B4F5B3E003E6B4F6B3E001C3E7C3E1C08
:1004E00000183C7E3C18001C577D571C001C5E7F8A
:1004F0005E1C0000183C180000FFE7C3E7FF000087
:100500001824180000FFE7DBE7FF0030483A060E2A
:1005100000262979292600407F05050700407F0530
:10052000253F005A3CE73C5A007F3E1C1C0800084F
:100530001C1C3E7F0014227F2214005F5F005F5F5F
:100540000006097F017F00006689956A006060608F
:1005500060600094A2FFA2940008047E04080010CA
:10056000207E20100008082A1C0800081C2A080801
:10057000001E10101010000C1E0C1E0C0030383E17
:10058000383000060E3E0E0600000000000000009D
:10059000005F000000000700070000147F147F14B4
:1005A00000242A7F2A120023130864620036495669
:1005B000205000000807030000001C22410000003A
:1005C00041221C00002A1C7F1C2A0008083E080843
:1005D0000000807030000008080808080000006073
:1005E0006000002010080402003E5149453E000012
:1005F000427F4000007249494946002141494D333C
:10060000001814127F10002745454539003C4A491F
:100610004931004121110907003649494936004650
:100620004949291E00000014000000004034000069
:100630000000081422410014141414140000412274
:100640001408000201590906003E415D594E007C24
:100650001211127C007F49494936003E4141412236
:10066000007F4141413E007F49494941007F0909DE
:100670000901003E41415173007F0808087F0000D6
:10068000417F4100002040413F01007F081422418A
:10069000007F40404040007F021C027F007F040832
:1006A000107F003E4141413E007F09090906003E9E
:1006B0004151215E007F09192946002649494932E6
:1006C0000003017F0103003F4040403F001F2040E6
:1006D000201F003F4038403F0063140814630003AC
:1006E00004780403006159494D4300007F414141B2
:1006F00000020408102000004141417F0004020173
:100700000204004040404040000003070800002071
:1007100054547840007F28444438003844444428E6
:1007200000384444287F0038545454180000087E90
:100730000902001824241C78007F080404780000B3
:10074000447D4000002040403D00007F10284400D0
:100750000000417F4000007C04780478007C08049D
:100760000478003844444438007C182424180018C5
:100770002424187C007C08040408004854545424A1
:100780000004043F4424003C4040207C001C2040E6
:10079000201C003C4030403C004428102844004CC1
:1007A0009090907C004464544C4400000836410012
:1007B000000000770000000041360800000201023E
:1007C0000402003C2623263C00000000000080803C
:1007D0008080000000000080E070180C1830E0807D
:1007E000000010F8901030783010B8FC381000007D
:1007F00000000000F8FCF80000000000000000000D
:10080000000000001C9C1C00000000F8FCF8000028
:10081000000000001CFCF8C000000000000080E0A8
:10082000F87C1C000000F0FCFCFC1C1C1C1C1C1CAC
:100830001C1C000000000000C0F0F8381C1C1C1C30
:100840001C1C3CF8F0E000E0F0F0F0E0ECEEF7F318
:100850007020007C7C7C7E007E7E7E7F7F7F00001F
:1008600080C0E07E5B4F5BFEC00000C000DCD7DED6
:10087000DEDED7DC00C00000000000000000000049
:1008800000000000000000000000000000000FBC9D
:10089000E0818181838382870C183060C000001F53
:1008A000FE90B9FFBB91983C1811133F1100000056
:1008B00000000000FFFFFF0000000000000000003B
:1008C00000000000FFFFFF00000000FFFFFF00002E
:1008D000000000000000030F7FF8E080F0FC3F0FF5
:1008E0000100000000003F3F3F1C1C1C1C1C3C780A
:1008F000F8F0E08000000000C3E7FF7E3C38787825
:100900007070F8FFDF87000F1F3F7F7F7F7F7F3F83
:100910001E0C001F1F1F3F003F3F3F7F7F7F0030A7
:100920007B7F7830202030787F3B0003000F7F0FE3
:100930000F0F7F0F00030000000000000000000008
:10094000000000000000000000183C24666341C164
:100950008180808080808081C14162386C4CC681FA
:1009600081808080808081C14362361C1800000035
:1009700000000000FFFFFFC0C0C0C0C0C0C0C0C0BA
:10098000800000007FFF7F000000007FFFFFC0802D
:10099000000000E0E0C0C0C0E0F97F1F07000000D9
:1009A00000000000000070F0E0E0C0C0C0C0E0F057
:1009B000F87F3F0F0000000F3F7FF9E0E0C0C0C0AC
:1009C000C0C0E0F97F3F1F000000000000000000F1
:1009D0000000000000000000000000000000000017
:1009E0000000000000000000000000000000000007
:1009F00000000000000000000000000000000000F7
:100A000000000000000000000000000000000000E6
:100A1000002A2B2800000000000000000000000059
:100A20000000000029000000002C1E342021222498
:100A3000342627252E362D3738271E1F2021222326
:100A40002425263333362E37381F040506070809B8
:100A50000A0B0C0D0E0F101112131415161718197E
:100A60001A1B1C1D2F3130232D35040506070809DC
:100A70000A0B0C0D0E0F101112131415161718195E
:100A80001A1B1C1D2F3130354C00000000000000E7
:100A90000000000000000000000000000000000056
:100AA000000000000000000000000000007E0F00B9
:100AB000D4FFFFFFC7000000780E034C0069006CF4
:100AC00000790035003800000010036C0069006CEC
:100AD00000690075006D007300000004030904093B
:100AE000023B00020100A0FA090400000103010119
:100AF00000092111010001224400070581030800BB
:100B00000109040100010300000009211101000195
:100B100022320007058203200001120100020000BA
:100B20000008D8042DEB0001010200010501098035
:100B3000A101850319012AB700150126B700950107
:100B400075108100C0050C0901A101850419012A55
:100B5000A002150126A002950175108100C00501B3
:100B60000906A101050719E029E7150025019508E7
:100B7000750181029501750881010507190029FF9A
:100B8000150026FF00950675088100050819012942
:100B900005150025019505750191029501750391D3
:100BA00001C011241FBECFEFDAE0DEBFCDBF14E0DD
:100BB000A0E0B1E0E4E3FCE602C005900D92A631AE
:100BC000B107D9F727E0A6E1B4E001C01D92AE3E1F
:100BD000B207E1F70E94D41A0C9418360C94000066
:100BE00080916D0490916E048430910591F1F8F438
:100BF000009731F164E173E08230910519F19F9320
:100C00008F938FE293E09F938F931F9288E18F934E
:100C100089E695E09F938F930E9412338DB79EB71C
:100C200008960FB6F8949EBF0FBE8DBF0FC08830D8
:100C3000910519F08E30910511F761E273E002C061
:100C40006BEF72E089E695E00E940B3389E695E050
:100C5000089567E073E0F6CF80E091E00895CF93C8
:100C6000C0E28C33910520F4FC01E05BFC4FC081B5
:100C70001F92CF939F938F93FB0180811F928F933D
:100C800081811F928F938FE393E09F938F931F92A5
:100C900088E18F938FE294E09F938F930E941233A9
:100CA0008DB79EB70E960FB6F8949EBF0FBE8DBF40
:100CB0008091180490911904449779F08091180458
:100CC00090911904FC01E65EFB4FC083019690935E
:100CD000190480931804CF9108951092190410926A
:100CE0001804EAE1F4E080E294E0EE32F90731F32F
:100CF0008193FACF8FE294E008958AE194E0089519
:100D0000CF93DF93EC018A81813059F460E081E474
:100D100091E00E94D124CE010E940B27DF91CF9158
:100D200008958230C1F760E087E391E0F2CFCF937E
:100D3000DF93EC018A81813059F460E08DE291E02B
:100D40000E94D124CE010E940B27DF91CF910895FC
:100D50008230C1F760E083E291E0F2CFCF93DF937E
:100D6000EC018A81813059F460E08FE191E00E94CA
:100D7000D124CE010E940B27DF91CF9108958230BC
:100D8000C1F760E08BE191E0F2CF0E94F31D08957E
:100D900023E042E061E00E94B90E0895CF93C82F8E
:100DA0000E947718882319F08C2FCF91089582E044
:100DB000FCCF0E947718882389F00E94F00560E03C
:100DC0000E949A210E947A0660E00E949A210E9465
:100DD0007D0660E00E949A2181E008950E942C0621
:100DE00060E00E947F21F8CF0F931F93CF93DF9392
:100DF000EC018B01FB018581882309F4ABC0CE0196
:100E00000E942F06C634FEE7DF0759F108F0C3C081
:100E1000C234EEE7DE0709F440C008F0ADC0C034CC
:100E20008EE7D80709F465C0C134EEE7DE0708F0A5
:100E30004CC0C131D04409F0CEC0F8018681807F1A
:100E400009F0C9C08581882309F4C5C083E390E017
:100E50000E948D08C0E08C2FDF91CF911F910F91E0
:100E60000895F801C58160E081E191E0C1110AC0F7
:100E70000E940E0DB0C0F801C58160E08AE091E0EB
:100E8000CC23B1F30E94D124E6CFF801C58160E004
:100E900083E091E0C111F6CFEBCFF801C58160E0AE
:100EA0008BEE90E0C111EECFE3CFF801C58160E099
:100EB00084EE90E0C111E6CFDBCFF801C58160E0A0
:100EC0008DED90E0C111DECFD3CFF801C581CC23E9
:100ED00009F481C00E94231C811108C00E94811E58
:100EE0000E94691D60E089ED90E0CCCF0E94F31D67
:100EF000F9CFF801C58160E082ED90E0C111C2CF69
:100F0000B7CFF801C581CC2309F4B2CF60E08BECF8
:100F100090E00E94D1240E940E0D60E087EC90E0EA
:100F2000B1CFF801C58160E08DEB90E0C111AACF8F
:100F30009FCFF801C58160E083EB90E0C111A2CFA3
:100F400097CFF801C581CC2309F492CF60E08CEAF9
:100F500090E098CFC634FEE7DF0709F482CFD8F4DB
:100F6000C234EEE7DE0709F498CF30F4C0348EE7E0
:100F7000D80709F059CF7CCFC4348EE7D80709F4DD
:100F80009CCF08F492CFF801C58160E082EF90E039
:100F9000C11178CF6DCFCA34FEE7DF0709F4B1CFB6
:100FA00078F4C834EEE7DE0709F46FCF08F463CFB6
:100FB000F801C58160E089EF90E0C11163CF58CF9F
:100FC000CC348EE7D80709F4B4CF08F4AACFCD34D7
:100FD000DE4709F4B6CFC1E03ECF8530B8F46A30C1
:100FE000A8F4463098F4E42FF0E096E0699FE00D15
:100FF000F11D11249CE3899FE00DF11D1124EE0FDA
:10100000FF1FE55BFE4F85919491089581E090E08C
:1010100008950E94ED0708959C013A9521153F41DE
:1010200050F5FC01EE27F170BC0166277270AC012F
:10103000442754709C012227387094FF0EC080E032
:10104000EF2B09F080E1672B09F08062452B09F056
:101050008064232B89F08068089581E0EF2B09F4E8
:1010600080E0672B09F08260452B09F08460232B18
:1010700019F08860089580E00895CF93DF93EB0125
:101080000E940C08FE010995DF91CF910895CF933E
:10109000DF93EC01805E9109089720F06EEE7CE012
:1010A000209711F46AE97AE0CE010E943D088C2F66
:1010B0000E940F0ADF91CF910895CF93DF93EC0147
:1010C0000E944F0ACE01805E9109089720F065EFDB
:1010D0007CE0209711F461EA7AE0CE010E943D089D
:1010E000DF91CF9108950F931F93CF93DF938C01DE
:1010F000EB010E944708209741F4C8010E945D0857
:10110000DF91CF911F910F9108958FE99FE0019793
:10111000F1F700C000002197EECF70E060E0893366
:10112000910511F460E570E00E947308089581E074
:1011300008950E949708089581E008950E94F4069A
:10114000089508950E94A1080895A6E0B0E0EBEA92
:10115000F8E00C94813249835A839E8330914C0489
:1011600089819A8131111AC03E81332399F022235B
:1011700089F00E94590E182F682F89819A810E9448
:10118000350E69817A81812F0E9453152696E3E0FE
:101190000C949D320E94470E182FF3CF0E94590ED7
:1011A00069817A81F1CFFC01262F408151816281D2
:1011B0007381848195810E94A5080895CF93DF9360
:1011C000EC0161E00E94D308BE010E949908DF9102
:1011D000CF910895CF93DF93EC0160E00E94D30894
:1011E000BE010E94A208DF91CF91089581E0089589
:1011F0000E94F6080895CF93C82F0E940E0D8C2FE1
:101200000E94F8082FEF84E39CE02150804090403A
:10121000E1F700C00000CF91089581E00E94FB0833
:101220000E94F528089580E00E94FB080E9406298C
:1012300008950F931F93CF93DF938C0161E00E9479
:10124000D308EC01B8010E945726882329F061E0F9
:10125000C8010E94D308EC01F801858181110E9428
:10126000791FB801CE010E949E08811106C080E05E
:10127000DF91CF911F910F910895B801CE010E9487
:1012800082268823A1F3B801CE010E94A1258823DC
:1012900071F3B801CE010E947523882341F3B80190
:1012A000CE010E944B23882311F3B801CE010E9486
:1012B000831F8823E1F2F8018581882361F0C33020
:1012C000FCE7DF07E9F058F4C115ECE7DE07A9F009
:1012D000C130DC47B9F0C8010E949C08C9CFCB35AA
:1012E0008CE7D807A9F0CC35ECE7DE0771F0CA35FA
:1012F000DC4789F70E949C12EECF0E940D09B7CF00
:101300000E94A4120E941309B2CF0E949212E3CF4E
:101310000E94A012E0CF0E9407280E94B4090E94F8
:10132000B12208950E94B8090E940C2808950895DA
:1013300081E008950895CF93DF93D82F0E949809F4
:10134000C82F882319F08D2F0E949A098C2FDF91C6
:10135000CF9108950895CF93C82F0E9497098C2F9D
:101360000E949B09CF91089580E00E94AB090895E7
:101370000E9417270E94AB090895CF930E94172758
:10138000C82F809147048C1779F0C09347040E94BE
:101390009828609348047093490480934A0490937A
:1013A0004B048C2F0E94AB09CF910895ADE0B0E0C3
:1013B000ECEDF9E00C948232488759876A877B8785
:1013C0008C879D8791110E94CF111F8286E0FE01BC
:1013D0003896DE01119601900D928A95E1F78D8184
:1013E00081110DC029813A814B815C816D817E81A3
:1013F0008F810E9414112D96E2E00C949E32CE0152
:1014000001960E94DE088111EDCFF5CFFC01248109
:10141000213021F4808191810E948B0E0895CF9319
:101420008823A1F0C82F8CEF8C0F813A88F48C2F81
:101430000E948F27882329F08C2F0E94D2270E9498
:1014400041128C2F0E94CA270E944112CF91089509
:1014500080E28C0F883048F4C77081E001C0880FAB
:10146000CA95EAF70E94AD11EFCFEBE5EC0FE33040
:1014700040F4F0E0EE53FC4F808190E00E9436276C
:10148000E5CFC85ACB3110F7EC2FF0E0EE0FFF1F7D
:10149000E457FC4F808191810E945B27D7CF88233E
:1014A00039F19CEF980F913A28F40E94D2270E94BC
:1014B0004112089590E2980F983050F4877091E0AF
:1014C00001C0990F8A95EAF7892F0E94B311EFCFD7
:1014D0009BE5980F933028F490E080E00E94362737
:1014E0000895885A8B3120F490E080E00E945B27B9
:1014F00008951F93CF93DF93182FEB010E940F0ADB
:10150000209739F4812F0E944F0ADF91CF911F91CC
:1015100008958FE99FE00197F1F700C0000021973F
:10152000EFCF70E060E0893311F460E570E00E9475
:10153000790A0895882321F00E94AD110E9441127A
:101540000895882321F00E94B3110E94411208954A
:10155000B0E0A0E0EEEAFAE00C947C326C01D62F09
:10156000C72FFC011581068102950F700E94A311FF
:10157000E82E8823F9F0E12E1123E1F08C2F807FF3
:10158000803461F080E28D0F883070F18C2F807E86
:10159000803221F4D23040F1002331F18091860570
:1015A00082FF22C082E00E9466120E94A31191E095
:1015B000E82EE926FC2EF2949FE0F922FBE0FF15CD
:1015C00008F4C7C0EF2DF0E0E851F54F0C946C32F1
:1015D000F60AF60A3D0B3D0BA20BA90BA90BA90BB2
:1015E000C30B370C480C480CE12CE4CF0C2F0F70C8
:1015F000C07F11F00295007F112399F0002359F06C
:1016000080E28D0F883010F0D11107C0802F0E942A
:10161000AD110E9441128D2F51C0802F0E94C11127
:10162000F8CF8D2F0E944F0A002379F080E28D0FB2
:10163000883010F0D11104C0802F0E94B31103C074
:10164000802F0E94C7110E944112EE2089F00E9453
:101650009F1180FD0DC0F60115820E9499110E9414
:10166000930DC6010E94CB0C0E9499110E94A30DFC
:10167000CDB7DEB7E8E00C9498322C2F2F70F22E05
:10168000C07FC03219F0F29480EFF822DD2341F0E0
:10169000D130D1F1112309F444C00023F1F0BBCFC4
:1016A0008091860582FD15C0112359F0FF2029F095
:1016B0008F2D0E94AD110E94411280E00E940F0AFE
:1016C000C4CF80E00E944F0AFF2009F4BECF8F2DC7
:1016D000B4CF112369F0011104C08F2D0E949A0A22
:1016E000B4CF013009F0B1CF8F2D0E94E911ADCFF9
:1016F0000111ABCF8F2D0E94A10A8F2D0E94F511F1
:101700008F2D0E94D911A1CF112321F0063008F0AE
:101710009CCFE3CF053008F098CF8F2D0E94A10A0F
:1017200094CF0023D1F3D93349F48FEF97EEE3E060
:1017300081509040E040E1F700C000008D2F0E94F2
:101740004F0A83CF8C2F86958695837041F0813028
:1017500081F088EF8F0D843008F077CF41C08D2F56
:101760009C2F9370111102C080E090E00E943627F8
:101770006CCF8D2F9C2F9370111102C080E090E0F0
:101780000E945B2762CF8C2F8370C1F5111128C096
:101790004D2F429546954770440F440F2D2F2F70C3
:1017A00030E0042E02C0220F331F0A94E2F790E0CB
:1017B00080E0D4FF09C08FE090E002C0880F991F3D
:1017C0004A95E2F780959095822B932BC695C69506
:1017D000C370C23069F078F4C13039F00E94660DF0
:1017E0000E9417270E94AB0930CF0E945D0DF8CFF1
:1017F0000E946F0DF5CF0E945A0DF2CF86951123EE
:1018000011F08C2F8170882359F34D2F4295469506
:101810004770440F440F2D2F2F7030E0042E02C06C
:10182000220F331F0A94E2F790E080E0D4FF09C052
:101830008FE090E002C0880F991F4A95E2F78095EB
:101840009095822B932BC695C695C370C23049F0F4
:1018500058F4C13019F00E94CE0DC2CF0E94C50DC0
:10186000BFCF0E94D70DBCCF0E947B0DB9CFCF70E8
:10187000112339F08C2F0E94930D8D2F0E949A0A0C
:10188000AFCF8D2F0E94A10A8C2F0E94A30DA8CF4D
:10189000D23F61F170F4D03FD9F0D13F91F01123E4
:1018A00009F44DC0002309F447C08D2F0E940F0A90
:1018B00050CFD33F11F1D43F91F78091860582FD3F
:1018C00026C08C2F8F711123A9F00E94930D41CF58
:1018D000112341F0053008F03CCF8C2F8F710E940E
:1018E000B50D37CF063008F034CFF7CF8C2F8F717E
:1018F000112359F30E94A30D2CCF112329F08C2F13
:101900008F710E94870D25CF0E94820D22CF112357
:1019100049F0CF718C2F0E94930D63E08C2F0E94B1
:10192000481217CF81E00E946612023008F411CFEE
:1019300082E00E9466120DCF8C2F8F71C6CF0023DC
:1019400079F0D93349F4FFEF27EE83E0F1502040DE
:101950008040E1F700C000008D2F0E944F0AF9CEB1
:101960008C2F8F71C7CF0F931F93CF93DF93EC0111
:10197000688179818D810E94960E8C010E94E00D14
:101980000E94590DB801CE010E94A80ADF91CF91A3
:101990001F910F910895CF93DF93FC01248122239F
:1019A00099F0EC010E941909811111C00E94A31144
:1019B000882351F08D81882339F08091860582FF3C
:1019C00003C082E00E946612DF91CF910895CE019C
:1019D0000E94B30CCE010E94EA08F6CF882321F0C2
:1019E0000E94C1110E9441120895882321F00E9493
:1019F000C7110E944112089590E080E00E943627AE
:101A000090E080E00E945B270E94CF110E9441126B
:101A100008950E94DA270E94FC0C08950E94BB11D1
:101A20000E94090D089592959F70963089F050F4A8
:101A30009250923058F4803F19F030F4883E30F4E0
:101A400081E008959A50F5CF843FD1F380E0089566
:101A5000883EB0F3813FD1F7F3CFFC0124812223EC
:101A600039F0808191810E948B0E0E94130D0895A0
:101A700080E00895A6E0B0E0E0E4FDE00C9482325E
:101A80002696E2E00C949E32A7E0B0E0EAE4FDE0A6
:101A90000C9482322796E2E00C949E3208950E94C4
:101AA0004E0D08950E944F0D9093700480936F0423
:101AB000089508950E94520D089520916F04309169
:101AC0007004822B932B0E94520D089520916F0475
:101AD00030917004822393230E94520D0895209127
:101AE0006F0430917004822793270E94520D08954D
:101AF0000E94C80608950E94780D90936E0480930A
:101B00006D04089590E080E00E947B0D089521E02F
:101B100030E0A90102C0440F551F8A95E2F7CA01BF
:101B20000E947B0D089521E030E002C0220F331F98
:101B30008A95E2F780916D0490916E04822B932B2D
:101B40000E947B0D089521E030E002C0220F331F78
:101B50008A95E2F72095309580916D0490916E04FE
:101B6000822393230E947B0D089521E030E002C080
:101B7000220F331F8A95E2F780916D0490916E04D5
:101B8000822793270E947B0D089520916D04309148
:101B90006E04822B932B0E947B0D089520916D047F
:101BA00030916E04822393230E947B0D089520912F
:101BB0006D0430916E04822793270E947B0D089557
:101BC0000895262F277091E001C0990F2A95EAF712
:101BD00023E0769567952A95E1F7660F771F660FE4
:101BE000771FFA01E60FF71F50E040E0682F70E022
:101BF0008191DF0111979B01042E02C03695279534
:101C00000A94E2F7217021952827292328272C936D
:101C10004F5F5F4F4430510559F70895A82FA770C3
:101C200023E0969587952A95E1F7880F991F880FED
:101C3000991FFB01E80FF91F50E040E080E021917F
:101C400030E00A2E02C0369527950A94E2F72170FB
:101C50003327042E01C0220F0A94EAF7822B4F5F2C
:101C60005F4F4430510559F70895282F9A3070F48A
:101C7000863060F4862F622F70E026E0929F600D20
:101C8000711D11244DE454E00E94E10D08959A3035
:101C900070F4863060F4292F90E06DE474E036E053
:101CA000239F800D911D11240E940E0E089580E047
:101CB0000895B0E0A0E0EFE5FEE00C947B327C01FB
:101CC00000916D0410916E0480916F0490917004E6
:101CD000082B192BCFE0D0E0CC24C394D12CBC2E00
:101CE000C6010C2E02C0880F991F0A94E2F78023C8
:101CF0009123892B49F4219790F7B12C8B2DCDB7E7
:101D0000DEB7E9E00C949732B7018C2F0E945F1583
:101D1000019789F3F3CFCF93DF93EC010E94590E23
:101D2000BE010E945F15DF91CF9108951F93CF935D
:101D3000DF93EB0190914C04992339F0CB010E9481
:101D40008B0EDF91CF911F910895882369F0CB010D
:101D50000E94590E182F682FCE010E94350EBE0129
:101D6000812F0E945F15EDCFCB010E94470E182FE7
:101D7000F6CFE1E0F0E0DF0102C0AA0FBB1F6A95D9
:101D8000E2F7BD01DF0102C0AA0FBB1F4A95E2F7CF
:101D9000AD01462B572B02C0EE0FFF1F2A95E2F72D
:101DA0009A01282339232417350719F48E2B9F2BEA
:101DB0000895E095F0958E239F2308951F93CF9368
:101DC000DF93C091710417E0809172048C1304C0FA
:101DD000DF91CF911F910895D0E01C9FF0011D9FCE
:101DE000F00D1124ED58FB4F208131814281538148
:101DF0006481758186810E94440D2196C770E4CF6D
:101E00002091AB043091AC044091AD045091AE04EC
:101E10006091AF047091B0048091B1040E94440DB0
:101E20000895CF93DF938091B104807F09F04DC076
:101E30008091B004882309F448C0E0917104509166
:101E40007204C091AC04D091AB046091AD04709168
:101E5000AE0447E05E17C9F18E2F90E0E49FF001D9
:101E60001124ED58FB4F2481222391F1489FF0016A
:101E7000499FF00D1124DF01AD58BB4F11962C91F5
:101E800011972C1325C02C912D1322C015962C913F
:101E9000159721111DC012962D913C91261B370BD1
:101EA000283C3105A8F48091B1048F708061809343
:101EB000B104E758FB4F80818F70806180838BEA8B
:101EC00094E00E94CB0C0E94DE0EDF91CF9108952A
:101ED000FC013196E770BECF482F2091710490919C
:101EE000720457E0291302C080E0089530E0529F49
:101EF000F001539FF00D1124ED58FB4F81816813C1
:101F000006C08081481303C085818111EECF2F5F09
:101F10003F4F2770E7CFA4E1B0E0E1E9FFE00C9488
:101F200078328C0186E0F801DE011F9601900D9257
:101F30008A95E1F7F8018481E5809BEAA92E94E077
:101F4000B92E9091AF0491111FC08823D1F0EE20DB
:101F5000A9F0C8010E942D0DF82E882379F087E0A2
:101F6000F801D50101900D928A95E1F7C5010E9413
:101F7000060A0E94110F0E94000F5FC0C8010E9454
:101F8000CB0CFF24F39459C0C080D1808280938011
:101F9000F090B0042091AD043091AE04A401421B36
:101FA000530BFF2009F4F8C0483C510508F0A6C0C7
:101FB000882309F442C09091AC048091B104282F89
:101FC000207F09F05BC0D91216C09091AB04C912F2
:101FD00012C0E1104DC08F7080618093B1040E94E7
:101FE000000F8BEA94E00E94CB0C8091B104F801C1
:101FF0008683F12C22C0E1103BC06D2D8C2D0E94F8
:102000006C0F6D2D8C2D0E946C0FE82E8111F1CF7D
:10201000CF86D88A8F8598890E948B0E292F22958A
:102020002F70243078F49F702230A0F09923B1F003
:10203000F8019681907F91F4FE2C8F2D6496ECE050
:102040000C9494322A50223068F0C8010E94CB0CC4
:10205000EF2CF2CF992311F0882371F3805E883042
:10206000A0F7EACF803F40F3815F833070F7E4CF81
:102070008091B10481608093B104BBCFD91213C0A9
:102080009091AB04C9120FC0E1100DC08683C80146
:102090000E94CB0C87E0F801ABEAB4E001900D920E
:1020A0008A95E1F768CFC8010E942D0D882309F4B5
:1020B00065CFEE2009F462CF8091B104803288F0C0
:1020C0002091AB043091AC04398728879B868A869F
:1020D0009091AF049C871D868E87CE0108960E9442
:1020E000CB0C87E0F801ABEAB4E001900D928A9541
:1020F000E1F70E94110F0E94000F43CF9091B104AD
:10210000292F207FA1F4682D9A8A898AA6017A89CD
:102110009E2D0E943A0D8BEA94E00E94CB0C87E042
:10212000F50111928A95E9F70E94000F62CF88238A
:1021300009F483CF8091AC048D1110C08091AB0461
:10214000C8120CC0E1100AC09683C8010E94CB0CD3
:1021500087E0F50111928A95E9F76FCFC8010E94D7
:102160002D0D882309F40ACFEE2009F407CF8091C2
:10217000B104803208F4B5CF2091AB043091AC04A7
:102180003A8329839C828B829091AF049D831E8227
:102190008F83CE010196A3CF483C5105B8F5882323
:1021A00009F4EFCEFE2CEE2009F4E8CE8091AC04C9
:1021B0008D111EC08091AB04C8121AC08091B10469
:1021C00080FD0DC0982F907F51F08683903F09F4D9
:1021D0005ECF982F907F905F8F70892B57CF87E0CD
:1021E000F801ABEAB4E001900D928A95E1F725CFB2
:1021F000C8010E942D0D811174CF8091B1048160BE
:102200008093B104C8010E94CB0C17CF682D9A8A25
:10221000898AA6017A899E2D0E943A0D87E0F501F0
:1022200011928A95E9F7A7CEAEE0B0E0EAE1F1E1DC
:102230000C948132288739874A875B876C877D8732
:102240008E87CE0108960E948B0F8823B1F16C8592
:10225000662341F0288539854A855B857D858E8595
:102260000E94440D17E080917104909172048917C7
:1022700009F45BC0819FC00111248D589B4F0E94BF
:102280008B0F882309F451C0E09171041E9FF00167
:102290001124ED58FB4F20813181428153816481AB
:1022A000758186810E94440D8091710490E00196B1
:1022B0008770992780937104D6CF87E0FE01389606
:1022C000DE01119601900D928A95E1F78C858823A5
:1022D00049F22091720430E0C90101968770992774
:1022E000409171044817190699F097E0929FD00128
:1022F000939FB00D1124AD58BB4FFE013196019054
:102300000D929A95E1F7809372040E94DE0EAACF97
:102310000E940E0D109272041092710487E0EBEA95
:10232000F4E0DF011D928A95E9F72E96E3E00C9424
:102330009D328091BA048695869586950895809100
:10234000BA04877008959091BA04977081E009F4F7
:1023500080E008958091C60408959091C604892B69
:102360008093C6040895982F90958091C604892380
:102370008093C60408951092C60408958091C50400
:1023800008959091C504892B8093C5040895982FD2
:1023900090958091C50489238093C5040895109277
:1023A000C50408958091BC04089508950E94D51134
:1023B00008959091BB04292F282331F0809589231B
:1023C0008093BB040E94D611089508950E94E511E0
:1023D00008959091BC04292F2823281729F0982BC1
:1023E0009093BC040E94E61108959091BC04292F9B
:1023F000282331F0809589238093BC040E94E61144
:1024000008958091BC04882329F01092BC0480E0D8
:102410000E94E61108950F931F93CF93DF930091CD
:10242000C0021091C102C091C6048091C504C82B9E
:102430008091BC04882331F0C82B0E948027811131
:102440000E940112F801C083C091C002D091C10264
:1024500048E050E062EB74E0CE010E94F532892B37
:1024600059F088E0FE01A2EBB4E001900D928A954C
:10247000E1F7CE010E942B27DF91CF911F910F91A1
:1024800008950E940B12089508950E944412089521
:102490009091860592FF11C098E0899F90011124C8
:1024A000622B6093BA040E94930D8091BA048695C2
:1024B000869586950E94451208950E94930D089571
:1024C0001092BA0480E00E94451208959091BA04D7
:1024D000809589238093BA04282F277069F489177F
:1024E00059F09091860592FF07C08695869586954E
:1024F0000E94A30D0E94601208959091860592FBA0
:10250000222720F9281769F080FB92F9909386051D
:1025100080918505909186050E94C51282E00E94F7
:10252000661208958091860582FB882780F991E0E4
:1025300089270E947D12089581E00E947D120895EE
:1025400080E00E947D1208956FEF7FEF90E080E0C1
:102550000E940236089590E080E00E94CE3521E08E
:10256000863E9E4F09F020E0822F089582E090E0A1
:102570000E94C035089583E090E00E94C035089520
:1025800084E090E00E94CE350895BC0184E090E0A4
:102590000E9402360895AB01BC018FE090E00E94DA
:1025A000F6350895AB01BC0183E190E00E94F63559
:1025B000089560E070E0CB010E94D212089560E0BF
:1025C00070E0CB010E94CB120E94D9120895A8E0BE
:1025D000B0E0EDEEF2E10C94823266EE7EEF90E038
:1025E00080E00E94023660E082E090E00E94E435E4
:1025F00081E090E09093700480936F0461E083E049
:1026000090E00E94E43560E074E184E090E00E9494
:10261000023660E086E090E00E94E4356FEF87E0EC
:1026200090E00E94E43540E050E0BA0188E090E09C
:102630000E94F63560E084E290E00E94E43560E0BC
:1026400087E190E00E94E43560E08CE090E00E9439
:10265000E43560E08DE090E00E94E43519821A8252
:102660001B821C821D821E821F82188648E050E059
:1026700068E170E0CE0101960E94D43540E050E060
:10268000BA0180E290E00E94F6350E94DF1228969F
:10269000E2E00C949E320E94E7120895682F8EE0CB
:1026A00090E00E94E4350895A6E0B0E0EAE5F3E1A9
:1026B0000C9480320E948C288C018091C7049091E8
:1026C000C8048017910781F019821A820E948C2811
:1026D000682F49815A81792F80E090E00E94D609C5
:1026E0001093C8040093C7042696E4E00C949C322F
:1026F0000E947D166093D7047093D8048093D90408
:102700009093DA046093D3047093D4048093D50437
:102710009093D6040895089508950E948B13089508
:102720000E94C506089581E0089582EA96E10E941C
:10273000E11A0E948C130E948D1308950E9477184D
:102740000895089508950E94A1130E94A213089568
:102750000E94A5160E94AA0908950E9483280E943B
:1027600057160E947D180E94CE170E94A8130E943F
:10277000332380E00E9451200E94991E0E949918E4
:102780000E94901308950E94771881110E94E726F5
:102790000895A6E0B0E0EFECF3E10C9478320E94EB
:1027A0009313C82E811112C00E945413C12C0E9491
:1027B000C3130E947A1F0E94CF22C1100E94A02141
:1027C0000E94BD092696ECE00C9494320E94F11709
:1027D00089ECA82E84E0B82E750110E0F701019174
:1027E0007F01812F0E94CB161F5F1A3009F441C070
:1027F0000817A1F38091DB0481FD0E94D1160E948D
:102800009E13982E10E088248394812F0E94CB166B
:10281000082FF50181915F01081729F1F12CEE24B1
:10282000E394D02ED8268D2D8E21A9F0992099F0F1
:10283000F9821A830E948C289C838B838D8291E07D
:10284000802F8E2109F490E049815A816B817C812F
:102850008D810E94D609F394EE0CF6E0FF12E3CFCF
:10286000F501319700831F5F1A3079F60E947813C3
:102870009ECF081709F498CFBDCF1F93CF93DF9356
:102880000E946415EC01C11580E5D807E8F5C11573
:1028900080E4D80708F09BC0C03ED10518F5CD3CB8
:1028A000D10508F081C0C83AD10570F4C53AD10508
:1028B00008F072C0C130D10511F118F0C430D10553
:1028C000F0F4D0E0C0E01BC0C33CD105D0F7C85A3B
:1028D000D0E0CC0FDD1FCB53DC4F0990D881C02D49
:1028E000D4640DC0C11580E2D80708F0CBC0C11573
:1028F00081E0D80708F05AC0C83ED10510F7CE01D4
:10290000DF91CF911F910895C03682E5D80718F561
:10291000C03482E5D80708F069C0C03282E5D80724
:1029200008F05DC0C11582E5D80708F493C02C2FCC
:102930002695269580E2289F900111248C2F837084
:10294000C1E0D0E002C0CC0FDD1F8A95E2F7C22BB8
:10295000D32BDD68D4CFC03A82E5D80760F4C03805
:1029600082E5D80708F457C0CF71D0E0DC2FCC2720
:10297000C46FD06AC4CFC03C82E5D80708F45EC0FB
:10298000C03E82E5D80708F09CCFDC2FCC27CC27AF
:10299000DF71C06FD06AB3CFC55AD0E0C550DC4FED
:1029A000C881D0E0D064ABCFD065A9CF8D2F0E9475
:1029B0000816182FCE0199270E946415C12FD0E068
:1029C000DC2FCC27CC27DF71C82BD92B98CFCE0199
:1029D00099270E946415CC27DF70D06AF5CFCF719C
:1029E000D0E0DC2FCC27C16FD06A89CF2C2F269561
:1029F0002695277080E2289F900111248C2F8370E8
:102A0000C1E0D0E002C0CC0FDD1F8A95E2F7DC68A0
:102A1000C22BD32B74CF2C2F26952695277080E2BE
:102A2000289F900111248C2F8370C1E0D0E002C058
:102A3000CC0FDD1F8A95E2F7DA68EACF8C2F8F7111
:102A40000E940816C82FD0E0DC2FCC27CC27DF71DE
:102A5000D06255CF8C2F8F710E94081655E0D69505
:102A6000C7955A95E1F7CF70D0E0DC2FCC27282FFF
:102A700030E084FF05C044E0220F331F4A95E1F7A0
:102A8000D069C6CF8D2F8F710E940816182FCE01E6
:102A900099270E946415C12FD0E0DC2FCC27CC27CA
:102AA000DF71906291CF7A3038F4663028F4462F87
:102AB000672F0E940908089590E080E008950E9421
:102AC00053150E943D14089582389105B9F1B0F470
:102AD0008133910509F47DC048F48932910509F4E8
:102AE0006DC08A32910509F479C008958533910546
:102AF00009F45FC08933910509F10895833E91057A
:102B0000D9F138F4803E910529F1823E910579F1A1
:102B10000895863E9105D9F1873E910509F43EC09E
:102B2000843E910541F52091860521FF24C08091C6
:102B3000850584FD19C087EE90E0089520918505F4
:102B4000237009F056C02091860523FF14C089E246
:102B500090E008952091850520FD38C030918605CC
:102B600030FF09C024FF3FC090E080E0089520912D
:102B7000850522FDF7CF08952091850522FD36C0F9
:102B80003091860530FD35C024FDEECFF4CF209185
:102B9000850523FFF0CF24FDE7CFCDCF209185051C
:102BA00023FD2AC03091860531FFEECF84EE90E000
:102BB00008952091850525FDCACF089520918505AA
:102BC00025FD1DC02091860523FFD5CF89E390E028
:102BD00008952091850526FD15C00895209185054D
:102BE00026FD13C0089583EE90E0089582EE90E0F4
:102BF000089580EE90E0089586EE90E0089585E3D4
:102C000090E008958AE290E0089581E390E0B3CFE8
:102C10009091850592FF10C041E0282F2471243047
:102C200009F040E031E0282F2871283009F030E029
:102C3000431711F02CE0822793FF10C041E0282FAA
:102C40002471243109F040E031E0282F2871283127
:102C500009F030E0431711F02CE08227309186050F
:102C600030FF10C051E0282F2171213009F050E0D1
:102C700041E0282F2871283009F040E0541711F066
:102C800029E0822731FF10C041E0282F2171213136
:102C900009F040E031E0282F2871283109F030E0B8
:102CA000431711F029E0822794FD877E0895109242
:102CB0008105109282051092830510928405089573
:102CC000CF92DF92EF92FF926B017C010E94771806
:102CD00081110EC00E949828C61AD70AE80AF90A7C
:102CE000C0928105D0928205E0928305F09284051E
:102CF000FF90EF90DF90CF9008950F931F930E9465
:102D00007718882329F00E9498281F910F91089521
:102D10000E949828009181051091820520918305D9
:102D200030918405600F711F821F931FEECF0E94A8
:102D30007718882319F00E948C2808950E947D1628
:102D4000CB01089580E0089508950E94AB1281118F
:102D500002C00E944B130E94B6128093DB040E94B3
:102D6000C01290938605809385050E94A4160E9448
:102D7000BB1290E00E945A0D80916D0490916E04F8
:102D80000E94780D089508950E94C316089508952D
:102D90000E94C7160895E82FF0E0EE56FA4F8081A2
:102DA0000895089580EA8A95F1F7089500C008957E
:102DB0000E94D216089508950E94DB160895A5E09A
:102DC000B0E0E5EEF6E10C947E320E947718F82E22
:102DD00060919C05882309F440C085E0E82E8E01AF
:102DE0000F5F1F4FF8018E2D11928A95E9F7862FFC
:102DF00090E0B8018E569A4F0E94A7188823B9F028
:102E00008091870590E045E050E0B8018E569A4FDA
:102E10000E94F53221E02093DC04892B91F4F12CFF
:102E20000E94C8168F2D2596E6E00C949A32809168
:102E3000DC048823A1F3F8011192EA94E9F71092D7
:102E4000DC04A0918705B0E0AE56BA4F85E0F801EA
:102E500001900D928A95E1F7E3CF70E06E567A4FBC
:102E60008091870590E08E569A4F0E9430190E94FB
:102E7000DC16D8CFF894E82FE295EF70F0E031A19E
:102E8000282F2F7081E090E001C0880F2A95EAF783
:102E9000982F9095932391A392A1892B82A3789444
:102EA00008950F931F93CF93DF93C4E0D4E08991EB
:102EB0008F3F11F00E943A1784E0C930D807B9F764
:102EC000CEEFD3E004E014E089918F3F11F00E942F
:102ED0003A170C171D07C1F7DF91CF911F910F9182
:102EE0000895B0E0A0E0E7E7F7E10C947C32EC0154
:102EF000062F10E0C8018C5F9B4F7C01FC01908184
:102F00009F3F09F444C0D62EF894E92FE295EF7064
:102F1000F0E081A19F7021E030E001C0220F9A957E
:102F2000EAF7822B81A382A12095282322A37894FB
:102F30000E94D616EEEFF3E031E0C12C21912F3F35
:102F400059F1A22FA295AF70B0E090968C9190E0CD
:102F50002F7002C0959587952A95E2F780FD1CC0D9
:102F6000832FC82A330F84E0E430F80739F7F701DC
:102F700080818F3F11F00E943A1761E0C11001C0BB
:102F800060E08D2D0E94D816C00FD11FC882CDB72A
:102F9000DEB7E8E00C94983280E0E3CF8091C20283
:102FA0008091C20295E0811190E090939C0585E0AC
:102FB000891B809387050E9451178AE0E2E9F5E0BA
:102FC000DF01982F1D929A95E9F7E8E8F5E0DF0117
:102FD0001D928A95E9F785E00E942F180E94C41679
:102FE0000895AAE0B0E0E7EFF7E10C947F328E019C
:102FF0000F5F1F4F8AE0F80111928A95E9F7F12CD3
:103000006F2DC8010E947117F394F5E0FF12F8CFFD
:103010004AE050E0B80188E895E00E94F53221E0EE
:10302000009709F420E0892B41F08AE0F801A8E834
:10303000B5E001900D928A95E1F760919C0570E0F2
:103040006E567A4F45E088E895E00E943018182FB8
:103050000E94DF16812B2A96E5E00C949B3208959E
:10306000B0E0A0E0E6E3F8E10C947C326C017B0177
:10307000042FC22F222379F081E08093DF040E9485
:103080008C289093DE048093DD0480E0CDB7DEB71A
:10309000E8E00C949832D091DF04DD23B1F3809105
:1030A000DD049091DE040E94A428059770F310E0DF
:1030B000A801B601C7010E94F532892B31F0A801A1
:1030C000B601C7010E940233CD2F1092DF048C2F6E
:1030D000DDCFCF930E943F32C82F811102C00E94E2
:1030E0003A328C2FCF9108958091E3040895809116
:1030F000E20408950E94771808950E946918809349
:10310000E2040E947A188093E3040E94741880936A
:10311000C2020E94741868E0882349F080E00E948F
:103120007D1B0E94771881110E94DF18089588E0A6
:10313000F6CF0E947718811102C00E94E21808950C
:1031400081E09091E4049A3008F080E008950F93B4
:103150001F93CF93DF93EC018B018091E4048A30BD
:10316000F0F4B801CE010E942D19C82F811122C0A0
:103170008091E4048F3F19F08F5F8093E404809185
:10318000E4048A30D0F00E948C289093E10480936C
:10319000E0048C2FDF91CF911F910F9108958091C2
:1031A000E0049091E1040E94A428843F9140C8F675
:1031B000C0E0EFCF1092E404ECCFC1E0EACF0E9470
:1031C000572A08950E945A2A0895B0E0A0E0EBEE35
:1031D000F8E10C947D327901C82F880FDD0B411581
:1031E0005105A9F0FE0193E0EE0FFF1F9A95E1F75C
:1031F000ED53FD4F818192818B519B4F208130E0B7
:103200004217530708F49A01A9010E940233CE0124
:103210000E94432BD82E8823D1F001151105B9F057
:1032200083E0CC0FDD1F8A95E1F7FE01ED53FD4FE2
:10323000438150E00417150708F4A801CD53DD4F72
:103240006C817D816B517B4FC7010E9402338D2DB4
:10325000CDB7DEB7E7E00C9499320E945A1A089570
:103260000E947B1A0895A4E0B0E0E9E3F9E10C9430
:103270008032609108057091090580910A0590914E
:103280000B050E94B32811E0643671058105910594
:1032900018F10E947D166E5F7F4F8F4F9F4F69839D
:1032A0007A838B839C8310E000E030E020E044E0F0
:1032B00050E0BE016F5F7F4F82E00E94E518182F3B
:1032C000882351F00E94982860930805709309059F
:1032D00080930A0590930B05812F2496E4E00C94CB
:1032E0009C32B0E0A0E0E7E7F9E10C947A327C018F
:1032F0005B016A010E94A01801E010E0882311F030
:103300000AE010E0C1E0D0E0B501C701F60109957F
:10331000811104C021960C171D072CF4CDB7DEB720
:10332000EAE00C949632CC9F9001CD9F300D300D89
:10333000112490E080E045E34A95F1F70000019602
:1033400082179307C1F7E0CFACE0B0E0EAEAF9E119
:103350000C948032CE0101960E94C71D1B8560919E
:103360000C0570910D0580910E0590910F050E943E
:10337000B328643671058105910510F41123C1F05D
:1033800010E000E030E020E04CE050E0BE016F5F74
:103390007F4F83E00E94E518882369F00E949828F7
:1033A00060930C0570930D0580930E0590930F05A7
:1033B0000E94C41D81E02C96E4E00C949C32A6E0AF
:1033C000B0E0E5EEF9E10C947A327B01C09009049B
:1033D000D0900A0401E010E09E012A5F3F4F50E0C8
:1033E00040E070E060E080E00E94E518182F88233C
:1033F00009F448C056018FEFA81AB80A6091040575
:103400007091050580910605909107050E94B328EB
:10341000643671058105910568F105E010E09E01B3
:103420002F5F3F4F50E040E070E060E081E00E949D
:10343000E518D82E65E070E0C5010E94342311E044
:103440009E81981310E01D2141F10E9498286093FD
:10345000040570930505809306059093070585E0A4
:10346000FE013196AFEFB4E001900D928A95E1F73D
:1034700011E013C065E070E0C5010E9434239E8115
:103480008913CBCF85E0F6013196DE0111960190CC
:103490000D928A95E1F71111E2CF85E0EFEFF4E0AC
:1034A000D70101900D928A95E1F7812F2696EAE0E7
:1034B0000C9496320F931F93CF93DF93EC018B0103
:1034C0004FED59E10E947119811106C080E0DF9132
:1034D000CF911F910F91089543E359E1B801CE01B7
:1034E0000E947119882391F344EA59E1B801CE0191
:1034F0000E947119ECCFACE0B0E0E1E8FAE10C9485
:103500007C320091090410910A04C801019625E05B
:10351000FB01DC0101900D922A95E1F765E070E076
:103520000E943423F80180836681778180859185AC
:10353000C090FB04D090FC04E090FD04F090FE04E9
:103540006C157D058E059F0551F06093FB0470930B
:10355000FC048093FD049093FE040E9460168CE0AE
:10356000F8013A96DE01119601900D928A95E1F7E5
:10357000F801148A8B85882329F060E0CE0101963A
:103580000E94E21E2C96E8E00C9498320E94122DC4
:103590000E94AD130E941F2D08950E94242D0E94A9
:1035A000C9130E943E2D08950E9423280E94F82CE2
:1035B0000E9495130E94C61A0E94CD1A0E94A3135E
:1035C000FBCF90931704809316040895EF92FF9217
:1035D0000F931F93CF93DF93EB01E82FD1110EC010
:1035E000442321F0F0E0ED55FC4FE4916E2F7E2F47
:1035F0008E2FCDB7DEB7E6E00C949A320D2F10E097
:10360000282F30E0442329F02D553C4FF901249117
:1036100030E0F6E0CF9FC0011124EFEFF0E0BF01F2
:103620000E945832AB018C2F90E0880F991FA5E5BE
:10363000A49FB001A59F700D1124861B970B982F96
:10364000990F980FBF01601B710B629FD001639FA0
:10365000B00D729FB00D11248B2F9D9FB0011124CE
:10366000672F7727EF01C61BD70BBE01629FE001D2
:10367000639FD00D729FD00D11247F01E91AF108CC
:10368000E09EB001E19E700DF09E700D1124672F39
:103690007727E61BF70BE29F8001E39F100DF29F57
:1036A000100D1124E12F722F42305105B1F048F472
:1036B0004115510569F04130510561F0EB2F8D2F17
:1036C00007C04430510589F060F046305105B1F72C
:1036D0006E2F8FCFE22F7D2FFBCFE22F7B2F812FFD
:1036E000F7CF7B2F822FED2FF3CFEB2F822F712F70
:1036F000EFCF41E00E94E61A0895E3EEF2E0808306
:10370000618308950E94791B0895CF93DF93762FEC
:10371000E901682F842F0E94821B798368838A8342
:10372000DF91CF910895453B08F044EB0E94851B43
:10373000089580919D05982F9C7F71F480919D053F
:103740008370846080939D058091A005853B18F06F
:1037500084EB8093A0050895883080F7F5CFB0E022
:10376000A0E0E5EBFBE10C947C3288E090E00E9465
:10377000C8356B017C0184E290E00E94C035282F9F
:1037800030E040E050E060E070E080E090E000E297
:103790000E94A932B22FA32FF42FE52FD62FC72FC7
:1037A00097018601BC29A12BFE295E2F532B2B2FBD
:1037B0003A2F4F2F6D2F7C2FCDB7DEB7E8E00C945A
:1037C0009832B0E0A0E0E7EEFBE10C9478324901DA
:1037D0005A016B017C010E94991B8401A4016A2D8E
:1037E0007B2D88E090E00E94F63594014A2D5B2DF8
:1037F000B601C70100E20E94C432622F84E290E069
:103800000E94E435CDB7DEB7ECE00C949432EDE9DC
:10381000F5E025E0208311828FEF828384EB8383A0
:103820001482ADE1B5E012968C91129783601296E6
:103830008C93758130E04FEF54EB60E08681978187
:103840000E94E11B089580919D05817008959091DB
:10385000A105933018F49F5F9093A105882391F000
:1038600020919D0530919E0540919F055091A005A6
:103870006091A1057091A2058091A3059091A40586
:103880000E94E11B089581E00E94271C08959091F9
:10389000A105992319F091509093A105882391F0E7
:1038A00020919D0530919E0540919F055091A00566
:1038B0006091A1057091A2058091A3059091A40546
:1038C0000E94E11B089581E00E94471C089521E0B9
:1038D00030E001C0220F8A95EAF7909120059223EB
:1038E00081E009F480E0089570E00E9408230895C3
:1038F000A5E0B0E0EEE7FCE10C947732B090E40292
:1039000090919D0590FF16C0C0901405D0901505AC
:10391000C114D10409F58091E30233E0839FC00113
:1039200011246B2D8B559A4F0E94741C2596EDE047
:103930000C9493328091E5022091E60233E0839F5C
:10394000F0011124EB55FA4F8217F0F61182108224
:1039500012828F5F3396F8CF90FFDDCFA12C33E03A
:10396000732E8A2D0E94671C8823B9F1F601E59019
:10397000F490E114F10479F245E050E0B701CE0192
:1039800001960E94DF3209810F3F39F18A81800F51
:103990009927991F8131910514F080E190E04C0145
:1039A000880C991C880D991D9C012B553A4F490193
:1039B000079D800111240B551A4F0815190520F099
:1039C00035E0E30EF11CD8CF98014D816C818B81DD
:1039D0000E94931B0D5F1F4FF0CF82E0C80ED11CD9
:1039E000A39428E0A212BDCF96CF90919D0590FFA1
:1039F0000EC09091E5022091E60233E0939FF00122
:103A00001124EB55FA4F921718F00E94781C089574
:103A10008183608342839F5F3396F5CFA3E0B0E05C
:103A2000E4E1FDE10C947E3290919D0590FF42C04F
:103A300030919E05381308C030919F05361304C09D
:103A40003091A005341729F030911F053260309372
:103A50001F05E22E142F062FF82EE92FE695E69586
:103A6000F0E0E55FFB4F808180931D059C7F9430E3
:103A700059F49E012F5F3F4F8F2D0E94931B4B8166
:103A800069818A810E94F51CF0929E0500939F0532
:103A90001093A005EE2071F020919D056091A10585
:103AA0007091A2053F2DA8018091A3059091A405D6
:103AB0000E94E11B2396E6E00C949A32EDE9F5E0D2
:103AC0009181282F438162818AE0890F0E940E1D17
:103AD000089581E00E945E1D0895EDE9F5E0918171
:103AE000282F4381628186EF890F0E940E1D089561
:103AF00081E00E946D1D0895EDE9F5E0628121E10C
:103B0000620F08F46FEF282F438181810E940E1D00
:103B1000089581E00E947C1D0895EDE9F5E0628141
:103B200021E1621B08F460E0282F438181810E941B
:103B30000E1D089581E00E948D1D0895EDE9F5E0C8
:103B4000438121E1420F08F44FEF282F62818181E8
:103B50000E940E1D089581E00E949E1D0895EDE9CA
:103B6000F5E0438121E1421B08F440E0282F628107
:103B700081810E940E1D089581E00E94AF1D08956D
:103B800020E00E940E1D089510921F05089528E060
:103B9000EDE9F5E0DC0101900D922A95E1F7409105
:103BA0001D0550911E0560911F0570912005FC01B7
:103BB00040875187628773870895EDE1F5E01182B0
:103BC0008281846082830895EDE9F5E080818E7FB3
:103BD00080830E94DD1DEDE1F5E0828181608283BA
:103BE0000E94781C0895EDE9F5E020812E7F208366
:103BF00031814281538164817581868197810E94E0
:103C0000E11B0E94DD1DEDE1F5E082818160828390
:103C10000E94781C089560919D056695669570E0F8
:103C200041E050E088EE92E00E94E832892B19F4DE
:103C300081E080931E050E9497169093170580934C
:103C4000160580911F05846080931F0508952091BB
:103C50009D0520FF35C02370246020939D05809131
:103C60001F05816080931F05662381F030919E05BA
:103C700040919F055091A0056091A1057091A2050A
:103C80008091A3059091A4050E94E11B60919D0580
:103C90006695669570E041E050E088EE92E00E9403
:103CA000E832892B71F00E94DD1D81E080931905B7
:103CB0004091A00560919F0580919E050E94C01DC6
:103CC00008950E940B1EF1CF682F81E00E94271EED
:103CD000089581E00E94641E0895682F90919D05CB
:103CE000969596958FEF890F09F481E00E94271E23
:103CF000089581E00E946D1E089561E00E94271ED4
:103D00000895EDE9F5E08081816080838695869550
:103D10000E947D1E089580919D0580FF03C00E9432
:103D2000F31D08950E94811E089560E00E94271EE1
:103D3000089580911C05811144C00E94AB1281112D
:103D400004C00E944B130E94071C0E94AF1B2093CB
:103D50009D0530939E0540939F055093A005609369
:103D6000A1057093A2058093A3059093A40580916B
:103D70001F05836080931F052C7FA1F40E94071C00
:103D80000E94AF1B20939D0530939E0540939F0595
:103D90005093A0056093A1057093A2058093A3059D
:103DA0009093A4050E94991B0E94DD1D80919D05A2
:103DB00080FF04C0869586950E94951E81E08093C1
:103DC0001C0508951F93CF93DF93EC01162F8A856E
:103DD00084FF03C09B859093200580FF0EC08881DF
:103DE00080FF26C080919D05816080939D0588811C
:103DF000612F869586950E94271E8A8581FF06C0C1
:103E0000212F4B816A8189810E940E1D8A8582FF44
:103E100005C08985882379F00E940B1E8A8583FF5F
:103E200003C081E080931905DF91CF911F91089520
:103E30000E94E41DE2CF0E94DD1DF0CF80911E059F
:103E4000882309F445C080919D05869586959091BB
:103E50001D05891B8093180580911905882361F041
:103E6000109219050E9497169093170580931605D6
:103E700010921B0510921A050E94971620911605A4
:103E800030911705AC01421B530B4F3F5F4700F5C4
:103E9000409112054423B1F0109212054091100593
:103EA00050911105841B950B8F3F9F4758F4405D3F
:103EB0005A48509311054093100580911F05886062
:103EC00080931F052053384F309317052093160514
:103ED00080911305882361F01092130580911E05CF
:103EE000811106C080919D05869586950E94951E3C
:103EF000089508950E941E1F0895FA01811101C0BE
:103F0000FB01099508951F93CF93DF93FB01158162
:103F1000111124C0EC010E94AA118272FE01E0522C
:103F2000F847E531F105C8F4E856F04E0C946C32D0
:103F3000B31FB61FBD1FC21FC71FCC1FD11FD61F67
:103F4000DB1FE01FE51FEA1FAE1FAE1FAE1FAE1F37
:103F5000AE1FAE1FAE1FAE1FAE1F11E0812FDF914F
:103F6000CF911F9108950E948B1EF8CF49E75EE123
:103F700069E67EE10E947D1FF1CF49E65EE169E7D7
:103F80007EE1F8CF48E75DE169E67DE1F3CF49E600
:103F90005DE168E77DE1EECF4AE95DE169E87DE159
:103FA000E9CF49E85DE16AE97DE1E4CF4CEB5DE111
:103FB0006BEA7DE1DFCF4BEA5DE16CEB7DE1DACFCF
:103FC00043E65CE163E47CE1D5CF43E45CE163E696
:103FD0007CE1D0CF81E00E947D1EC0CFAB0124E602
:103FE00030E0BC0188E70E94B12921E0892B09F06B
:103FF00020E0822F0895B0E0A0E0E1E0F0E20C9430
:104000007C326C017B0164E670E088E70E9417292E
:104010008C01E601EC0CFD1CCE15DF0561F40E945D
:10402000F92981E00115110509F080E0CDB7DEB76F
:10403000E8E00C94983217FDF2CFFE01849164E61B
:1040400070E00E9483298C012196E6CF0F931F9385
:104050009B0104E610E0AC0160E488E70E94D229ED
:1040600021E0892B09F020E0822F1F910F91089504
:104070000E94112908950895E5EDF5E080E092E0B1
:10408000DF019C011D9221503040E1F7F093DC07E5
:10409000E093DB078FEF9FEF90934D0580934C05E6
:1040A0000895CF930E943B200E94CE06809348053E
:1040B00080FD11C080E8809347050E9438206BE0A6
:1040C00070E08EEB94E00E94FB1F811106C0C0E0FF
:1040D0008C2FCF91089580E2EECF8091480565E066
:1040E00070E081FD27C089EB94E00E94FB1F8823CC
:1040F00071F36DE070E087EA94E00E94FB1FC82F27
:10410000882329F30E949828605A75418F4F9F4F4A
:104110006093D7077093D8078093D9079093DA07F5
:104120000E943C2081E080934B0580934A051092C9
:104130004905CECF84EB94E0D8CF2091470536E0F7
:10414000839FC0011124629F800D911D1124811550
:1041500022E0920714F090E080E08B529A4F909307
:10416000DC078093DB0708952091DB073091DC07A3
:104170002F5C354040914705642F70E0C9010E94D3
:104180005832481B463010F4240F311D211582E0AF
:10419000380710F030E020E02B523A4F3093DC0724
:1041A0002093DB0708951F93CF93DF93162F8A3058
:1041B00039F481E00E944C21DF91CF911F91089545
:1041C0008D3011F480E0F6CFC091DB07D091DC0791
:1041D00096E0FE01A1E2B5E001900D929A95E1F71B
:1041E000803EB8F086E0FE0111928A95E9F7111140
:1041F0001CC0C091DB07D091DC0746E050E0BE0157
:1042000081E295E00E94F532892BE9F40E94B42006
:10421000D3CFF6E08F9FB001112467537B4F46E068
:1042200050E0CE010E94DF32E2CFE091DB07F09157
:10423000DC079F012A5F3F4F2E173F07D1F2808195
:1042400080958193F9CFC55DD540CE0125E0969547
:1042500087952A95E1F721E030E0A90102C0440FDB
:10426000551F8A95E2F7CA0140914C0550914D05C2
:10427000842B952B259645E0D695C7954A95E1F771
:1042800002C0220F331FCA95E2F7822B932B909323
:104290004D0580934C05BACFCF93382FE091DB07C3
:1042A000F091DC07E55DF54020914705622F70E055
:1042B000CF010E945832281B822F332369F066E019
:1042C0000E944C32C82FC15010F4CF91089560E085
:1042D00080E20E94D320F7CF9F01280F311D2115C6
:1042E000324018F080E0F0E0E0E08E0F9F2F911D4B
:1042F0008B529A4F9093DC078093DB07E6CFFF92B7
:104300000F931F93CF93DF93EC01F62EFC010190E6
:104310000020E9F78F0101501109C017D10728F0DB
:10432000CDB7DEB7E5E00C949B326F2D89910E94EA
:10433000D320F3CF0E947F2181E00E944C21089579
:1043400080914B05811103C080914A0508950E9418
:104350009828605A75418F4F9F4F6093D70770938D
:10436000D8078093D9079093DA0780914A05811185
:10437000EBCF62E070E085EA94E00E94FB1F8823A7
:1043800019F381E080934A05DFCFA4E0B0E0EBECC5
:10439000F1E20C94723220914C0530914D05232BA3
:1043A000F1F090914B059923D1F09091490591112D
:1043B00016C08C830E94A02110E01B8244244394E9
:1043C000512C03E0E0E2FE2E80914C0590914D05CA
:1043D000009729F0112351F0FC81F11107C02496B8
:1043E000E2E10C948E322B812F5F2B833B81C32E15
:1043F000D12C520102C0AA0CBB1C3A95E2F79501E0
:1044000028233923232B79F38091480580FD3CC074
:104410008B818295880F80768093EB02960136958A
:104420002795369527952093EE02815E8093EC02C6
:104430002093EF0267E070E089EE92E00E94EE1FA9
:10444000882369F2C60155E0880F991F5A95E1F754
:104450002091480520FD26C060E270E08B529A4F03
:104460000E942620882309F4BACFC5018095909533
:10447000A0904C05B0904D05A822B922B0924D05F0
:10448000A0924C051F5FA0CF8B81880F880F880FEB
:104490008093EB021092EE02895F8093EC0200930E
:1044A000EF02C8CFA7E2B5E0EF2D1D92EA95E9F73C
:1044B00021E134E03A8329836DE074E0A981BA8177
:1044C0002D91BA83A983FB012190BF01280E392EBB
:1044D000311CA1014B525A4F1A0130E0295D3A4F6D
:1044E000F90147E0942EAF01421B530B742C01C01D
:1044F000770C4A95EAF76101812CD601ED906D01A8
:10450000E720492D48194770642E042E000C550BE6
:10451000BE2D01C0BB0F6A94EAF76B2E51954195F1
:1045200051094770552701C0E6944A95EAF76E286D
:10453000E0806E286082839448E08412DECF9A94F3
:1045400031965FEF9512CFCFA5E1B4E0E981FA8112
:10455000AE17BF0709F0B2CF60E270E087E295E0E6
:104560007FCF80914A0590914B05911103C091E056
:1045700089270895882369F062E070E083EA94E077
:104580000E94FB1F811103C080914A05089510927B
:104590004A0580914A05EBCF0E94D90608950F93F2
:1045A0001F9380914B05882381F18091D5079091CD
:1045B000D6070E94A428C29760F00E948C2890938E
:1045C000D6078093D50760E080E00E949D200E947E
:1045D000CC2280E00E94C52180914A058823A9F061
:1045E0000E9498280091D7071091D8072091D907E9
:1045F0003091DA07601B710B820B930B6F3F7F4F7B
:104600008F4F9F4710F40E94B1221F910F91089580
:10461000539A2BB1277F3BB138604FB7F894FC0118
:10462000CB01880F991F680F791F6E0F7F1FE61748
:10463000F70741F44FBF8FE594E00197F1F700C011
:1046400000000895819198E03BB9000000C087FF09
:104650002BB9880F000000C000C000C02BB900C0FB
:104660009A9591F7E4CF0895FC01680F791F8FEFB9
:1046700091E3E617F70709F408952191822728E0CE
:1046800030E087FF06C0880F892721503109C9F71C
:10469000F0CF880FFACFCF93DF9386319C4719F57F
:1046A000EB010E94AA119D81992399F08A7A91E0E9
:1046B00009F490E090934E05811109C089E20E94AF
:1046C000CA270E94411280E0DF91CF91089585E3CF
:1046D000F6CF80914E05811104C089E20E94D22755
:1046E000F0CF85E3FBCF81E0EFCFCF93DF93EC01F9
:1046F000FB018581882309F4F5C09E0130572332E0
:10470000310508F0D5C00E94C012909386058093B1
:104710008505FE01E150F047E232F10508F026C0C0
:10472000EC56FC4D0C946C32F0236424F823C22325
:10473000C623FC23CA2300240C24D6235D24DA23B9
:104740001024DE2314243C24E22318244324E823E9
:104750001E242624CE230424D2230824EC2322243E
:1047600032244C245B24BC23F4236B2480918505E4
:1047700081608093850593C08091860588608093D1
:1047800086058DC0809185058260F3CF8091850577
:104790008460EFCF809185058860EBCF809186059E
:1047A0008160EDCF809186058260E9CF809185059B
:1047B0008061DFCF809185058062DBCF80918505A8
:1047C0008064D7CF0E940E0D809185058068D1CF7F
:1047D000809185058860DCCF809186058260E0CF7E
:1047E000809185058E7FC5CF80918605877FC7CF55
:1047F000809185058D7FBDCF809185058B7FB9CF59
:1048000080918505877FB5CF809186058E7FB7CF54
:10481000809186058D7FB3CF809185058F7EA9CF4E
:10482000809185058F7DA5CF809185058F7BA1CF58
:104830000E940E0D809185058F779BCF8091850515
:10484000877FDCCF809186058D7FE0CF80918505C5
:1048500082FB992790F921E0922790FB82F990FB47
:1048600083F987CF80918605982F909591708E7FE0
:10487000892B90FB81F983CF90918505892F8F7BC0
:1048800096FF806476CF0E940E0D90918505892F4A
:1048900097FB87F980586DCF81E00E944E1380917D
:1048A0008505909186050E94C5120E940E0D80E03C
:1048B000DF91CF91089580E0F0CF90918505892F09
:1048C0008F7E94FF806155CF90918505892F8E7FD3
:1048D00090FF81604ECF90918605892F877F93FF4F
:1048E00088604DCF81E0E4CFB0E0A0E0EAE7F4E2F9
:1048F0000C947D32E82FF0E0E75FF54FD490282F3D
:1049000026952695269530E0F901E755F54F049157
:10491000877010E0082E02C0159507950A94E2F7FB
:1049200001701127F901E756F54FE490F12C082E9C
:1049300002C0F594E7940A94E2F791E0E922FF249B
:10494000F901E757F54FC491D0E002C0D595C7955E
:104950008A95E2F7C170DD270115110519F081EE86
:104960000E940F0AE114F10419F086EE0E940F0A6A
:104970008D2D0E94910AE114F10419F086EE0E9437
:104980004F0A0115110519F081EE0E944F0ACD2B37
:1049900019F08CE20E94910ACDB7DEB7E7E00C94E3
:1049A0009932EF92FF920F931F93CF93DF938C0175
:1049B000F62E8AE0E82EF8018491882309F454C089
:1049C000813009F04DC0E8012196FE0184918130CB
:1049D00091F42196FE0184910E94910A8E010F5F4D
:1049E0001F4F8F2D815038F3EFE9FFE03197F1F73A
:1049F00000C00000F7CF823039F4E8012296FE01B2
:104A000084910E940F0AEACF833039F4E80122969C
:104A1000FE0184910E944F0AE1CF8430F9F6E8014B
:104A20002296FE01249190E080E0FE013196205311
:104A3000330B2A30310548F0019780F2EFE9FFE0AF
:104A40003197F1F700C00000F7CFE89EA001E99E82
:104A5000500D1124C901840F951F2491EF01E5CF5A
:104A60000E947424E801BACFCDB7DEB7E6E00C941B
:104A70009A320F931F93CF93DF93C42FD22FFC0151
:104A800085818823C9F0409351050E948C2890931A
:104A9000500580934F0580E28C0F883040F4C7703A
:104AA00081E001C0880FCA95EAF70E949A0ADF9157
:104AB000CF911F910F91089510915105141332C099
:104AC00080914F05909150050E94A428883C910543
:104AD00048F5C0E2CD0F1D17B9F080E2810F883094
:104AE00040F4177081E001C0880F1A95EAF70E9420
:104AF000A10AC83010F581E09D2F977001C0880F82
:104B00009A95EAF70E949A0A802F0E94910AC8306B
:104B100070F6D77081E001C0880FDA95EAF70E943D
:104B2000A10AC5CF80E28C0F883008F6C77081E0FB
:104B300001C0880FCA95EAF7F2CF802F0E94910A30
:104B4000B6CF0F93FC01E851FC47E730F10508F0C0
:104B50003AC0CB01E255FA4D0C946C32C525CB25F9
:104B6000B525BF25D125D725DD2506E221EE41EE6D
:104B70006AE17CE70E94392580E00F91089507E201
:104B800025EE45EE6BE17CE7F5CF06E221EE40EE47
:104B900068E17CE7EFCF07E225EE44EE69E17CE7D0
:104BA000E9CF06E221EE42EE6CE17CE7E3CF07E2DB
:104BB00025EE46EE6DE17CE7DDCF08E221E045EE33
:104BC0006EE17CE7D7CFFB018581882319F0109235
:104BD0005105D3CF81E0D1CF4115510511F0FA0134
:104BE00009950895CF93DF93EC014A855B856E8527
:104BF0007F850E94EC258B810E94C7118C810E94C9
:104C0000B3110E94411286E0FE0111928A95E9F7E4
:104C1000DF91CF910895CF93DF93EC018D8181FDDA
:104C200011C082608D838B810E94C1118C810E9492
:104C3000AD110E944112488559856E857F85CE0150
:104C40000E94EC2510925505109254058D8180FD2F
:104C500003C0CE010E94F225DF91CF910895CF933A
:104C6000DF93FC012281223049F4FB01EC018281B7
:104C700093810E9447088D8182608D83DF91CF915F
:104C80000895FB01808191810E9447080895FC01ED
:104C90008281813031F4FB01808191810E945D0825
:104CA00008958230E9F7FB0182819381F7CFCF939A
:104CB000FB01C581CC2309F12091540530915505A4
:104CC00021153105E9F028173907D1F0AC01C901E8
:104CD000992724E0880F991F2A95E1F7FC01EB5BE7
:104CE000FE4F208124602083805C9E4FFC01518315
:104CF00040830E940B260E94CF118C2FCF910895E4
:104D0000C0E0FBCF0F931F93CF93DF938C01975598
:104D10008F3F910509F0E0F5F801FF2784E0EE0FE1
:104D2000FF1F8A95E1F7EF01C05CDE4FDB011596AE
:104D30009C911597EB5BFE4F808190FB80F98083FF
:104D400015968C91882351F10E948C2890935305DD
:104D5000809352058A818F5F8A830E94AA118B8378
:104D60000E94BE119B81892B8B830E94D2118C8360
:104D70004E815F816E857F85CE010E94EC258D81FD
:104D800081FF02C010E000E0109355050093540528
:104D900081E0DF91CF911F910F9108954C855D8542
:104DA0006E857F85CE010E94EC258D8181FFF0CF3D
:104DB000CE010E94F22580915405909155058017EF
:104DC000910731F71092550510925405E1CF80916B
:104DD000540590915505892BE9F0809152059091E9
:104DE00053050E94A428893C9105A0F080915405A8
:104DF00090915505992724E0880F991F2A95E1F78E
:104E0000FC01EB5BFE4F208122FD04C0805C9E4FC5
:104E10000E940B26089510925505109254050E9489
:104E2000F225089590935C0580935B0508950E9498
:104E30007718811103C0809156050895E0915B05B4
:104E4000F0915C05309729F00190F081E02D0995F3
:104E5000089580E00895E0915B05F0915C0530973E
:104E600021F00280F381E02D09950895A3E0B0E0E0
:104E7000ECE3F7E20C9482322091590530915A0507
:104E800028173907A1F090935A0580935905E091AE
:104E90005B05F0915C05309751F023E029839B83FB
:104EA0008A830084F185E02DCE0101960995239631
:104EB000E2E00C949E32A3E0B0E0E1E6F7E20C946D
:104EC0008232209157053091580528173907A1F0F3
:104ED0009093580580935705E0915B05F0915C0530
:104EE000309751F024E029839B838A830084F185E5
:104EF000E02DCE01019609952396E2E00C949E32B6
:104F0000E091C002F091C102329697E080E09150AA
:104F100009F4089521912223D1F38F5FF8CF8823DC
:104F200071F02091C0023091C102F9013296285FE0
:104F30003F4F9191981729F0E217F307D1F780E0DE
:104F4000089581E008959C01FC0132969FEF80E076
:104F50004191461751F09F3F19F4411101C0982F1C
:104F60008F5F8630A9F79F3F09F40895290F311DFF
:104F700097FD3A95F90162830895FC0132960896EF
:104F80002191261303C0DF0111971C92E817F9073E
:104F9000B9F70895682F8091C0029091C1020E94D4
:104FA000A3270895682F8091C0029091C1020E94AA
:104FB000BD270895E091C002F091C102329686E0CB
:104FC000DF011D928A95E9F7089508950E94E5276B
:104FD0000895811106C081E080935D050E94E62757
:104FE000089582E0F9CF83E080935D050E94E62773
:104FF00008950E94E927089581E080935D050E944D
:10500000E62708950E94FC270895089508950E94B8
:1050100006280895089508950E9405280895CF93BD
:105020000E940A280E94F1170E940B28C0E08C2FD2
:105030000E94CB16811105C0CF5FCA30C1F7CF9156
:10504000089581E0FCCF85B7806885BF85B780680B
:1050500085BF08951F920F920FB60F9211248F9360
:105060009F93AF93BF9380915E05811113C0809190
:10507000DD079091DE07A091DF07B091E007419630
:10508000A11DB11D8093DD079093DE07A093DF077C
:10509000B093E007BF91AF919F918F910F900FBE9A
:1050A0000F901F9018958091E507843031F10E9490
:1050B0008B0910925E0588E190E020E40FB6F89429
:1050C000A895809360000FBE2093600083B7817F16
:1050D000846083BF83B7816083BF7894889583B7EA
:1050E0008E7F83BF0FB6F894A89580916000886189
:1050F00080936000109260000FBE08950E940E0D14
:105100000E949209089582E084BD93E095BD9AEFD4
:1051100097BD80936E0008952FB7F8948091DD07B6
:105120009091DE07A091DF07B091E0072FBF0895AF
:105130002FB7F8946091DD077091DE078091DF074B
:105140009091E0072FBF08959C014FB7F89480918C
:10515000DD079091DE07A091DF07B091E0074FBF18
:10516000821B930B0895CF92DF92EF92FF922FB79D
:10517000F894C090DD07D090DE07E090DF07F09054
:10518000E0072FBFA7019601261B370B480B590BD1
:10519000CA01B901FF90EF90DF90CF900895789405
:1051A0001F920F920FB60F9211248F939F93AF937C
:1051B000BF938091DD079091DE07A091DF07B0914A
:1051C000E0070196A11DB11D8093DD079093DE07D6
:1051D000A093DF07B093E007BF91AF919F918F91AC
:1051E0000F900FBE0F901F90189587E797E7909349
:1051F00001088093000888E19AE00FB6F894A8951A
:10520000809360000FBE90936000FFCF88E19AE02A
:105210000FB6F894A895809360000FBE909360003D
:10522000FFCF1092B9008CE08093B8000895B0E0F1
:10523000A0E0EDE1F9E20C947932B82EEB010E9486
:105240008C286C01EE24E394F12CC431D10560F07C
:1052500025E0E22EF12CCF3FDC0731F0CE0164E1F6
:1052600070E00E9458327B0184EAA82E94E8992EBF
:105270001092BC00A092BC000E948C288C018091EE
:10528000BC0087FF0DC08091B900887F8830F9F09D
:105290008091B900887F8031D1F00FEF1FEF08C0F7
:1052A000C8010E94A428E816F90648F70EEF1FEF80
:1052B000CF3FDC07E9F2C6010E94A428C817D9072E
:1052C000B8F6C801CDB7DEB7EBE00C949532B092DA
:1052D000BB009092BC000E948C288C018091BC0085
:1052E00087FF0AC08091B900887F883111F080342F
:1052F000A1F610E000E0E5CFC8010E94A428E8165E
:10530000F90660F7D3CF0F931F93CF93DF93EB0191
:105310008093BB0084E88093BC000E948C288C01A1
:105320008091BC0087FF11C02091B900287F81E0E7
:1053300090E0283211F490E080E0919581959109F8
:10534000DF91CF911F910F910895CF3FDC0741F37B
:10535000C8010E94A428C817D90710F78EEF9FEF45
:10536000EFCFB0E0A0E0E7EBF9E20C947C326B0108
:105370008A017901B9010E941729E6010C0D1D1D52
:10538000C017D10711F097FF08C024E92093BC0093
:10539000CDB7DEB7E8E00C949832B70189910E944E
:1053A0008329EECFB0E0A0E0E8EDF9E20C947C3286
:1053B000C62F6A017901B8010E94172997FD0CC018
:1053C000B8018C2F0E948329E601EC0CFD1CCE1540
:1053D000DF0511F097FF08C024E92093BC00CDB78A
:1053E000DEB7E8E00C949832B80189910E948329D5
:1053F000EECF84E98093BC0008958EE14A9B02C001
:105400008150E1F74A9BFECF08955A9880E28A9531
:10541000F1F75A9A0895FC013BE03A95F1F798E0CC
:1054200020E080E031E040E14A95F1F7880F4A9BA7
:1054300002C08160232742E04A95F1F7000040E175
:105440004A95F1F7915079F790E19A95F1F799B172
:1054500032E03A95F1F7000040E14A95F1F792FB0E
:10546000992790F992272081920F90830895A1E0C7
:10547000B0E0EDE3FAE20C947E3219828C017C01FB
:10548000E60EF11C0E151F0541F481E09981911182
:1054900080E02196E6E00C949A320E94FD29CE012C
:1054A00001960E940B2AF80181938F01EBCF529A4B
:1054B0005A9A089552985A9AEA9AE9E6F0E0808159
:1054C0008F7C808308956150770B91E001C0990F24
:1054D0006A95EAF720E031E0911108C0222391F0AB
:1054E0005A9A80E28A95F1F75A980895492F4823ED
:1054F00039F05A9A232740E24A95F1F79695ECCF76
:105500005A98F9CF5A98EDCFFF920F931F93CF93EC
:10551000DF93EC018C01060F111DC017D10729F490
:10552000CDB7DEB7E5E00C949B32F9900E94052AD6
:1055300068E08F2D0E94632AF0CF1F920F920FB662
:105540000F9211240F931F932F933F934F935F93C9
:105550006F937F938F939F93AF93BF93EF93FF933B
:10556000CF93DF931F92CDB7DEB719820E94FD293A
:10557000CE0101960E940B2A082F069506950695E6
:10558000982F92959570202F2570920F292F2370B8
:1055900096959695920F877089135FC089818111C6
:1055A0005CC0053008F059C080E18A95F1F75A9A3D
:1055B000529A82E08A95F1F700C05A9888E0089FD5
:1055C00080011124D801AD53BD4F1696ED91FC9189
:1055D00017973097A9F06091090470910A04149606
:1055E0002D913C911597260F371F11968D919C9107
:1055F0001297680F791F13964C9113978C91099508
:10560000F801ED53FD4F6381662351F08091090449
:1056100090910A0424813581820F931F0E94842A6D
:105620000E94052A80E18A95F1F75A9852985A9A71
:1056300080E18A95F1F7F801ED53FD4F6081662313
:1056400051F08091090490910A0421813281820FE6
:10565000931F0E94372A0E94FD290F90DF91CF915E
:10566000FF91EF91BF91AF919F918F917F916F913A
:105670005F914F913F912F911F910F910F900FBE0E
:105680000F901F9018950F931F93CF93DF93853042
:1056900091050CF04DC0EC01F894529A5A9885E0AF
:1056A0008A95F1F700009C2F969595708C2F857048
:1056B000980F892F83709695969523E0CC0FDD1F68
:1056C0002A95E1F7980F8E01092B0E94052A00C048
:1056D00068E0802F0E94632A80E18A95F1F7529852
:1056E0005A9A4A9B1EC087E090E04A991CC0FE016E
:1056F000ED53FD4F63816623F9F080910904909189
:105700000A0424813581820F931F0E94372A811158
:1057100013C0529A5A9A7894DF91CF911F910F91AA
:10572000089500C0DECF019729F4529A5A9A7894CE
:1057300080E0F2CF00C0D9CF0E94FD2980E28A9597
:10574000F1F75A98529A80E18A95F1F7CD53DD4FDF
:105750006881662351F08091090490910A0429819F
:105760003A81820F931F0E94842A0E94052A78940E
:1057700081E0D2CF809167050895089508959B0137
:105780009091E5079430F1F48F708093E9008FEFEA
:105790009091E800815095FD06C095ED9A95F1F73E
:1057A00000008111F5CF8091E80085FF0BC0BA01A0
:1057B000C90150E040E00E94B22D8091E8008E7750
:1057C0008093E800089543E050E0BC0182E00E942D
:1057D000BF2B0895CF93DF93EC0148E050E0BC016C
:1057E00081E00E94BF2B88E0FE01AFE5B5E00190AB
:1057F0000D928A95E1F7DF91CF9108958091E407AA
:10580000811109C00E94422F0E949F2F8091E200C7
:1058100084608093E20008951092E40708950E9446
:10582000FC2708956091E10781E0611101C080E0EB
:105830000E94F32708959091E50781E0943009F0E4
:1058400080E06091E1070E94F927089542E061EC51
:1058500081E00E94C02E42E261EC82E00E94C02EF4
:105860009091E50781E0943009F080E06091E107D4
:105870000E94E92708958091E707833009F464C006
:1058800030F48130E9F1823009F4A1C008958A3002
:1058900009F48DC08B3009F472C0893009F053C00F
:1058A0008091E607813209F04EC08091EA0790911D
:1058B000EB07029708F047C08091E800877F80934C
:1058C000E8008091E80082FF3AC08091F300909157
:1058D000F200892798278927029731F48091F100F7
:1058E000813011F0863021F48091F10080936705BA
:1058F0008091E8008B778093E8000E94F42E23C00B
:105900008091E607813AF9F48091E800877F8093DF
:10591000E8008091EA079091EB07892B61F468E039
:105920008FE595E070E00E94012E8091E8008B7772
:105930008093E800089560E090E080E0F3CF8091EC
:10594000E5078111BECF08958091E607813AD9F726
:105950008091EA079091EB07892BA9F78091E800E5
:10596000877F8093E8008091E80080FFFCCF8091E2
:10597000FA028093F1008091E8008E77BCCF80918D
:10598000E607813201F78091EA079091EB07892BB6
:10599000D1F68091E800877F8093E8000E94F42E82
:1059A0008091E8078093FA020E940E0D089580917D
:1059B000E607813241F68091E800877F8093E80016
:1059C0000E94F42E8091E9078093680508958091E4
:1059D000E607813A09F0B7CF8091E800877F80938E
:1059E000E8008091E80080FFFCCF80916805C1CF7E
:1059F00084B7877F84BF0FB6F894A8958091600024
:105A0000886180936000109260000FBE80E890E093
:105A10000FB6F89480936100909361000FBE0E94CE
:105A2000022808950E94422F0E949F2FE2EEF0E08C
:105A300080818460808378940E941E32089580EF74
:105A400092E00E94122708958091E507853031F495
:105A50008091E507853019F00E947E2808950E9404
:105A600053288091E307882399F30E940F28882305
:105A700079F30E949C2D0E940E0DEACF08959A01A1
:105A80004091EC075091ED070E94472D0895492F52
:105A900055274330510571F158F441305105E9F073
:105AA0004230510511F190E080E050E040E019C033
:105AB0004132510591F142325105A9F784E490E059
:105AC0004EE55BE06115710561F082E390E04CE228
:105AD0005BE06130710529F0E6CF82E190E04AE1B8
