:100000000C943B060C9458060C9458060C946E2ED7
:100010000C9458060C9458060C9458060C945806E8
:100020000C9458060C9458060C94481B0C940C1B0A
:100030000C94C4270C9458060C9458060C9458063B
:100040000C9458060C9458060C9458060C945806B8
:100050000C9458060C94201C0C9458060C945806CA
:100060000C9458060C9458060C9458060C94580698
:100070000C9458060C9458060C9458060C94580688
:100080000C9458060C9458060C9458060C94580678
:100090000C9458060C9458060C9458060C94580668
:1000A0000C9458060C9458060C9458060102E10171
:1000B00001340103E1000102E10101250103E10036
:1000C0000102E10101320103E1000102E101012627
:1000D0000103E10001013200010134000101390096
:1000E0000102E3010107000102E3010151000102E5
:1000F000E3010152000102E201013D000102E001C1
:1001000002E2010117004C001E001F002000210028
:100110002200407E075709570A5713001C002B2264
:1001200004001200080018440C00000008571400D6
:100130000D000E001B000000000000002C412924CF
:1001400004574600270026002500240023002F2204
:100150000F000B0006000A0009002A0016000257D3
:10016000170015000700E7001D0019001A00100015
:1001700005000000000006572842362105570100FF
:100180003A003B003C003D003E0001000000000042
:10019000E2002B0000000100000000007C007D0058
:1001A000000001000000000000000000000000004E
:1001B00001000100010001000000000043004200B6
:1001C000410040003F00A9000000000000000000C6
:1001D0000000A8000E570D570C5700570B57AA00E8
:1001E000000000000000000000000000010001000D
:1001F00001000100000000000000000000000000FD
:10020000000000004A004B00460000000000000013
:100210000F571057115701571257000000000000E8
:1002200000000000000000000000000000000000CE
:1002300000002A0000000000000000000000000094
:10024000457E447E427E417E437E00004F00520048
:1002500051005000000000000000000000000000FD
:1002600000000000000000000000000000002078F6
:1002700021780000000000000000007C0000000069
:10028000000000002078017C000000000000000059
:10029000000000000000000000000000000000005E
:1002A000000000000000000000000000000000004E
:1002B000000000000000007C0000000000000000C2
:1002C0000000017C000000000000000000000000B1
:1002D000000000000000000000000000000000001E
:1002E000000000000000000000000000000000000E
:1002F00000000000000000000000000000000000FE
:1003000000000000000000000000000000000000ED
:1003100000000000000000000000000001000000DC
:1003200000000000000000000000000000000000CD
:10033000000026002500240000000100000023002A
:100340002200210027000000000020001F001E00E6
:10035000000000000000000001000000000000DAC2
:100360000281FFD9F1DB20A4A62EAF00A0C0D300EC
:1003700000A1C8D30000AED580A81F408D14200076
:100380001E0F057F3F1F643214643214783C1E1E1A
:10039000140A05000101010101010101010202022B
:1003A0000202020202020303030303030303040421
:1003B00004040404040505050505060606060607EB
:1003C0000707070708080808090909090A0A0A0BA4
:1003D0000B0B0C0C0C0D0D0D0E0E0E0F0F0F101045
:1003E00011111112121313141415151616171718CC
:1003F0001819191A1A1B1B1C1D1D1E1E1F20202137
:100400002222232424252626272829292A2B2C2D7D
:100410002D2E2F30313232333435363738393A3B9E
:100420003C3D3E3F404142434445464748494A4C93
:100430004D4E4F50515354555658595A5B5D5E5F5F
:10044000616264656668696B6C6D6F7072737577F5
:10045000787A7B7D7E8082838587888A8C8E8F9157
:10046000939596989A9C9EA0A2A3A5A7A9ABADAF81
:10047000B1B3B5B7BABCBEC0C2C4C6C9CBCDCFD16B
:10048000D4D6D8DBDDDFE2E4E7E9EBEEF0F3F5F814
:10049000FAFDFFFFAA7F55402223252628292A2C72
:1004A0002D2F3032333536383A3B3D3E40424345BE
:1004B00047494A4C4E5051535557595A5C5E6062F9
:1004C000646668696B6D6F71737577797B7D7F8109
:1004D000838587898A8C8E90929496989A9C9E9F09
:1004E000A1A3A5A7A8AAACAEAFB1B3B4B6B8B9BB27
:1004F000BCBEBFC1C2C3C5C6C7C9CACBCCCDCED096
:10050000D1D2D2D3D4D5D6D7D7D8D9D9DADADBDB82
:10051000DBDCDCDCDCDCDDDDDDDDDCDCDCDCDCDB19
:10052000DBDBDADAD9D9D8D7D7D6D5D4D3D2D2D162
:10053000D0CECDCCCBCAC9C7C6C5C3C2C1BFBEBC55
:10054000BBB9B8B6B4B3B1AFAEACAAA8A7A5A3A1C6
:100550009F9E9C9A98969492908E8C8A8987858388
:10056000817F7D7B79777573716F6D6B6968666468
:1005700062605E5C5A5957555351504E4C4A494738
:10058000454342403E3D3B3A3836353332302F2DDD
:100590002C2A29282625232200AF00AE0501098038
:1005A000A101850319012AB700150126B70095019D
:1005B00075108100C0050C0901A101850419012AEB
:1005C000A002150126A002950175108100C0050149
:1005D0000906A101050719E029E71500250195087D
:1005E000750181029501750881010507190029FF30
:1005F000150026FF009506750881000508190129D8
:100600000515002501950575019102950175039168
:1006100001C009023B00020100A0FA090400000128
:100620000301010009211101000122440007058195
:100630000308000109040100010300000009211161
:10064000010001223200070582032000011201008F
:100650000200000008D8042DEB0001010200010E89
:10066000034C0069006C0079003500380000001070
:10067000036C0069006C00690075006D0073000078
:1006800000040309040000000000003E5B4F5B3ED5
:10069000003E6B4F6B3E001C3E7C3E1C00183C7EB7
:1006A0003C18001C577D571C001C5E7F5E1C000020
:1006B000183C180000FFE7C3E7FF000018241800EB
:1006C00000FFE7DBE7FF0030483A060E00262979F5
:1006D000292600407F05050700407F05253F005A79
:1006E0003CE73C5A007F3E1C1C0800081C1C3E7F57
:1006F0000014227F2214005F5F005F5F0006097F05
:10070000017F00006689956A006060606060009407
:10071000A2FFA2940008047E04080010207E20108E
:100720000008082A1C0800081C2A0808001E1010CF
:100730001010000C1E0C1E0C0030383E3830000625
:100740000E3E0E060000000000000000005F0000EA
:1007500000000700070000147F147F1400242A7F84
:100760002A12002313086462003649562050000004
:100770000807030000001C224100000041221C0069
:10078000002A1C7F1C2A0008083E08080000807010
:100790003000000808080808000000606000002021
:1007A00010080402003E5149453E0000427F4000CF
:1007B000007249494946002141494D33001814123D
:1007C0007F10002745454539003C4A4949310041E1
:1007D0002111090700364949493600464949291E71
:1007E0000000001400000000403400000000081465
:1007F00022410014141414140000412214080002B1
:1008000001590906003E415D594E007C1211127CCF
:10081000007F49494936003E41414122007F414124
:10082000413E007F49494941007F09090901003ED5
:1008300041415173007F0808087F0000417F41005B
:10084000002040413F01007F08142241007F4040CA
:100850004040007F021C027F007F0408107F003EA2
:100860004141413E007F09090906003E4151215E98
:10087000007F091929460026494949320003017FB2
:100880000103003F4040403F001F2040201F003F29
:100890004038403F006314081463000304780403E5
:1008A000006159494D4300007F4141410002040865
:1008B000102000004141417F000402010204004079
:1008C0004040404000000307080000205454784096
:1008D000007F2844443800384444442800384444C5
:1008E000287F0038545454180000087E090200186C
:1008F00024241C78007F080404780000447D400014
:10090000002040403D00007F102844000000417F4F
:100910004000007C04780478007C080404780038E7
:1009200044444438007C1824241800182424187CDB
:10093000007C080404080048545454240004043F74
:100940004424003C4040207C001C2040201C003CF3
:100950004030403C004428102844004C9090907C4B
:10096000004464544C440000083641000000007705
:100970000000000041360800000201020402003CB1
:100980002623263C000000000000808080800000BC
:1009900000000080E070180C1830E080000010F8B3
:1009A000901030783010B8FC3810000000000000C3
:1009B000F8FCF8000000000000000000000000004B
:1009C0001C9C1C00000000F8FCF800000000000067
:1009D0001CFCF8C000000000000080E0F87C1C0057
:1009E0000000F0FCFCFC1C1C1C1C1C1C1C1C000043
:1009F00000000000C0F0F8381C1C1C1C1C1C3CF83B
:100A0000F0E000E0F0F0F0E0ECEEF7F37020007CB6
:100A10007C7C7E007E7E7E7F7F7F000080C0E07ECB
:100A20005B4F5BFEC00000C000DCD7DEDEDED7DC43
:100A300000C00000000000000000000000000000F6
:100A4000000000000000000000000FBCE081818178
:100A5000838382870C183060C000001FFE90B9FFAE
:100A6000BB91983C1811133F1100000000000000DA
:100A7000FFFFFF0000000000000000000000000079
:100A8000FFFFFF00000000FFFFFF0000000000006C
:100A90000000030F7FF8E080F0FC3F0F0100000032
:100AA00000003F3F3F1C1C1C1C1C3C78F8F0E08001
:100AB00000000000C3E7FF7E3C3878787070F8FFD4
:100AC000DF87000F1F3F7F7F7F7F7F3F1E0C001F50
:100AD0001F1F3F003F3F3F7F7F7F00307B7F78308D
:100AE000202030787F3B0003000F7F0F0F0F7F0F18
:100AF00000030000000000000000000000000000F3
:100B00000000000000183C24666341C181808080A1
:100B100080808081C14162386C4CC6818180808038
:100B2000808081C14362361C180000000000000074
:100B3000FFFFFFC0C0C0C0C0C0C0C0C08000000078
:100B40007FFF7F000000007FFFFFC080000000E00B
:100B5000E0C0C0C0E0F97F1F0700000000000000F7
:100B6000000070F0E0E0C0C0C0C0E0F0F87F3F0FD0
:100B70000000000F3F7FF9E0E0C0C0C0C0C0E0F956
:100B80007F3F1F0000000000000000000000000088
:100B90000000000000000000000000000000000055
:100BA0000000000000000000000000000000000045
:100BB0000000000000000000000000000000000035
:100BC0000000000000000000000000000000000025
:100BD0000000000000000000000000000000000015
:100BE0000000000000000000007E0F00D4FFFFFFA7
:100BF000C70000007800000000000000002A2B2839
:100C000000000000000000000000000000000000E4
:100C100029000000002C1E34202122243426272500
:100C20002E362D3738271E1F202122232425263338
:100C300033362E37381F0405060708090A0B0C0D3A
:100C40000E0F101112131415161718191A1B1C1D4C
:100C50002F3130232D350405060708090A0B0C0D2A
:100C60000E0F101112131415161718191A1B1C1D2C
:100C70002F3130354C0011241FBECFEFDAE0DEBF3C
:100C8000CDBF14E0A0E0B1E0E6E7F8E602C00590D1
:100C90000D92A030B107D9F728E0A0E0B4E001C080
:100CA0001D92A931B207E1F70E94ED270C94393467
:100CB0000C940000482F20910A069091D10557E02E
:100CC000291302C080E0089530E0529FF001539F45
:100CD000F00D1124EE52FA4F8181681306C0808115
:100CE000481303C085818111EECF2F5F3F4F2770DE
:100CF000E7CFFC01AC014B5F5F4F8FEF91E3219198
:100D0000822728E030E087FF09C0880F892721501B
:100D10003109C9F7E417F50791F70895880FF7CF60
:100D2000E8EDF0E080818E7F80831092E2001092E7
:100D3000DA001092E100A0EEB0E08C9181608C931B
:100D400080818F77808319BCA7EDB0E08C918E7F76
:100D50008C9380818F7E80831092BA0508952091B4
:100D6000E4003091E50085E69091EC0090FF06C02C
:100D70009091E80090FF06C080E008959091E8000F
:100D800092FDFACF9091C705992391F0953091F09B
:100D90009091EB0095FD10C04091E4005091E5006A
:100DA0002417350709F381509A01F1F684E008957C
:100DB00082E0089583E0089581E008958091C90557
:100DC00087FF13C08091E80082FF06C08091E80091
:100DD0008B778093E80004C08091C7058111F2CF22
:100DE00008958091C7058823D9F38091E80080FF9A
:100DF000F8CF8091E8008E77ECCF982F9093E900A0
:100E0000242F762F50E0891731F07091EC0020915B
:100E1000ED005091F00021FD07C09F5F973071F702
:100E20008093E90081E008953091EB003E7F30939C
:100E3000EB003091ED003D7F3093ED003091EB0001
:100E400031603093EB007093EC002093ED005093F1
:100E5000F0002091EE0027FDE0CF80E00895B0E0A3
:100E6000A0E0E5E3F7E00C94A92FC8EDD0E088817D
:100E70008F7E8883E7EDF0E080818160808384E06D
:100E800082BF81E08093BA0588818E7F888302EEDD
:100E900010E0F80110821092DA0081EEC82ED12CF9
:100EA000F601108288818F778883888180688883A3
:100EB00088818F7D888319BC1092C7051092C80560
:100EC0001092C6051092C50590EEE92EF12CF7019F
:100ED00080818B7F808388818160888342E060E0AD
:100EE00080E00E94FD06F60180818E7F8083F801FC
:100EF000808181608083808188608083F701808128
:100F00008E7F8083888180618883CDB7DEB7E8E0FB
:100F10000C94C52FFC018091CF059091D0058617C8
:100F20009707A0F06115710529F49091E8009E776C
:100F30009093E80090E06115710551F4911108C09B
:100F40008091E80082FF35C080E00895BC01F2CFB7
:100F50008091C7058823C9F18530C9F18091E800E7
:100F600083FD31C08091E80082FDEACF8091E800E6
:100F700080FFE1CF2091F3008091F200322F282FE3
:100F80006115710519F02830310558F091E02830CD
:100F9000310509F090E02091E8002E772093E800D9
:100FA000CACF81918093F100615071092F5F3F4F4B
:100FB000E7CF8091C705882341F0853041F08091CB
:100FC000E80083FFBDCF81E0089582E0089583E0CB
:100FD00008950895089508958091BC0508952FB748
:100FE000F8946091B6057091B7058091B80590911D
:100FF000B9052FBF08959C01FC0132969FEF80E058
:101000004191461751F09F3F19F4411101C0982FAB
:101010008F5F8630A9F79F3F09F40895290F311D8E
:1010200097FD3A95F90162830895A3E0B0E0EBE102
:10103000F8E00C94AF2F2091B3053091B405281738
:101040003907A1F09093B4058093B305E091B10501
:10105000F091B205309751F024E029839B838A8375
:101060000084F185E02DCE01019609952396E2E0FA
:101070000C94CB2FA3E0B0E0E0E4F8E00C94AF2FA9
:101080002091AF053091B00528173907A1F0909352
:10109000B0058093AF05E091B105F091B2053097AE
:1010A00051F023E029839B838A830084F185E02D1E
:1010B000CE01019609952396E2E00C94CB2F809106
:1010C000AD05882359F0E091B105F091B205309754
:1010D00029F00190F081E02D0995089580E00895B0
:1010E0004115510511F0FA0109950895FA01811190
:1010F00001C0FB0109950895E5E1F5E011828281C7
:1011000084608283089580919B05982F9C7F61F471
:101110008370846080939B0580919E05853B18F0C9
:1011200084EB80939E050895883AB0F38370846AB7
:10113000F1CFB0E0A0E0EFE9F8E00C94A72FC82FC2
:10114000D62F453B08F044EBE42FF0E0ED56FC4F82
:10115000D1110FC0E4919E2F8E2FD90111968C933F
:101160001197EC9312969C93CDB7DEB7EAE00C94FE
:10117000C32FED2EF12CE491FE2FCE2ED12C46E084
:10118000C49FC00111240FEF10E0B8010E948B2F03
:101190008C2F90E0880F991FA5E5A69FA001A79F1F
:1011A000500D1124841B950BC82FCC0FC80FC801FC
:1011B0008E199F098C9DA0018D9D500D9C9D500DF9
:1011C0001124952FDC9FD0011124AB2FBB27580190
:1011D000AA1ABB0AAC9CD001AD9CB00DBC9CB00D52
:1011E00011248B2F5801AC1AB108AE9CE001AF9CC2
:1011F000D00DBE9CD00D1124CD2FDD270C1B1D0B57
:101200000C9DE0010D9DD00D1C9DD00D1124623070
:101210007105B1F058F46115710579F0613071050F
:1012200009F49BCF8E2FE52F9B2F97CF643071054C
:1012300071F048F066307105A9F78E2FED2F8DCF34
:10124000852F9D2F8ACFEB2F852F9F2F86CF8D2F18
:10125000E52FFBCF80E00895F894E82FE295EF703A
:10126000F0E031A1282F2F7081E090E001C0880FBD
:101270002A95EAF7982F9095932391A392A1892B11
:1012800082A3789408950F931F938091AD058823CE
:1012900029F00E94EF071F910F9108950E94EF0718
:1012A00000917504109176042091770430917804B0
:1012B000600F711F821F931FEECF9091850492FFE4
:1012C00010C041E0282F2471243009F040E031E0C3
:1012D000282F2871283009F030E0431711F02CE056
:1012E000822793FF10C041E0282F2471243109F098
:1012F00040E031E0282F2871283109F030E0431711
:1013000011F02CE082273091860430FF10C051E0AC
:10131000282F2171213009F050E041E0282F287159
:10132000283009F040E0541711F029E0822731FFFE
:1013300010C041E0282F2171213109F040E031E057
:10134000282F2871283109F030E0431711F029E0E7
:10135000822794FD877E089582389105B9F1B0F413
:101360008133910509F47DC048F48932910509F46F
:101370006DC08A32910509F479C0089585339105CD
:1013800009F45FC08933910509F10895833E910501
:10139000D9F138F4803E910529F1823E910579F129
:1013A0000895863E9105D9F1873E910509F43EC026
:1013B000843E910541F52091860421FF24C080914F
:1013C000850484FD19C087EE90E00895209185047E
:1013D000237009F056C02091860423FF14C089E2CF
:1013E00090E008952091850420FD38C03091860456
:1013F00030FF09C024FF3FC090E080E008952091B5
:10140000850422FDF7CF08952091850422FD36C082
:101410003091860430FD35C024FDEECFF4CF20910D
:10142000850423FFF0CF24FDE7CFCDCF20918504A5
:1014300023FD2AC03091860431FFEECF84EE90E088
:1014400008952091850425FDCACF08952091850433
:1014500025FD1DC02091860423FFD5CF89E390E0B0
:1014600008952091850426FD15C0089520918504D6
:1014700026FD13C0089583EE90E0089582EE90E07B
:10148000089580EE90E0089586EE90E0089585E35B
:1014900090E008958AE290E0089581E390E0B3CF70
:1014A0007A30B8F46630A8F48530B0F4E62FF0E076
:1014B00096E0799FE00DF11D11249CE3899FE00DDA
:1014C000F11D1124EE0FFF1FEA5FFE4F85919491ED
:1014D000089580E090E0089581E0FCCF1F93CF93C2
:1014E000DF930E94AC09EC01C11580E5D807E8F54F
:1014F000C11580E4D80708F09BC0C03ED10518F59F
:10150000CD3CD10508F081C0C83AD10570F4C53A88
:10151000D10508F072C0C130D10511F118F0C43006
:10152000D105F0F4D0E0C0E01BC0C33CD105D0F73A
:10153000C85AD0E0CC0FDD1FC657DC4F0990D881C8
:10154000C02DD4640DC0C11580E2D80708F0CBC00F
:10155000C11581E0D80708F05AC0C83ED10510F780
:10156000CE01DF91CF911F910895C03682E5D80753
:1015700018F5C03482E5D80708F069C0C03282E5AA
:10158000D80708F05DC0C11582E5D80708F493C0FC
:101590002C2F2695269580E2289F900111248C2FD0
:1015A0008370C1E0D0E002C0CC0FDD1F8A95E2F766
:1015B000C22BD32BDD68D4CFC03A82E5D80760F4C4
:1015C000C03882E5D80708F457C0CF71D0E0DC2FCF
:1015D000CC27C46FD06AC4CFC03C82E5D80708F4DA
:1015E0005EC0C03E82E5D80708F09CCFDC2FCC2738
:1015F000CC27DF71C06FD06AB3CFC55AD0E0C957CE
:10160000DC4FC881D0E0D064ABCFD065A9CF8D2F9F
:101610000E945D09182FCE0199270E94AC09C12FA5
:10162000D0E0DC2FCC27CC27DF71C82BD92B98CF6B
:10163000CE0199270E94AC09CC27DF70D06AF5CF84
:10164000CF71D0E0DC2FCC27C16FD06A89CF2C2F8F
:1016500026952695277080E2289F900111248C2FD3
:101660008370C1E0D0E002C0CC0FDD1F8A95E2F7A5
:10167000DC68C22BD32B74CF2C2F26952695277090
:1016800080E2289F900111248C2F8370C1E0D0E06C
:1016900002C0CC0FDD1F8A95E2F7DA68EACF8C2F03
:1016A0008F710E945D09C82FD0E0DC2FCC27CC279A
:1016B000DF71D06255CF8C2F8F710E945D0955E08C
:1016C000D695C7955A95E1F7CF70D0E0DC2FCC279F
:1016D000282F30E084FF05C044E0220F331F4A95D5
:1016E000E1F7D069C6CF8D2F8F710E945D09182F49
:1016F000CE0199270E94AC09C12FD0E0DC2FCC2766
:10170000CC27DF71906291CF982F90958091A90599
:1017100089238093A9050895982F90958091AA0513
:1017200089238093AA05089580910A069091D10596
:10173000981301C008958F5F8770FACFB0E0A0E0E2
:10174000E4EAFBE00C94A82F7C010091BB0410910B
:10175000BC0480913F0490914004082B192BCFE0EA
:10176000D0E0CC24C394D12CBC2EC6010C2E02C0D8
:10177000880F991F0A94E2F780239123892B49F45B
:10178000219790F7B12C8B2DCDB7DEB7E9E00C9403
:10179000C42FB7018C2F0E94500A0E946E0A019735
:1017A00079F3F1CFCF93DF93EC010E949E0BBE0142
:1017B0000E94500A0E946E0ADF91CF9108959A30DC
:1017C00078F5863068F5E82FF0E086E0989FE00D28
:1017D000F11D11249E2F977083E0F695E7958A9569
:1017E000E1F7EE0FFF1FEE0FFF1FE25FFB4F50E030
:1017F00040E080E0219130E0092E02C03695279527
:101800000A94E2F721703327042E01C0220F0A94B4
:10181000EAF7822B4F5F5F4F4430510559F7089527
:1018200080E008959A3098F5863088F5E82FF0E04A
:1018300086E0989FE00DF11D11248E2F877041E006
:1018400001C0440F8A95EAF783E0F695E7958A95FB
:10185000E1F7EE0FFF1FEE0FFF1FE25FFB4F30E0DF
:1018600020E070E05191DF011197CB01022E02C000
:10187000969587950A94E2F7817081958527842350
:1018800085278C932F5F3F4F2430310559F70895FA
:101890009C01267033272630310531F488609093FF
:1018A000BC048093BB040895877FF9CF21E030E02A
:1018B00002C0220F331F8A95E2F720953095809160
:1018C000BB049091BC04822393230E94480C08958A
:1018D000909135048095892380933504282F2770B3
:1018E00069F4891759F09091860492FF07C0869594
:1018F000869586950E94560C10923504089521E035
:1019000030E002C0220F331F8A95E2F78091BB04BA
:101910009091BC04822B932B0E94480C08959093C5
:10192000400480933F040895FC0124812223B9F0F0
:10193000808191810E94D20B92959F70963089F0A0
:1019400050F49250923058F4803F19F030F4883EB1
:1019500030F481E008959A50F5CF843FD1F380E0D0
:101960000895883EB0F3813FD1F7F3CFA6E0B0E011
:10197000ECEBFCE00C94AE2F26E0FC01DE011196AE
:1019800001900D922A95E1F7FC01258189819A81C8
:10199000222399F0662389F00E949E0B182F682F4E
:1019A00089819A810E94120C69817A81812F0E941B
:1019B000500A2696E3E00C94CA2F0E94DF0B182FE2
:1019C000F3CF9C013A9521153F4150F5FC01EE27DC
:1019D000F170BC0166277270AC01442754709C0101
:1019E0002227387094FF0EC080E0EF2B09F080E1D1
:1019F000672B09F08062452B09F08064232B89F066
:101A00008068089581E0EF2B09F480E0672B09F0EE
:101A10008260452B09F08460232B19F088600895BB
:101A200080E008950F931F93CF93DF938B01EA011A
:101A30009091C705943061F58093E9008FEF909104
:101A4000E800815095FD06C095ED9A95F1F70000EC
:101A50008111F5CF8091E80085FF1AC00E94AF0682
:101A6000811111C08091E80085FD06C08091E800D9
:101A70008E778093E800F2CFF80181918F018093F7
:101A8000F100219779F78091E8008E778093E80044
:101A9000DF91CF911F910F91089543E050E0BC0179
:101AA00082E00E94120D0895CF93DF93EC0148E08D
:101AB00050E0BC0181E00E94120D88E0FE01ADEB18
:101AC000B5E001900D928A95E1F7DF91CF910895ED
:101AD000B0E0A0E0EEE6FDE00C94A72F7C015B01F6
:101AE0006A018091740401E010E08A3010F40AE089
:101AF00010E0C1E0D0E0B501C701F6010995811100
:101B000004C021960C171D072CF4CDB7DEB7EAE010
:101B10000C94C32FCC9F9001CD9F300D300D11241C
:101B200090E080E045E34A95F1F7000001968217C6
:101B30009307C1F7E0CF4091F10280919B0580FFB0
:101B400020C0E091F00223E0E29FF0011124E55E65
:101B5000FA4F539A8BB1877F9BB198603FB7F89447
:101B6000BF01429F600D711D1124AB01E417F50701
:101B7000D1F43FBF8FE594E00197F1F700C000007A
:101B800008958091F2029091F30273E0879FF00133
:101B90001124E55EFA4F8917A0F611821082128295
:101BA0008F5F3396F8CF219168E09BB9000000C0A9
:101BB00027FF8BB9220F000000C000C000C08BB906
:101BC00000C06A9591F7D2CF0F931F93CF93DF9305
:101BD000EC0110E000E09091F4029017110609F07A
:101BE0006CF40E949B0D8C8190E001968170992786
:101BF0008C83DF91CF911F910F9108952091F20274
:101C0000A801420F511D9A01220F331F240F351FC7
:101C1000255E3A4F4C8160919D0580919C0596957B
:101C20009017110651F04CF0442349F040919E0565
:101C30000E9499080F5F1F4FCECF4423B9F340E0B5
:101C4000F7CFB0E0A0E0E7E2FEE00C94A52FEC01B6
:101C50004C81042F10E09801D8010E94E7309B01CD
:101C6000AC010E94B2304B015C01E0E2F0E0E01B0D
:101C7000F10BA5E5B0E0AC019B010E94B2306B0115
:101C80007C019F01DF010E941C319B01AC010E947D
:101C9000BD309B01AC01280D391D4A1D5B1DC701DC
:101CA000B6010E94C530022F30E00A3258F5C90152
:101CB000880F991F880F991F281B390B37FF02C007
:101CC0002F5F3F4F359527951FEF120FF12C85E5BC
:101CD000E82EE01A8091F402F81630F10E949B0D74
:101CE0009C8181E0992319F0903219F48FEF809351
:101CF000EF028091EF02890F8C83CDB7DEB7ECE065
:101D00000C94C12F85E590E0821B930B9C01220F60
:101D1000331F220F331F821B930B97FD019695955E
:101D200087951FEF180FD2CF8E2DF1FC802F2091B9
:101D3000F202622F6F0D7727771F9B01220F331F4F
:101D4000260F371F255E3A4F412F60919D050E9457
:101D50009908F394BFCFEF92FF920F931F93CF9305
:101D6000DF93EC018C81811109C081E08C8310929A
:101D70001A0592E09093EE028093ED028091F202B8
:101D80009091F30223E0829FF0011124E55EFA4F67
:101D9000891758F110E003E06091F402161758F12A
:101DA0000E949B0D8091ED0220911A05280F20932F
:101DB0001A059091EE02980F9093EE02191654F4C2
:101DC000022E000C330B4091F4024150550B2417A6
:101DD000350734F081958093ED02813009F41C823F
:101DE000CDB7DEB7E6E00C94C72F118210821282C5
:101DF0008F5F3396CDCFE12EF12C70E0C7010E94AA
:101E000002312091F202820F482F50E020911A05F2
:101E1000022E000C330BE216F306BCF02091EE020A
:101E2000022E000C330B2E153F057CF0809F900195
:101E30001124255E3A4F40919E0560919D05809149
:101E40009C050E9499081F5FA7CFFA01EE0FFF1FA4
:101E5000E40FF51FE55EFA4F118210821282F3CF74
:101E6000B0E0A0E0E6E3FFE00C94A62FEC018A814D
:101E7000BB24B39480FF02C0BB24BA94A090F402A8
:101E80008C81811109C081E0B8121EC08FEF8A0DCC
:101E90008093190581E08C83F12CE12CEA14B8F0D1
:101EA0000E949B0D8091190591E0B91254C08111D7
:101EB0004DC08091F4028150809319051C82CDB7EA
:101EC000DEB7EBE00C94C22F10921905E3CF00911E
:101ED000F2020E0D1F2D111DC801880F991F080F4A
:101EE000191F055E1A4FF80111821082128234E028
:101EF000C32ED12C912C80911905890D813114F1BB
:101F00008F70082E000C990BE816F90691F4809159
:101F10009E058C9DA0018D9D500D112455954795D2
:101F200055954795980160919D0580919C050E946B
:101F300099089B0CF1E0CF1AD108E9F68FEFE81A67
:101F4000F80AACCF87FFDDCF8A0DDBCF81508093BD
:101F50001905BC82B4CF90E001966091F40270E064
:101F60000E940231809319058C83A9CFEF92FF92D2
:101F70001F93CF93DF93EC0110E0EE24EA94F12C51
:101F80006091F402161770F00E949B0D9A818C816B
:101F900090FF27C08F5F8C83DF91CF911F91FF90BF
:101FA000EF9008952091F202422F410F5527551FBF
:101FB000CA019A01220F331F280F391F255E3A4F9D
:101FC00070E0C7010E940231962F8C8140919E05DE
:101FD00060919D05199F800D11240E9499081F5F33
:101FE000CFCF8150D8CF90919B0590FF0EC090919C
:101FF000F2022091F30233E0939FF0011124E55E99
:10200000FA4F921718F00E949B0D08958183608308
:1020100042839F5F3396F5CFA3E0B0E0E2E1F0E1C9
:102020000C94AF2F90919B0590FF0AC09E012F5FEB
:102030003F4F0E9499084B8169818A810E94F30F6A
:102040002396E2E00C94CB2FCF93DF93EC01EBE9E6
:10205000F5E0438162818C810E940C108C818F5F3E
:102060008C83DF91CF910895CF93DF93EC01EC81C6
:10207000F0E0E856FB4F4491EBE9F5E062818181A5
:102080000E940C108C818F5F8C83DF91CF9108951B
:10209000CF93DF93682F81E06A3019F06D3031F40F
:1020A00080E00E94C910DF91CF91089580911708B8
:1020B0009091180826E0FC01A1E1B8E001900D9292
:1020C0002A95E1F7603E08F459C026E0FC01119220
:1020D0002A95E9F7C0911708D091180846E050E01A
:1020E000BE0181E198E00E946E31892B59F1CE0149
:1020F000815196409C0145E0369527954A95E1F738
:1021000041E050E0BA0102C0660F771F2A95E2F75E
:102110009B0160910F0670911006262B372B0596B8
:1021200065E0969587956A95E1F7FA0102C0EE0F92
:10213000FF1F8A95E2F7CF01822B932B9093100615
:1021400080930F069E012B50364040910E06642F5F
:1021500070E0C9010E948B2F481B463010F4240FF9
:10216000311D2115F2E03F0710F030E020E02F5E36
:10217000394F309318082093170895CFF6E06F9FDA
:10218000B00111246B57794F46E050E00E94323085
:10219000A1CFCF93382FE0911708F0911808E151A3
:1021A000F64020910E06622F70E0CF010E948B2F27
:1021B000281B822F332361F066E00E94F630C82F7F
:1021C000C15010F4CF91089580E20E944810F8CFDA
:1021D0009F01280F311D2115324018F080E0F0E0FA
:1021E000E0E08E0F9F2F911D8F5E994F90931808FE
:1021F00080931708E7CF8091AA059091A905892BB4
:1022000090913604992351F0892BE4E0F4E027E023
:1022100090E0215029F59111109236048093020428
:1022200048E050E067E374E082E094E00E946E31A1
:10223000892BA9F088E0E2E0F4E0A7E3B4E00190A4
:102240000D928A95E1F7E091B105F091B2053097D2
:1022500031F00280F381E02D82E094E00995089549
:1022600031913323B1F29F5FD4CF1092AA05E4E0FD
:10227000F4E086E0DF011D928A95E9F790E080E0C6
:102280000E943A0890E080E00E9415081092A9058B
:102290000E94FB100895AAE2B0E0E1E5F1E10C94A0
:1022A000AE2FE9ECF5E08091F100819325E0E13D6E
:1022B000F207C9F78091CA05833009F47DC008F59B
:1022C000813009F454C0823009F4BEC08091E80026
:1022D00083FFF8C08091C9059091CA059A3008F033
:1022E000F1C0E92FF0E0E958FE4E0C94163135129A
:1022F0005B1262125B126212B312D5126212D31316
:10230000E0138A3009F48FC08B3009F472C0893031
:10231000E9F68091C9058132C9F68091CD05909189
:10232000CE05029798F68091E800877F8093E800B9
:102330008091E80082FF3BC08091F3009091F20011
:10234000892798278927029731F48091F1008130FD
:1023500011F0863021F48091F1008093BC058091CA
:10236000E8008B778093E8000E94DE06AFCF809173
:10237000C905813A09F0AACF8091E800877F809350
:10238000E8008091CD059091CE05892B61F060E049
:1023900090E080E070E00E948A078091E8008B77EF
:1023A0008093E80093CF68E08DEB95E0F3CF8091C8
:1023B000C7058111BDCF8ACF8091C905813A09F047
:1023C00085CF8091CD059091CE05892B09F07ECFE8
:1023D0008091E800877F8093E8008091E80080FF8B
:1023E000FCCF8091F5028093F1008091E8008E7718
:1023F000B9CF8091C905813209F068CF8091CD05B0
:102400009091CE05892B09F061CF8091E800877FFC
:102410008093E8000E94DE068091CB058093F50250
:102420000E94351153CF8091C905813209F04ECFFA
:102430008091E800877F8093E8000E94DE0680910B
:10244000CC058093BB0542CF8091C905813A09F044
:102450003DCF8091E800877F8093E8008091E8007D
:1024600080FFFCCF8091BB05BECF803889F08238D9
:1024700049F58091CD058F70873020F58093E90074
:102480008091EB0085FB882780F91092E90006C057
:102490008091C5059091C605911182609091E800E8
:1024A000977F9093E8008093F1001092F100809163
:1024B000E8008E7727C0282F2D7F21F48823A1F0F4
:1024C000823029F18091E80083FF0AC08091E80002
:1024D000877F8093E8008091EB0080628093EB001F
:1024E000AA96E3E00C94CA2F8091CB05813051F776
:1024F000933009F080E08093C6051092E900809146
:10250000E800877F8093E8000E94DE06DBCF8091A1
:10251000CB058111F2CF8091CD058F702FEF280F61
:10252000263080F68093E9002091EB0020FFE5CF74
:10253000933031F48091EB0080628093EB00DDCF2B
:102540009091EB0090619093EB0021E030E001C0AE
:10255000220F8A95EAF72093EA001092EA00809110
:10256000EB008860EACF8111ADCF1091CB051F77CA
:102570008091E3008078812B8093E3008091E800D4
:10258000877F8093E8000E94DE068091E80080FF4C
:10259000FCCF8091E30080688093E30083E0111119
:1025A00001C082E08093C7058DCF8058823008F04B
:1025B00089CF8091CB059091CC058C3D23E092078B
:1025C000A1F583E08A838AE289834FB7F894DE011C
:1025D000139620E03EE051E2E32FF0E050935700E5
:1025E000E49120FF03C0E295EF703F5FEF708E2F04
:1025F00090E0EA30C0F0C7968D939D932F5F243111
:1026000059F74FBF8091E800877F8093E8006AE226
:1026100070E0CE0101960E948A078091E8008B77D6
:102620008093E8004FCFC096E7CF4091CD05509101
:10263000CE05292F33272330310509F443C078F51F
:102640002130310509F46DC08BE390E0E2E1F6E062
:102650002230310509F036CF2091E800277F209302
:10266000E8002091CF053091D0058217930708F438
:102670009C0140E02115310509F062C0411160C0A4
:102680008091E80082FDC9CF8091C705882329F297
:10269000853019F28091E80083FFF2CFBECF21325E
:1026A000310599F12232310509F00CCF4115510560
:1026B00009F441C082E390E0ECE9F5E041305105D6
:1026C00059F200CF992781309105B9F058F002975F
:1026D00009F0F8CEEFE5F6E0E4918E2F90E0EFE51B
:1026E000F6E007C0E1E8F6E0E4918E2F90E0E1E843
:1026F000F6E0009709F4E6CEAFCFEFE6F6E0E4911E
:102700008E2F90E0EFE6F6E0F4CF4115510571F021
:1027100089E090E0EDE3F6E04130510509F49CCF0B
:10272000D1CE82E190E0EDE4F6E096CF89E090E052
:10273000E4E2F6E091CF84E490E0EEECF5E08CCFBB
:102740008091C705882309F468CF853009F465CFE7
:102750008091E80083FD61CF8091E80082FD90CFF9
:102760008091E80080FF86CF8091F3009091F20085
:102770008927982789272115310519F08830910577
:1027800050F041E0089709F040E08091E8008E7732
:102790008093E8006FCF44914093F100319621502F
:1027A00031090196E8CF803809F08CCE8091E8009D
:1027B000877F8093E8008091C8058093F10077CEF1
:1027C000811180CE1091CB05123008F07BCE809124
:1027D000E800877F8093E8001093C8050E94DE061A
:1027E000112381F084E08093C70542E061EC81E031
:1027F0000E94FD0642E261EC82E00E94FD068091AB
:10280000C70560CE8091E30087FDECCF81E0EBCF80
:102810000E9435112FEF84E39CE0215080409040CE
:10282000E1F700C0000088E19AE00FB6F894A8959F
:10283000809360000FBE90936000FFCFCF93DF9333
:10284000EC014A855B856E857F850E9470088B81CF
:102850000E94840B8C810E948C0B0E94FB1086E0EE
:10286000FE0111928A95E9F7DF91CF910895CF93F8
:10287000DF93EC018D8181FD17C082608D83809193
:10288000A9059B81892B8093A9058091AA059C812C
:10289000892B8093AA050E94FB10488559856E8577
:1028A0007F85CE010E9470081092AC051092AB0596
:1028B0008D8180FD03C0CE010E941E14DF91CF9157
:1028C0000895882321F00E94840B0E94FB10089534
:1028D000882339F09091A905892B8093A9050E943E
:1028E000FB100895882321F00E948C0B0E94FB109E
:1028F0000895882339F09091AA05892B8093AA0521
:102900000E94FB100895882381F19CEF980F913A63
:1029100070F4E2E0F4E09281891301C012823196F2
:1029200094E0E830F907B9F70E94FB10089590E2AF
:10293000980F983050F4877091E001C0990F8A95F4
:10294000EAF7892F0E948C0BEFCF9BE5980F93300D
:1029500028F490E080E00E943A080895885A8B316C
:1029600020F490E080E00E9415080895CF93DF9353
:10297000EC010E948314CE010E94E10C9E01205EB6
:1029800031092830310510F0CD2B29F40E94721442
:10299000DF91CF9108950E946114FACFFC018281EA
:1029A000813031F4FB01808191810E94B614089539
:1029B0008230E9F7FB0182819381F7CFCF9388239F
:1029C000C1F0C82F8CEF8C0F813A10F5A4E0B4E071
:1029D000E2E0F4E08AE094E02D91C21761F08A17FA
:1029E0009B07D1F76C2F82E094E00E94FB070E94C6
:1029F000FB10CF91089588E094E02281C21301C0BA
:102A0000128231968E179F07C1F70E94FB10EACF02
:102A100080E28C0F883068F4C77021E030E001C09C
:102A2000220FCA95EAF78091AA05822B8093AA0506
:102A3000DECFEBE5EC0FE33040F4F0E0E957FC4F7C
:102A4000808190E00E943A08D4CFC85ACB3188F6F2
:102A5000EC2FF0E0EE0FFF1FE657FC4F80819181D5
:102A60000E941508C6CF1F93CF93DF93182FD0E095
:102A7000C0E0893311F4C0E5D0E0812F0E94DE145C
:102A8000209739F4812F0E948314DF91CF911F91F9
:102A900008958FE99FE00197F1F700C000002197AA
:102AA000EFCFB0E0A0E0E7E5F5E10C94A72FEC0153
:102AB0008AE0A82EFE012491222309F497C0213038
:102AC00009F03EC031968491813031F42296FE01A6
:102AD00084910E94331507C0823039F42296FE019A
:102AE00084910E94DE142196E5CF833031F4229642
:102AF000FE0184910E948314F6CF843009F074C0E3
:102B00002296FE01249190E080E0FE013196205350
:102B1000330B2A30310548F0019728F3EFE9FFE045
:102B20003197F1F700C00000F7CFA89EA001A99E41
:102B3000500D1124C901840F951F2491EF01E5CF99
:102B4000E22FF0E0EB50F44FB490822F86958695FB
:102B5000869590E0FC01EB51F44FE4902770F12C46
:102B6000022E02C0F594E7940A94E2F731E0E322E2
:102B7000FF24FC01EB52F44FC490D12C022E02C072
:102B8000D594C7940A94E2F7E1E0CE22DD24FC015B
:102B9000EB53F44F049110E002C0159507952A9568
:102BA000E2F701701127E114F10419F081EE0E949F
:102BB000DE14C114D10419F086EE0E94DE148B2DB0
:102BC0000E943315C114D10419F086EE0E948314BB
:102BD000E114F10419F081EE0E948314011511052E
:102BE00009F481CF8CE275CFEF017DCFCDB7DEB791
:102BF000EAE00C94C32FCF93DF93EC018A818130FC
:102C000071F488ED90E00E9451151092AC0510927D
:102C1000AB05CE010E941E14DF91CF910895823042
:102C2000A1F784ED90E0EFCFCF93DF93EC018A81A1
:102C3000813071F48AEC90E00E9451151092AC053D
:102C40001092AB05CE010E941E14DF91CF91089522
:102C50008230A1F780EC90E0EFCFCF93DF93EC01CF
:102C60008A81813071F486EB90E00E9451151092B8
:102C7000AC051092AB05CE010E941E14DF91CF91DE
:102C800008958230A1F78CEA90E0EFCFCF93DF93E5
:102C9000EC010E94E10C9E01205E310928303105D3
:102CA00010F0209741F40E9479148C2F0E94DE14BA
:102CB000DF91CF9108950E946814F7CFFB018081C6
:102CC00091810E9446160895CF93DF93FC012281E3
:102CD000223049F4FB01EC01828193810E94461667
:102CE0008D8182608D83DF91CF9108950F931F9323
:102CF000CF93DF93EC01FC0101900020E9F78F01F5
:102D000001501109C017D10728F0DF91CF911F9111
:102D10000F91089589910E944810F4CFB0E0A0E08F
:102D2000E4E9F6E10C94A92F6C017B0164E670E004
:102D300088E70E94E82C8C01E601EC0CFD1C17FDD5
:102D40000BC0FE01849164E670E00E94542D8C015A
:102D50002196CE15DF0599F70E94CA2D81E0011555
:102D6000110509F080E0CDB7DEB7E8E00C94C52F7F
:102D70008091A7059091A805911103C091E0892742
:102D80000895882369F062E070E08AE995E00E9486
:102D90008E16811103C08091A70508951092A70592
:102DA0008091A705EBCFCF93C091A7058091A8058F
:102DB0008823D1F00E94EF07605A75418F4F9F4FD3
:102DC0006093A3057093A4058093A5059093A60531
:102DD000C11108C062E070E088E995E00E948E169B
:102DE000811105C0C091A7058C2FCF91089581E076
:102DF0008093A705F7CFB0E0A0E0E1E0F7E10C9405
:102E0000A12FFC016280448081E08483E8E9F4E042
:102E10007490E7E1F5E0E491C0919E05C695C15834
:102E2000D0E0CC0FDD1FCD2FDD27812C75E0972E54
:102E3000AA24AA94B12C55245A94E719EE2EF12C09
:102E40008091F402881638F00E949B0DCDB7DEB752
:102E5000E0E10C94BD2FC82CD12C82E0861568F0DF
:102E60009C9CF0019D9CF00D1124E55BFA4F809134
:102E70009C05808380919D058183411023C09C9C8B
:102E8000F0019D9CF00D1124E55BFA4F1382128234
:102E90002091F202C601820F911D9C01220F331F67
:102EA000280F391F255E3A4F9C9CF0019D9CF00D28
:102EB0001124E55BFA4F4281618180810E9499086B
:102EC0008394BECF9C9C80019D9C100D1124055BBA
:102ED0001A4FF80183818823F1F081508383859D07
:102EE000C0011124648170E00E948B2FFB01FF2739
:102EF000E856FB4F8491E82FE719E59DC0011124A6
:102F0000B7010E948B2F80919E05689FB00111240C
:102F1000F8017283BDCF0E942230B5010E940231B8
:102F20008C179D070CF0B4CFF2E0F61598F40E94D0
:102F30002230B5010E940231F80180830E942230C4
:102F400020919D052695622F70E00E940231280F86
:102F5000F80121839C9CF0019D9CF00D1124E55B00
:102F6000FA4F128280919E05893C58F088EC9C9C17
:102F7000F0019D9CF00D1124E55BFA4F848383835F
:102F800087CF8431A0F784E1F2CFB0E0A0E0EBEC92
:102F9000F7E10C94A52F49015A016B017C010E94B5
:102FA00083088401A4016A2D7B2D88E090E00E94B3
:102FB000713094014A2D5B2DB601C70100E20E94D9
:102FC0004631622F84E290E00E945F30CDB7DEB7D9
:102FD000ECE00C94C12FA3E0B0E0E1EFF7E10C943A
:102FE000A82F082FE62EF42EC22E90919B0590FF5D
:102FF00041C020919C05281308C080919D0586132F
:1030000004C080919E05841729F080911705826085
:1030100080931705E92FE695E695AE2FB0E0AB5209
:10302000BC4F8C91809315059C7F943039F59E019F
:103030002F5F3F4F4F2D6E2D802F0E9499084B819F
:1030400069818A810E94F30F00939C05E0929D059F
:10305000F0929E05CC2071F020919B0560919F0518
:103060007091A005302FA7018091A1059091A20534
:103070000E94C5172396E9E00C94C42F823019F4FE
:10308000F0909E05E1CF8630A1F1893091F1893130
:10309000D9F6E9516E2F6170B62EE695F0E0ED5647
:1030A000FB4F1491D12C6091F402D61618F00E94B7
:1030B0009B0DCACFD19EC001112470E00E948B2FBE
:1030C000802FB11014C0860F2091F202622F6D0D77
:1030D0007727771F9B01220F331F260F371F255E8F
:1030E0003A4F4F2D6E2D0E949908D394DCCF861B4A
:1030F000EBCF022FA9CFEBE9F5E0438121E1421BA1
:1031000008F440E021E0628181810E94EB1708957C
:10311000EBE9F5E0438121E1420F08F44FEF21E0B4
:10312000628181810E94EB170895EBE9F5E06281ED
:1031300021E1621B08F460E021E0438181810E946B
:10314000EB170895EBE9F5E0628121E1620F08F4E5
:103150006FEF21E0438181810E94EB170895EBE935
:10316000F5E0818121E0438162818A500E94EB1762
:103170000895EBE9F5E0818121E043816281865F7A
:103180000E94EB17089580919F05882319F08150C4
:1031900080939F0520919B0530919C0540919D0552
:1031A00050919E0560919F057091A0058091A105A9
:1031B0009091A2050E94C517089580919F058330C4
:1031C00018F48F5F80939F0520919B0530919C059B
:1031D00040919D0550919E0560919F057091A005BD
:1031E0008091A1059091A2050E94C5170895EBE971
:1031F000F5E020812E7F20833181428153816481DB
:103200007581868197810E94C5170E947C08E5E13F
:10321000F5E08281816082830E949B0D0895EBE935
:10322000F5E025E0208311828FEF828384EB838396
:103230001482A5E1B5E012968C91129783601296E4
:103240008C93758130E04FEF54EB60E0868197817D
:103250000E94C5170895A4E0B0E0E1E3F9E10C9401
:10326000AE2F4091560450915704609158047091CC
:1032700059042FB7F8948091B6059091B705A091A5
:10328000B805B091B9052FBF841B950BA60BB70BE2
:1032900011E084369105A105B10570F10E94430942
:1032A0006E5F7F4F8F4F9F4F69837A838B839C83A1
:1032B0008091510190915201865A9B4F409150014B
:1032C00050E04530510510F044E050E0BE016F5F22
:1032D0007F4F0E947B3182E090E00E94142F182FD4
:1032E000882351F00E94EF076093560470935704AF
:1032F0008093580490935904812F2496E3E00C9412
:10330000CA2FACE0B0E0E7E8F9E10C94AF2F88E019
:10331000EBE9F5E0DE01119601900D928A95E1F757
:103320008091150590911605A0911705B09118058B
:1033300089879A87AB87BC872B8540917004509111
:10334000710460917204709173043FB7F894809196
:10335000B6059091B705A091B805B091B9053FBFEA
:10336000841B950BA60BB70B84369105A105B105FF
:1033700010F4222319F18091590190915A01865A33
:103380009B4F4091580150E04D30510510F04CE0FA
:1033900050E0BE016F5F7F4F0E947B3183E090E081
:1033A0000E94142F882369F00E94EF076093700435
:1033B00070937104809372049093730410921705B4
:1033C00081E02C96E2E00C94CB2FEF92FF921F93BA
:1033D000CF93DF9300D000D000D0CDB7DEB77B0114
:1033E00090E080E00E94142F182F882309F46DC00C
:1033F0004091430150E04115510511F041E050E08A
:103400006091440170914501665A7B4FCE0106964A
:103410000E947B31409152045091530460915404B6
:10342000709155042FB7F8948091B6059091B70527
:10343000A091B805B091B9052FBF841B950BA60BC1
:10344000B70B84369105A105B10538F48BE594E0FE
:103450000E9479069E818917C1F181E090E00E9467
:10346000142F182F882391F040914B0150E04630E3
:10347000510510F045E050E060914C0170914D0114
:10348000665A7B4FCE0101960E947B318BE594E01A
:103490000E94790691E02E81281390E0192301F112
:1034A0000E94EF0760935204709353048093540476
:1034B0009093550485E0FE013196ADE4B4E00190AF
:1034C0000D928A95E1F711E00BC085E0EBE5F4E0A1
:1034D000DE01119601900D928A95E1F71111EACF64
:1034E00085E0EDE4F4E0D70101900D928A95E1F7D3
:1034F000812F26960FB6F894DEBF0FBECDBFDF91A9
:10350000CF911F91FF90EF900895A8E0B0E0EBE815
:10351000FAE10C94AF2F66EE7EEF90E080E00E941F
:103520007D3060E082E090E00E945F3081E090E0DA
:103530009093400480933F0461E083E090E00E9418
:103540005F3060E074E184E090E00E947D3060E0F4
:1035500086E090E00E945F306FEF87E090E00E948D
:103560005F3040E050E0BA0188E090E00E947130A6
:1035700060E084E290E00E945F3060E087E190E0EC
:103580000E945F3060E08CE090E00E945F3060E07D
:103590008DE090E00E945F3019821A821B821C82AB
:1035A0001D821E821F82188648E050E068E170E0AC
:1035B000CE0101960E944F3040E050E0BA0180E217
:1035C00090E00E94713040E050E0BA018FE090E05E
:1035D0000E94713040E050E0BA0183E190E00E9427
:1035E00071302896E2E00C94CB2F9091860492FBE8
:1035F000222720F9281779F080FB92F9909386040E
:10360000609185047091860484E090E00E947D3092
:1036100082E00E94680C08951F920F920FB60F92DD
:1036200011242F933F934F935F936F937F938F93C7
:103630009F93AF93BF93CF93EF93FF93C091E90014
:10364000CF708091EC001092E9008091F000877FAC
:103650008093F00078940E944B111092E9008091C1
:10366000F00088608093F000C093E900FF91EF9133
:10367000CF91BF91AF919F918F917F916F915F910A
:103680004F913F912F910F900FBE0F901F90189563
:103690001F920F920FB60F9211242F933F934F93C7
:1036A0005F936F937F938F939F93AF93BF93EF93AA
:1036B000FF938091E10082FF09C08091E20082FFC8
:1036C00005C08091E1008B7F8093E1008091DA005A
:1036D00080FF24C08091D80080FF20C08091DA0054
:1036E0008E7F8093DA008091D90080FF9BC080E1BB
:1036F00089BD82E189BD09B400FEFDCF81E08093E0
:10370000C7058091BA05811109C00E9490060E94E8
:103710002F078091E20084608093E2008091E100B5
:1037200080FF17C08091E20080FF13C08091E2000B
:103730008E7F8093E2008091E20080618093E200BE
:103740008091D80080628093D80019BC85E0809376
:10375000C7058091E10084FF29C08091E20084FFC9
:1037600025C080E189BD82E189BD09B400FEFDCF9D
:103770008091D8008F7D8093D8008091E1008F7E6A
:103780008093E1008091E2008F7E8093E20080913F
:10379000E20081608093E2008091C805882309F4EB
:1037A00047C084E08093C7058091C7058091E10000
:1037B00083FF27C08091E20083FF23C08091E10056
:1037C000877F8093E10082E08093C7051092C8054F
:1037D0008091E1008E7F8093E1008091E2008E7FF6
:1037E0008093E2008091E20080618093E20042E0F9
:1037F00060E080E00E94FD068091F0008860809388
:10380000F000FF91EF91BF91AF919F918F917F91C8
:103810006F915F914F913F912F910F900FBE0F903D
:103820001F90189519BC1092C7051092BA0576CF53
:103830008091E30087FD02C081E0B4CF83E0B2CF86
:1038400078941F920F920FB60F9211248F939F932B
:10385000AF93BF938091B6059091B705A091B8053D
:10386000B091B9050196A11DB11D8093B605909345
:10387000B705A093B805B093B905BF91AF919F91DB
:103880008F910F900FBE0F901F9018959C014FB70E
:10389000F8948091B6059091B705A091B805B091C4
:1038A000B9054FBF821B930B08952FB7F8948091F1
:1038B000B6059091B705A091B805B091B9052FBF95
:1038C00008950F931F93CF93DF93C62FD42F122FFA
:1038D000FC0185818823A9F060930D060E94551C88
:1038E00090930C0680930B06C77081E001C0880F8F
:1038F000CA95EAF70E947914DF91CF911F910F9139
:10390000089580910D06681332C080910B06909146
:103910000C060E94461C883C910548F500E20D0FFC
:10392000CD17B9F080E28C0F883040F4C77081E089
:1039300001C0880FCA95EAF70E9472140830F0F4AB
:1039400081E09D2F977001C0880F9A95EAF70E9439
:103950007914812F0E943315083070F6D77081E0FA
:1039600001C0880FDA95EAF70E947214C5CFC770BC
:1039700081E001C0880FCA95EAF7F6CF812F0E9437
:103980003315BACF8091AD05882319F00E94551CDC
:1039900008950E944309CB01089560919B056695A7
:1039A000669570E04BE050E082EE92E00E9461315B
:1039B000892B19F481E0809316050E94C21C909314
:1039C000100580930F05809117058460809317057B
:1039D000089590919B0590FF3AC09370811138C073
:1039E000946090939B0580911705816080931705E3
:1039F000662391F020919B0530919C0540919D0597
:103A000050919E0560919F057091A0058091A10540
:103A10009091A2050E94C51760919B0566956695D9
:103A200070E04BE050E082EE92E00E946131892B21
:103A3000B9F00E947C0881E08093120520E040915B
:103A40009E0560919D0580919C050E94EB1708954D
:103A50008A3210F0946AC5CF880F880F982BC1CF97
:103A60000E94CD1CE8CF80919B058695869581505C
:103A700009F489E261E00E94E91C089580919B05A8
:103A8000869586958F5F8A3208F081E061E00E941A
:103A9000E91C089590919B0590FF09C09695969515
:103AA000981728F0961718F40E943E1D089561E0BB
:103AB0000E94E91C0895A6E1B0E0E1E6FDE10C9466
:103AC000A42F8E01035F1F4F8AE0F80111928A959F
:103AD000E9F782ECE82E83E0F82E6801AA24A3948B
:103AE000B12C2DEC822E23E0922EF70181917F01E3
:103AF0008F3F09F440C0F894E82FE295EF70F0E0B2
:103B000021A18F70A50102C0440F551F8A95E2F7CD
:103B1000CA01922F982B91A392A18095892382A309
:103B2000789400C0E7ECF3E0712C31E021912F3F55
:103B300009F494C0A22FA295AF70B0E090968C913A
:103B400090E02F7002C0959587952A95E2F780FD49
:103B500085C0832F782A330F8E169F0639F7F70119
:103B6000319780818F3F11F00E942C0950EA5A95BD
:103B7000F1F7F6017082FFEFCF1ADF0A27ECE216A9
:103B800023E0F20609F0B1CF4AE050E0B80189E73E
:103B900094E00E946E31009741F02AE0F801A9E715
:103BA000B4E001900D922A95E1F70091840410E0B1
:103BB00008571B4F892B09F453C081E080934504BB
:103BC0000E94551C9093440480934304D12CC090D0
:103BD000AD05AE014F5F5F4F7A0185E0CC2009F45F
:103BE00097C0FA0111928A95E9F7809174048A309E
:103BF00008F05AC045EE59E1B701C8010E94680DAE
:103C0000882309F472C04BE259E1B701C8010E9450
:103C1000680D882309F469C041E859E1B701C8017A
:103C20000E94680D882309F460C01092740480918A
:103C3000830490E045E050E0B70188579B4F0E9415
:103C40006E3121E020934C04892B09F042C0C12C35
:103C50008C2D8D296696EDE00C94C02F80E07ACFF4
:103C6000D0904504DD2009F4B1CF809143049091B8
:103C700044040E94461C059708F4A8CF45E050E094
:103C800069E774E0C8010E946E31892B59F085E024
:103C9000E9E7F4E0D80101900D928A95E1F71092DE
:103CA000450495CFD12CFBCF8091460490914704D9
:103CB0000E94461C843F914008F09CCF80914C04A8
:103CC000882329F285E0F70111928A95E9F710928D
:103CD0004C04A0918304B0E0A857BB4F85E0F701E6
:103CE00001900D928A95E1F7B3CF809174048F3FD4
:103CF00019F08F5F80937404809174048A3008F403
:103D000096CF0E94551C9093470480934604D6CFCB
:103D1000F801ABE5B4E001900D928A95E1F78BE5EF
:103D200094E00E94790680935A04809060049090F9
:103D30006104A0906204B090630480914804909163
:103D40004904A0914A04B0914B0488169906AA062A
:103D5000BB06B1F08092480490924904A0924A04B4
:103D6000B0924B040E94EF07861A970AA80AB90A74
:103D70008092750490927604A0927704B0927804B1
:103D80008CE0E4E6F4E0D70101900D928A95E1F72A
:103D90008091640486958695F0906504E0906604B1
:103DA000B090670400916D0410916E0490916F04BF
:103DB00010926E04112309F44BCF14FD9093180553
:103DC00010FF0BC0298190919B0520FF1AC09160C4
:103DD00090939B0560E00E94E91C11FF06C020E063
:103DE0004B2D6E2D8F2D0E94EB1712FF04C0002368
:103DF000B1F00E94CD1C13FF2BCF81E08093120500
:103E000027CF892F8E7F80939B050E947C0880910D
:103E100017058160809317050E949B0DDECF0E94DD
:103E20007C08E9CFB0E0A0E0E8E1FFE10C94A82F26
:103E3000DC0114962C91222309F4E8C58C0161E081
:103E40000E94B60CEC01F8018581882319F180915C
:103E5000AB059091AC050097E9F0C817D907D1F0F0
:103E6000992764E0880F991F6A95E1F7FC01E059F2
:103E7000FE4F20812460208385599E4FDC01CD9325
:103E8000DC930E9437141092A90561E0C8010E94DA
:103E9000B60CEC01F8018581882309F482C550E253
:103EA000F52ECC33D10520F4FE01E55BFC4FF0800C
:103EB0001F92FF92DF93CF93D8018C911F928F9323
:103EC00011968C911F928F9386EF92E09F938F9320
:103ED0001F9288E18F938DEB94E09F938F930E94C4
:103EE0008B31EDB7FEB73E960FB6F894FEBF0FBE0E
:103EF000EDBF80910A0490910B04449709F47BC0B4
:103F000080910A0490910B04FC01EB52FB4FF0826C
:103F1000019690930B0480930A04C234FEE7DF07F6
:103F200009F4CBC008F053C0C0348EE7D80709F4B9
:103F3000D5C008F0BAC0C131A0E4DA0709F443C51E
:103F4000CE019755FE018F3F910511F008F000C199
:103F5000FF2744E0EE0FFF1F4A95E1F7CF01855997
:103F60009E4F7C01D80115969C911597E059FE4F04
:103F7000808190FB80F9808315968C91882309F4C9
:103F8000CAC00E94551C90939E0480939D04F70123
:103F900082818F5F82838091A9059091AA05892BE8
:103FA0008383809136048483468157816685778533
:103FB000C7010E947008D70115968C9181FDA8C099
:103FC0009C2F8D2F9093AB058093AC052DC0C434EE
:103FD000BEE7DB07F9F008F479C0C534FEE7DF0778
:103FE00009F0AECFF80185818823E1F08CEF90E0F5
:103FF0000E94511519C010920B0410920A04E5EDAD
:10400000F4E089EE94E020E28E179F0709F478CF60
:104010002193FACFD80115968C91882319F085EF5A
:1040200090E0E6CF0E943511F8018581882309F4DC
:1040300016C510920D06CE019057839708F0F8C46C
:1040400084E090E00E944930909386048093850438
:10405000FE01E150F047E232F10508F0A8C0ED5C46
:10406000FF4D0C941631112186211921E320E72000
:104070001D21EB2021212D21F7207F21FB20312143
:10408000FF2035215D2103213921642109213F21B0
:104090004721EF202521F32029210D214321532100
:1040A0006D217D21DD2015218D21F8018581882359
:1040B00009F4B8CF8EEE90E09BCFD80115968C9185
:1040C000882309F4AFCF87EE90E092CFF801858185
:1040D000882309F4A7CF80EE90E08ACFD801159607
:1040E0008C91882309F4A0CF80919B0580FD0DC0A1
:1040F000816080939B0561E0869586950E94E91C0E
:104100000E94B9188CED90E073CF0E94F718FACF97
:1041100090E080E057CFF701448555856685778527
:10412000C7010E947008D70115968C9181FF7CCF42
:10413000C7010E941E148091AB059091AC05C81771
:10414000D90709F071CF1092AC051092AB056CCF76
:10415000E851FC47E730F10508F066CFEE54FF4D1B
:104160000C941631C420C820B920C020CC20D02007
:10417000D42026E241EE61EEC8010E94611C37C4E2
:1041800027E245EE65EEF8CF26E241EE60EEF4CF91
:1041900027E245EE64EEF0CF26E241EE62EEECCF90
:1041A00027E245EE66EEE8CF28E241E0EBCF8091D2
:1041B000850481608093850495C080918604886021
:1041C000809386048FC0809185048260F3CF8091B4
:1041D00085048460EFCF809185048860EBCF809167
:1041E00086048160EDCF809186048260E9CF809162
:1041F00085048061DFCF809185048062DBCF809170
:1042000085048064D7CF0E94351180918504806831
:10421000D1CF809185048860DCCF80918604826054
:10422000E0CF809185048E7FC5CF80918604877F03
:10423000C7CF809185048D7FBDCF809185048B7F12
:10424000B9CF80918504877FB5CF809186048E7F1A
:10425000B7CF809186048D7FB3CF809185048F7E08
:10426000A9CF809185048F7DA5CF809185048F7B18
:10427000A1CF0E943511809185048F779BCF8091CB
:104280008504877FDCCF809186048D7FE0CF80918D
:10429000850482FB992790F921E0922790FB82F90F
:1042A00090FB83F987CF80918604982F9095917029
:1042B0008E7F892B90FB81F983CF90918504892F84
:1042C0008F7B96FF806476CF0E9435119091850494
:1042D000892F97FB87F980586DCF61E08EE090E0E1
:1042E0000E945F30609185047091860484E090E0C4
:1042F0000E947D300E9435117AC360E0EFCF90912B
:104300008504892F8F7E94FF806154CF909185041E
:10431000892F8E7F90FF81604DCF90918604892FE9
:10432000877F93FF88604CCF89E2E2E0F4E09281DE
:10433000891301C01282319624E0E830F207B9F700
:104340008BC38091AA058272FE01E052F847E531E5
:10435000F10508F0A7C0E155FE4D0C941631C421BB
:10436000D421DB21E021E521EA21EF21F421F9210B
:10437000FE21032208220B221022132216221922C8
:104380001C221F22F724222280919B0580FF03C05C
:104390000E94F7182CC3816080939B0561E086958D
:1043A00086950E94E91C23C343E35DE16EE37DE152
:1043B0000E9476081CC34EE35DE163E37DE1F8CF24
:1043C0004FEA58E169EB78E1F3CF49EB58E16FEA46
:1043D00078E1EECF45E958E162EA78E1E9CF42EAD7
:1043E00058E165E978E1E4CF4BE758E168E878E126
:1043F000DFCF48E858E16BE778E1DACF43EC58E1EA
:104400006DED78E1D5CF4DED58E163EC78E1D0CF9B
:1044100061E081E0C6CF65E082E00E944A1DE7C20C
:1044200068E086E0FACF6EE089E0F7CF64E18FE0E4
:10443000F4CF67E185E1F1CF61E088E1B2CF62E2DC
:1044400089E1EBCF69E284E2E8CF0E9435118FEF7A
:1044500094E3ACE081509040A040E1F700C0000040
:1044600087E797E7909301088093000888E19AE036
:104470000FB6F894A895809360000FBE90936000EB
:10448000FFCF6FEF7FEF90E080E00E947D300E94D1
:1044900008148091860482FB882780F991E089279F
:1044A0000E94F51AD80115968C911597CD91DC9143
:1044B000882309F459C0CE010E949E0BF82E682F64
:1044C000CE010E94120CBE018F2D0E94500A0E9444
:1044D0006E0AD82FC92FB82EF801D580C680C29495
:1044E0003FE0C32280913504877009F1ED2CDD2077
:1044F000F9F0892F807F803469F080E28D0F883059
:10450000B0F0892F807E803229F4F1E0FD1778F435
:10451000CC2069F08091860482FF09C082E00E946D
:10452000680C809135048770EE24E3948111E12CAE
:10453000FC2EF2942FE0F2222BE02F1508F4F0C0AD
:10454000EF2DF0E0EA55FD4D0C941631B922B92259
:10455000092309238923902390239023AA2333241A
:104560004424442480E09CCFCE010E94DF0BF82E2F
:10457000AACF8C2F8F70F82EC07F19F0F29490EF95
:10458000F9228D2FDD20B9F0FF2069F090E29D0F18
:10459000983010F0D11109C08091AA05F82AF09244
:1045A000AA050E94FB108D2F59C08091A905F82AF9
:1045B000F092A905F6CF0E948314FF2069F0D05E27
:1045C0008F2DD83010F0B11003C00E948C0B02C0A8
:1045D0000E94840B0E94FB10EE20B1F08091350404
:1045E00080FD12C0D80115961C92869586958695F9
:1045F0000E947F0CC8010E94121F8091350486958D
:10460000869586950E94560C60E0C8010E94B60C03
:10461000FDC19C2F9F70F92EC07FC03219F0F2941B
:1046200080EFF822BB2051F0A1E0BA1609F451C086
:10463000DD2009F45DC0CC2001F1B5CF8091860466
:1046400082FD17C0DD2069F0FF2039F08091AA05B6
:10465000F82AF092AA050E94FB1080E00E94DE1466
:10466000BBCF80E00E948314FF2009F4B5CF8F2DCB
:10467000ACCFDD20A1F0C11004C08F2D0E947914B1
:10468000ABCFB1E0CB12A8CF809136049F2D9823F9
:10469000F91609F4A1CFF82AF09236049DCFC11083
:1046A0009BCF8F2D0E947214909136048F2D8923F9
:1046B00029F08F2D809589238093360480910D04F5
:1046C0009F2D982309F488CFF094F822F0920D04DE
:1046D00083CFDD2029F0E5E0EC1508F47DCFCDCFC8
:1046E000F4E0FC1508F478CF8F2D0E94721474CF7B
:1046F000CC20D1F3D93349F42FEF87EE93E021504A
:1047000080409040E1F700C000008D2F0E9483148C
:1047100063CF8C2F86958695837041F0813081F030
:1047200088EF8F0D843008F057CF48C08D2F9C2F15
:104730009370D11002C080E090E00E943A084CCF04
:104740008D2F9C2F9370D11002C080E090E00E94CA
:10475000150842CF8C2F837009F041C0D1102EC0B4
:104760004D2F429546954770440F440F2D2F2F70C3
:1047700030E0042E02C0220F331F0A94E2F790E0CB
:1047800080E0D4FF09C08FE090E002C0880F991F3D
:104790004A95E2F780959095C695C695C370C2304C
:1047A000A9F088F440913F0450914004C13049F091
:1047B000822B932B842395230E948F0C0E945F08E9
:1047C0000BCF242B352B822B932BF6CF822B932BC5
:1047D00020913F043091400482279327EDCF8695A6
:1047E000DD2011F08C2F8170882341F34D2F4295ED
:1047F00046954770440F440F2D2F2F7030E0042E44
:1048000002C0220F331F0A94E2F790E080E0D4FF49
:1048100009C08FE090E002C0880F991F4A95E2F727
:1048200080959095C695C695C370C23099F078F47E
:104830004091BB045091BC04C13039F0822B932BC2
:10484000842395230E94480CB9CF242B352B822B2F
:10485000932BF8CF822B932B2091BB043091BC0477
:1048600082279327EFCFCF70DD2039F08C2F0E9465
:104870007F0C8D2F0E947914A1CF8D2F0E9472146E
:104880008C2F0E94560C9ACF8D2FA2EFBA1609F4E6
:104890003FC0AB1580F0B0EFBB16F1F0E1EFBE16F4
:1048A000A1F0DD2009F469C0CC2009F463C08D2F8C
:1048B0000E94DE1435CFF3EFBF1689F124EFB21258
:1048C000F0CF8091860482FD37C08C2F8F71DD2060
:1048D00019F10E947F0C24CFDD20A9F084E08C1513
:1048E00008F41ECFCF7181E090E002C0880F991FBD
:1048F000CA95E2F72091BB043091BC04822793272C
:104900000E94480C0DCF95E09C1508F409CFEACF22
:104910008C2F8F71DD20E9F20E94560C01CF90E0C0
:1049200080E0DD2069F3CF7181E090E002C0880F64
:10493000991FCA95E2F7E4CFDD2089F0CF718C2F63
:104940000E947F0C8091860482FF07C0A8E0CA9F66
:10495000C00111248360809335048C2FBACF81E08D
:104960000E94680CB1E0BC1508F0DACE82E00E942B
:10497000680CD6CE8C2F8F71ACCFCC2079F08933D8
:1049800049F4EFEFF7EE23E0E150F0402040E1F78B
:1049900000C000008D2F0E948314C2CE8C2F8F7117
:1049A000BBCFC234BEE7DB0709F487CBA0F5C03428
:1049B000FEE7DF0709F492CB08F077CBC13180E442
:1049C000D80709F0BDCAD80116968C911697807F3A
:1049D00009F02ACB15968C91882309F425CB83E323
:1049E00090E00E94461683E390E00E94B614809106
:1049F0003504877059F0F8018581882339F080915A
:104A0000860482FF03C082E00E94680CCDB7DEB747
:104A1000E9E00C94C42FC4349EE7D90709F402CB13
:104A200008F454CBC534BEE7DB0709F4DBCA88CAF7
:104A3000C631ECE7DE07F9F48091AA058A7A91E0A5
:104A400009F490E090930C0465E3811101C069E2E0
:104A500082E094E00E94FB070E94FB10C8CFC631A1
:104A6000FCE7DF0709F06DCC80910C04882309F482
:104A70005BCC85E35ACCC3302CE7D20709F401CDD7
:104A800050F4C1159CE7D90709F4DFCCC130DC47ED
:104A900009F4FDCC07CDCB35BCE7DB0709F462CDCB
:104AA000CC35ECE7DE0709F4F4CCCA35DC4709F075
:104AB000F9CC81E0F5CCCF93DF9380913404807FF3
:104AC00009F04DC080913304882309F448C0E09177
:104AD0000A065091D105C0912F04D0912E04609107
:104AE00030047091310447E05E17C9F18E2F90E0D9
:104AF000E49FF0011124EE52FA4F2481222391F118
:104B0000489FF001499FF00D1124DF01AE52BA4FCA
:104B100011962C9111972C1325C02C912D1322C086
:104B200015962C91159721111DC012962D913C912F
:104B3000261B370B283C3105A8F4809134048F7074
:104B4000806180933404E852FA4F80818F708061D5
:104B500080838EE294E00E94121F0E94940BDF91EA
:104B6000CF910895FC013196E770BECFA4E1B0E08B
:104B7000ECEBF5E20C94A52F8C0186E0F801DE0148
:104B80001F9601900D928A95E1F7F8018481E580E6
:104B90009EE2A92E94E0B92E90913204911128C082
:104BA000882319F1EE20F1F0C8010E94940CF82E30
:104BB0008823C1F087E0F801D50101900D928A9514
:104BC000E1F780913204813031F480912E0490918C
:104BD0002F040E94D20B0E945B258F2D6496ECE07F
:104BE0000C94C12FC8010E94121FFF24F394F5CF2B
:104BF000D080C18082809380F09033042091300473
:104C000030913104A401421B530BFF2009F4D8C09A
:104C1000483C510508F091C08823F9F290912F0487
:104C200080913404282F207F09F055C0C91214C088
:104C300090912E04D91210C0E11047C08F7080618E
:104C4000809334048EE294E00E94121F8091340419
:104C5000F8018683F12CC1CFE11037C06C2D8D2D6A
:104C60000E945A066C2D8D2D0E945A06E82E811145
:104C7000F1CFDF86C88A8F8598890E94D20B292FB1
:104C800022952F70243058F49F70223080F09923A1
:104C900091F0F8019681907F71F4FE2C9ECF2A50FE
:104CA000223068F0C8010E94121FEF2CF6CF992322
:104CB00011F0882391F3805E8830A0F7EECF803F1B
:104CC00060F3815F833070F7E8CF809134048160B6
:104CD00080933404BFCFC91207C090912E04D9121B
:104CE00003C0EE2009F48DC0C8010E94940C8823F3
:104CF00009F478CFEE2009F475CF80913404803226
:104D000088F020912E0430912F04398728879B86C4
:104D10008A86909132049C871D868E87CE010896E4
:104D20000E94121F87E0F801AEE2B4E001900D92FC
:104D30008A95E1F70E945B2558CF90913404292F82
:104D4000207F51F48EE294E00E94121F87E0F5016B
:104D500011928A95E9F77ECF882309F43ECF80919E
:104D60002F048C1110C080912E04D8120CC0E110B9
:104D70000AC09683C8010E94121F87E0F5011192B4
:104D80008A95E9F72ACFC8010E94940C882309F478
:104D900029CFEE2009F426CF80913404803210F21E
:104DA00020912E0430912F043A8329839C828B8298
:104DB000909132049D831E828F83CE010196B0CFE5
:104DC000483C5105D0F6882309F40FCFFE2CEE2085
:104DD00009F408CF80912F048C1120C080912E04FB
:104DE000D8121CC08091340480FD0FC0982F907F92
:104DF00061F08683903F31F0982F907F905F8F70A5
:104E0000892B8683C8010E94121F87E0F801AEE259
:104E1000B4E001900D928A95E1F7DFCEC8010E94BF
:104E2000940C81117FCF809134048160809334048D
:104E3000C8010E94121FD1CEABE1B0E0E2E2F7E27E
:104E40000C94AE2F4E8B5F8B688F798F8A8F9B8FE0
:104E500091111092A9051D8A86E0FE017696DE0169
:104E60001F9601900D928A95E1F78B89882329F08E
:104E700061E0CE010F960E94B60C87E0FE013F96DE
:104E8000DE01189601900D928A95E1F7CE01089601
:104E90000E94B62581112AC087E0FE013896DE0106
:104EA000119601900D928A95E1F78C858823F1F097
:104EB0002091D10530E0C901019687709927409172
:104EC0000A064817190659F197E0929FD001939F5F
:104ED000B00D1124AE52BA4FFE01319601900D92E1
:104EE0009A95E1F78093D1050E94940B17E0809189
:104EF0000A069091D1058917F9F0819FC00111240C
:104F00008E529A4F0E94B6258823B1F080910A06EE
:104F100090E001968770992780930A06E8CF0E9457
:104F200035111092D10510920A0687E0EEE2F4E006
:104F3000DF011D928A95E9F76B96E3E00C94CA2F86
:104F4000A6E0B0E0E6EAF7E20C94AD2F0E94551C13
:104F50008C0180914104909142048017910781F067
:104F600019821A820E94551C682F49815A81792F13
:104F700080E090E00E941C271093420400934104BB
:104F80002696E4E00C94C92F1F920F920FB60F9251
:104F900011248F939F93AF93BF938091B505811197
:104FA00013C08091B6059091B705A091B805B09156
:104FB000B9054196A11DB11D8093B6059093B70523
:104FC000A093B805B093B905BF91AF919F918F9110
:104FD0000F900FBE0F901F901895A8E0B0E0E3EF80
:104FE000F7E20C949F2F85B7806885BF85B78068EE
:104FF00085BF84B7877F84BF0FB6F894A89580914A
:105000006000886180936000109260000FBE80E8AD
:1050100090E00FB6F89480936100909361000FBE0A
:105020008AE299E090930104809300040E94900624
:105030000E942F078091E20084608093E2007894C0
:105040008091C705882399F01091E9001F70809125
:10505000EC0080FFCCC180E8182B1092E900809111
:10506000E80083FD0E944B111F701093E90082E05D
:1050700084BD93E095BD9AEF97BD80936E0010922A
:10508000750410927604109277041092780480913F
:10509000D80080618093D8002AE12A95F1F700C0FA
:1050A0008091D900182F117080FD04C00E949006D5
:1050B0001092C7051093AD051093AE0510936001D3
:1050C000112309F496C11092F00288E08093F10256
:1050D0000E94282E809160018091600190E08111F2
:1050E00001C095E09093840485E0891B809383043C
:1050F00002EC13E067ECE62E63E0F62ED8018D910A
:105100008D018F3F11F00E942C09E016F106B1F7D6
:1051100007EC13E0F80181918F018F3F11F00E949D
:105120002C09F3E00D3C1F07A9F78AE0E8E8F4E05A
:10513000DF01282F1D922A95E9F7E9E7F4E0DF0166
:105140001D928A95E9F790E080E00E944930863E02
:105150009E4F11F00E94851A82E090E00E943B3041
:105160008093920484E090E00E94493090938604FA
:105170008093850483E090E00E943B3090E00E94A1
:105180008F0C8091AD0581113AC182E080930A05B0
:1051900080E880930E060E94E22C6BE070E085E7C9
:1051A00093E00E948E168823E9F180910A0565E05C
:1051B00070E081FD26C180E793E00E948E1688236F
:1051C00089F16DE070E08EE593E00E948E168823F1
:1051D00049F10E94EF07605A75418F4F9F4F6093CE
:1051E000A3057093A4058093A5059093A605E1E11E
:1051F000F6E080E092E0DF019C011D9221503040FA
:10520000E1F7F0931808E09317088FEF9FEF909362
:10521000100680930F0681E08093A8058093A70570
:1052200010920B058091870481117CC090E080E092
:105230000E944930863E9E4F21F00E94851A0E94AE
:105240000F1988E090E00E9443304B015C0184E23A
:1052500090E00E943B30282F30E040E050E060E0DA
:1052600070E080E090E000E20E942B31282939298B
:105270004A295B2920939B0530939C0540939D050B
:1052800050939E0560939F057093A0058093A105A0
:105290009093A205809117058360809317052C7F5A
:1052A00089F50E940F1988E090E00E9443306B015D
:1052B0007C0184E290E00E943B30282F30E040E007
:1052C00050E060E070E080E090E00E942B31B22F6F
:1052D000A32FF42FE52F5B0197018601BC29A12B99
:1052E000FE29E32BB0939B05A0939C05F0939D05AD
:1052F000E0939E0560939F05B092A0058093A10561
:105300009093A2050E9483080E947C0880919B05CF
:1053100080FF05C060E0869586950E94E91C81E0CB
:10532000809387048091AD05811102C00E942B2ECD
:105330000E94F71881E691E09093B2058093B10541
:1053400050E4652E8091C70512E1853009F495C0BF
:105350000E945B1D33E9E32E34E0F32E48E8C42EAF
:1053600044E0D42ED601F70191918D9124E0ED39DE
:10537000F20709F48CC09817B9F38090AD0510E0DE
:1053800077247394D6010D916D01F70191907F01FF
:10539000901629F1B12CAA24A3949026892D8A2154
:1053A000B1F08820A1F0B9821A830E94551C9C8319
:1053B0008B837D8291E08A2D802309F490E09E8387
:1053C00049815A816B817C818D810E941C27B39415
:1053D000AA0CF6E0BF12E2CFF701319700831F5FFE
:1053E0001A3081F60E944309DD24D39455C080E031
:1053F00033CE88E08093F0028093F1026BCE80E0A0
:10540000C5CE8BE693E0D9CE8091C705843029F1D3
:105410000E94B8161092B50588E190E00FB6F89496
:10542000A895809360000FBE6092600083B7817F73
:10543000846083BF83B7816083BF7894889583B786
:105440008E7F83BF0FB6F894A89580916000886125
:1054500080936000109260000FBE8091C605882383
:1054600061F00E945B1DE8E8F4E08191811193C234
:10547000A2E9B4E0AE17BF07C1F78091C705853038
:1054800009F4C2CF0E9435110E945F0861CF9813C2
:1054900074CF0E94A027D12C8091AD05882309F1FB
:1054A0000091AB051091AC0501151105D1F080916B
:1054B0009D0490919E040E94461C893C910588F0B1
:1054C000C801992724E0880F991F2A95E1F7FC016C
:1054D000E059FE4F208122FD04C085599E4F0E9455
:1054E000371480911605882309F465C0809115054D
:1054F000E0919B05E695E695E81BE0931105823067
:1055000009F0B1C0F0E0E157FC4FE4910E2F10E03C
:1055100094E3E92E90E1F92E80911205882361F041
:10552000109212050E94C21C9093100580930F05E3
:1055300010921405109213050E94C21CE0910F05F1
:10554000F09110059C012E1B3F0B2F3F3F4798F514
:105550002091A2042223B1F01092A2042091A00471
:105560003091A104821B930B8F3F9F4758F4205D1D
:105570003A483093A1042093A004809117058860D5
:1055800080931705A0901305B0901405E00FF11F4C
:10559000F0931005E0930F058FE095E0F701099572
:1055A0008091130590911405892B29F4AB2819F0EB
:1055B00081E08093A20480919F04882369F0109277
:1055C0009F0480911605811107C080919B0560E0C2
:1055D000869586950E94E91C8091A805882309F488
:1055E000B2C180910C0590910D050E94461CC29796
:1055F00008F4BFC00E94551C90930D0580930C05C4
:1056000081E196E090931808809317088091AD058A
:10561000882309F4DEC08091BB049091BC048430DF
:10562000910509F4D3C008F07FC0009709F486C043
:1056300060E273E08230910509F482C09F938F93FA
:105640008BE393E09F938F931F9288E18F9383EA7C
:1056500094E09F938F930E948B310FB6F894DEBF36
:105660000FBECDBF71C0863059F4F0E0E457FC4F57
:10567000E4910E2F10E084E2E82E80E1F82E4CCF6A
:10568000893061F4E695F0E0E757FC4FE4910E2F86
:1056900010E0B6EBEB2EBFE0FB2E3ECF8F3061F477
:1056A000E695F0E0EA57FC4FE4910E2F10E0A0E3FE
:1056B000EA2EAFE0FA2E30CF853159F4F0E0ED5705
:1056C000FC4FE4910E2F10E0FBEAEF2EFEE0FF2EE0
:1056D00023CF08E210E071E2E72E7EE0F72E88315A
:1056E00009F41ACF04EF11E064EEE62E6DE0F62E19
:1056F000833209F411CF00ED17E059EEE52E57E0A3
:10570000F52E843209F008CF8E2F63E00E94F63028
:10571000E92FF0E0E058FC4FE4910E2F10E0EBEFA2
:10572000EE2EE6E1FE2EF8CE8830910521F08E3087
:10573000910509F083CF6DE273E002C067E073E08A
:1057400083EA94E00E94843183EA94E00E94761612
:1057500081E00E94C9108DEB94E00E94761681E0F2
:105760000E94C91085ED94E00E94761681E00E94A7
:10577000C91080910F0690911006892B09F4CAC0B8
:105780008091A805882309F4C5C080910B0581117B
:10579000C1C00E94D31620910F063091100621152A
:1057A000310509F4B7C080E041E050E0082F10E077
:1057B0007A01082E02C0EE0CFF1C0A94E2F7B70132
:1057C00062237323672B51F48F5FF0CF63E173E0A3
:1057D000B7CF8BE992E00E947616CBCF90910A0565
:1057E00090FFC0C0880F880F880F8093DD02109251
:1057F000E002895F8093DE0283E08093E10224E689
:1058000030E047E050E06BED72E088E70E94822DC7
:10581000892B09F07FC0A80195E0440F551F9A9588
:10582000E1F780910A0580FFAFC0EAEEF4E080E284
:10583000DF011D928A95E9F7E1EDF3E0F887EF8348
:105840000DEC13E085ED282E83E0382E8824839418
:10585000AF81B8852D91B887AF83F80141908F0152
:10586000440E552E511CC2018F5E994F2C0130E021
:1058700026513B4FF90197E0BF01621B730B982C37
:1058800001C0990C6A95EAF75201C12CD5018D919E
:105890005D018921692F6C196770762E062E000C28
:1058A000770BB82F01C0BB0F7A94EAF77B2E719566
:1058B000619571096770772701C086956A95EAF747
:1058C000782A8081782A7082C39488E0C812DECF5B
:1058D000915031969F3F81F6AF81B8852A163B06DD
:1058E00009F0B6CF04E610E020E230E04AEE54E0E2
:1058F00060E488E70E94A32D892B61F4E094F09482
:1059000080910F0690911006E822F922F09210067D
:10591000E0920F068091A7058823A9F00E94EF0767
:105920000091A3051091A4052091A5053091A6052D
:10593000601B710B820B930B6F3F7F4F8F4F9F4705
:1059400010F40E94B816D1100E94D3160E945F086E
:1059500090910E05891709F4F5CC80930E050E94ED
:10596000EF07F0CC8295880F80768093DD02980156
:1059700036952795369527952093E002815E809392
:10598000DE022093E1023BCF4F5E594F04E610E068
:1059900020E230E0ADCFE0E1E9BD19BD09B400FE81
:1059A000FDCF8091D8008F7D8093D8008091E0005A
:1059B00082608093E0008091E00081FDFCCF0E9436
:1059C00035115BCD1092B9008CE08093B80008953A
:1059D000B0E0A0E0EEEEFCE20C94A62FB82EEB01B6
:1059E0000E94551C6C01EE24E394F12CC431D105C6
:1059F00060F025E0E22EF12CCF3FDC0731F0CE0144
:105A000064E170E00E948B2F7B0184EAA82E94E869
:105A1000992E1092BC00A092BC000E94551C8C01D3
:105A20008091BC0087FF0DC08091B900887F8830CD
:105A3000F9F08091B900887F8031D1F00FEF1FEF2E
:105A400008C0C8010E94461CE816F90648F70EEF88
:105A50001FEFCF3FDC07E9F2C6010E94461CC817C2
:105A6000D907B8F6C801CDB7DEB7EBE00C94C22F6A
:105A7000B092BB009092BC000E94551C8C0180919A
:105A8000BC0087FF0AC08091B900887F883111F07F
:105A90008034A1F610E000E0E5CFC8010E94461C6A
:105AA000E816F90660F7D3CF0F931F93CF93DF93D8
:105AB000EB018093BB0084E88093BC000E94551CDE
:105AC0008C018091BC0087FF11C02091B900287F14
:105AD00081E090E0283211F490E080E0919581958A
